{
  "_format": "hh-sol-artifact-1",
  "contractName": "DeclanWork",
  "sourceName": "contracts/contract_upgrade_wip.sol",
  "abi": [
    {
      "inputs": [],
      "stateMutability": "nonpayable",
      "type": "constructor"
    },
    {
      "anonymous": false,
      "inputs": [
        {
          "indexed": false,
          "internalType": "uint64",
          "name": "gigId",
          "type": "uint64"
        },
        {
          "indexed": false,
          "internalType": "address",
          "name": "bidder",
          "type": "address"
        }
      ],
      "name": "BidPlaced",
      "type": "event"
    },
    {
      "anonymous": false,
      "inputs": [
        {
          "indexed": false,
          "internalType": "uint64",
          "name": "gigId",
          "type": "uint64"
        }
      ],
      "name": "GigCreated",
      "type": "event"
    },
    {
      "inputs": [
        {
          "internalType": "uint64",
          "name": "gigId",
          "type": "uint64"
        }
      ],
      "name": "completeGig",
      "outputs": [],
      "stateMutability": "nonpayable",
      "type": "function"
    },
    {
      "inputs": [
        {
          "internalType": "uint64",
          "name": "gigId",
          "type": "uint64"
        }
      ],
      "name": "confirmGig",
      "outputs": [],
      "stateMutability": "nonpayable",
      "type": "function"
    },
    {
      "inputs": [
        {
          "internalType": "string",
          "name": "name",
          "type": "string"
        },
        {
          "internalType": "string",
          "name": "portfolioURL",
          "type": "string"
        },
        {
          "internalType": "string[]",
          "name": "skills",
          "type": "string[]"
        },
        {
          "internalType": "string[]",
          "name": "categories",
          "type": "string[]"
        },
        {
          "internalType": "string[]",
          "name": "stars",
          "type": "string[]"
        }
      ],
      "name": "createFreelancerAccount",
      "outputs": [],
      "stateMutability": "nonpayable",
      "type": "function"
    },
    {
      "inputs": [
        {
          "internalType": "address",
          "name": "buyer",
          "type": "address"
        },
        {
          "internalType": "address",
          "name": "seller",
          "type": "address"
        },
        {
          "internalType": "string",
          "name": "title",
          "type": "string"
        },
        {
          "internalType": "string",
          "name": "description",
          "type": "string"
        },
        {
          "internalType": "uint256",
          "name": "budget",
          "type": "uint256"
        },
        {
          "internalType": "int16",
          "name": "deadline",
          "type": "int16"
        },
        {
          "internalType": "string",
          "name": "gigTimeline",
          "type": "string"
        },
        {
          "internalType": "bool",
          "name": "featureGig",
          "type": "bool"
        },
        {
          "components": [
            {
              "internalType": "string",
              "name": "name",
              "type": "string"
            },
            {
              "internalType": "address",
              "name": "freelancerAddress",
              "type": "address"
            },
            {
              "internalType": "string",
              "name": "portfolioURL",
              "type": "string"
            },
            {
              "internalType": "string[]",
              "name": "skills",
              "type": "string[]"
            },
            {
              "internalType": "string[]",
              "name": "categories",
              "type": "string[]"
            },
            {
              "internalType": "bool",
              "name": "verified",
              "type": "bool"
            },
            {
              "internalType": "string[]",
              "name": "stars",
              "type": "string[]"
            }
          ],
          "internalType": "struct DeclanWork.Freelancer",
          "name": "freelancer",
          "type": "tuple"
        },
        {
          "internalType": "string",
          "name": "status",
          "type": "string"
        },
        {
          "internalType": "bool",
          "name": "completed",
          "type": "bool"
        },
        {
          "internalType": "uint256",
          "name": "escrowAmount",
          "type": "uint256"
        }
      ],
      "name": "createGig",
      "outputs": [
        {
          "internalType": "uint64",
          "name": "",
          "type": "uint64"
        }
      ],
      "stateMutability": "nonpayable",
      "type": "function"
    },
    {
      "inputs": [
        {
          "internalType": "string",
          "name": "gigOwner",
          "type": "string"
        },
        {
          "internalType": "address",
          "name": "gigOwnerAddress",
          "type": "address"
        },
        {
          "internalType": "bool",
          "name": "isVerified",
          "type": "bool"
        },
        {
          "internalType": "string[]",
          "name": "stars",
          "type": "string[]"
        }
      ],
      "name": "createGigOwnerAccount",
      "outputs": [],
      "stateMutability": "nonpayable",
      "type": "function"
    },
    {
      "inputs": [],
      "name": "escrow",
      "outputs": [
        {
          "internalType": "address",
          "name": "buyer",
          "type": "address"
        },
        {
          "internalType": "address",
          "name": "seller",
          "type": "address"
        },
        {
          "internalType": "address",
          "name": "arbiter",
          "type": "address"
        },
        {
          "internalType": "enum DeclanWork.State",
          "name": "state",
          "type": "uint8"
        }
      ],
      "stateMutability": "view",
      "type": "function"
    },
    {
      "inputs": [
        {
          "internalType": "address",
          "name": "",
          "type": "address"
        }
      ],
      "name": "freelancers",
      "outputs": [
        {
          "internalType": "string",
          "name": "name",
          "type": "string"
        },
        {
          "internalType": "address",
          "name": "freelancerAddress",
          "type": "address"
        },
        {
          "internalType": "string",
          "name": "portfolioURL",
          "type": "string"
        },
        {
          "internalType": "bool",
          "name": "verified",
          "type": "bool"
        }
      ],
      "stateMutability": "view",
      "type": "function"
    },
    {
      "inputs": [
        {
          "internalType": "address",
          "name": "",
          "type": "address"
        }
      ],
      "name": "gigOwners",
      "outputs": [
        {
          "internalType": "string",
          "name": "gigOwner",
          "type": "string"
        },
        {
          "internalType": "address",
          "name": "gigOwnerAddress",
          "type": "address"
        },
        {
          "internalType": "bool",
          "name": "isVerified",
          "type": "bool"
        }
      ],
      "stateMutability": "view",
      "type": "function"
    },
    {
      "inputs": [
        {
          "internalType": "uint64",
          "name": "",
          "type": "uint64"
        }
      ],
      "name": "gigs",
      "outputs": [
        {
          "internalType": "uint64",
          "name": "id",
          "type": "uint64"
        },
        {
          "internalType": "address",
          "name": "buyer",
          "type": "address"
        },
        {
          "internalType": "address",
          "name": "seller",
          "type": "address"
        },
        {
          "internalType": "string",
          "name": "title",
          "type": "string"
        },
        {
          "internalType": "string",
          "name": "description",
          "type": "string"
        },
        {
          "internalType": "string",
          "name": "gigTimeline",
          "type": "string"
        },
        {
          "internalType": "int16",
          "name": "deadline",
          "type": "int16"
        },
        {
          "internalType": "uint256",
          "name": "budget",
          "type": "uint256"
        },
        {
          "internalType": "bool",
          "name": "featureGig",
          "type": "bool"
        },
        {
          "components": [
            {
              "internalType": "string",
              "name": "name",
              "type": "string"
            },
            {
              "internalType": "address",
              "name": "freelancerAddress",
              "type": "address"
            },
            {
              "internalType": "string",
              "name": "portfolioURL",
              "type": "string"
            },
            {
              "internalType": "string[]",
              "name": "skills",
              "type": "string[]"
            },
            {
              "internalType": "string[]",
              "name": "categories",
              "type": "string[]"
            },
            {
              "internalType": "bool",
              "name": "verified",
              "type": "bool"
            },
            {
              "internalType": "string[]",
              "name": "stars",
              "type": "string[]"
            }
          ],
          "internalType": "struct DeclanWork.Freelancer",
          "name": "freelancer",
          "type": "tuple"
        },
        {
          "internalType": "string",
          "name": "status",
          "type": "string"
        },
        {
          "internalType": "bool",
          "name": "completed",
          "type": "bool"
        },
        {
          "internalType": "uint256",
          "name": "escrow",
          "type": "uint256"
        }
      ],
      "stateMutability": "view",
      "type": "function"
    },
    {
      "inputs": [],
      "name": "noOfCreatedGigs",
      "outputs": [
        {
          "internalType": "uint64",
          "name": "",
          "type": "uint64"
        }
      ],
      "stateMutability": "view",
      "type": "function"
    },
    {
      "inputs": [],
      "name": "noOfFreelancers",
      "outputs": [
        {
          "internalType": "uint64",
          "name": "",
          "type": "uint64"
        }
      ],
      "stateMutability": "view",
      "type": "function"
    },
    {
      "inputs": [],
      "name": "noOfGigOwners",
      "outputs": [
        {
          "internalType": "uint64",
          "name": "",
          "type": "uint64"
        }
      ],
      "stateMutability": "view",
      "type": "function"
    },
    {
      "inputs": [
        {
          "internalType": "uint64",
          "name": "gigId",
          "type": "uint64"
        },
        {
          "internalType": "uint256",
          "name": "bidAmount",
          "type": "uint256"
        }
      ],
      "name": "placeBid",
      "outputs": [],
      "stateMutability": "nonpayable",
      "type": "function"
    },
    {
      "inputs": [
        {
          "internalType": "address",
          "name": "freelancerAddress",
          "type": "address"
        }
      ],
      "name": "verifyFreelancer",
      "outputs": [],
      "stateMutability": "nonpayable",
      "type": "function"
    }
  ],
  "bytecode": "0x6080806040523461002f57600680546001600160a81b0319163360ff60a01b19161790556129d490816100358239f35b600080fdfe6080604052600436101561001257600080fd5b60003560e01c806321bd66931461242b5780632309323c14611c895780632a3ce8d014611bfd5780632bd7003514611b7c5780635b28618f14610dfb5780637c1c41a714610d8c578063845b0d7f14610b4057806387af564e14610a81578063956876b314610a57578063d250354d14610706578063df4e4130146106df578063dfefb28c146106b5578063e2fdcc171461064d5763fd2e5a23146100b657600080fd5b34610648576040366003190112610648576100cf612762565b6001600160401b038116600052600260205260406000209061013c60405160208101906101118161010384601089016128dc565b03601f198101835282612570565b51902060405160208101906337b832b760e11b82526004815261013381612555565b51902014612960565b6006820154602435116105e75733600052600060205260406000209160018060a01b03600184015416156105ab5761019e60026040519461017c8661253a565b61018581612591565b865261019360038201612778565b602087015201612591565b6040840152602435606084015233600052600f8101602052604060002083518051906001600160401b0382116103d3576101e2826101dc85546124e5565b85612869565b602090601f831160011461053f57610213929160009183610336575b50508160011b916000199060031b1c19161790565b81555b6020840151805190600160401b82116103d35760018301548260018501558083106104c7575b5060200190600183016000526020600020916000905b8282106103e95750505050600281019360408101519485516001600160401b0381116103d35761028c8161028684546124e5565b84612869565b6020601f821160011461034157926003926102e88360609460409a9998977fb0e59b6909e1a66a0cdb5b8c4c87129f42751664da66e6d778693230501f085c9c6000926103365750508160011b916000199060031b1c19161790565b90555b015191015561030961030060108301546124e5565b60108301612841565b6010601469189a5917dc1b1858d95960b21b019101556001600160401b03825191168152336020820152a1005b0151905038806101fe565b601f198216978360005260206000209860005b8181106103bb5750837fb0e59b6909e1a66a0cdb5b8c4c87129f42751664da66e6d778693230501f085c9a60409a9998979460039794606097600195106103a3575b505050811b0190556102eb565b015160001983891b60f8161c19169055388080610396565b838301518b556001909a019960209384019301610354565b634e487b7160e01b600052604160045260246000fd5b80518051906001600160401b0382116103d3576104108261040a88546124e5565b88612869565b602090601f83116001146104575792610448836001959460209487966000926103365750508160011b916000199060031b1c19161790565b87555b01940191019092610252565b908660005260206000209160005b601f19851681106104af575083602093600196938796938794601f19811610610496575b505050811b01875561044b565b015160001960f88460031b161c19169055388080610489565b91926020600181928685015181550194019201610465565b600184016000526020600020908382015b81830181106104e857505061023c565b806104f5600192546124e5565b80610502575b50016104d8565b601f811183146105185750600081555b386104fb565b600090828252610536601f60208420920160051c820185830161282a565b81835555610512565b9190836000526020600020906000935b601f1984168510610590576001945083601f19811610610577575b505050811b018155610216565b015160001960f88460031b161c1916905538808061056a565b8181015183556020948501946001909301929091019061054f565b60405162461bcd60e51b8152602060048201526014602482015273119c99595b185b98d95c881b9bdd08199bdd5b9960621b6044820152606490fd5b60405162461bcd60e51b815260206004820152603360248201527f42696420616d6f756e74206d757374206265206c657373207468616e206f7220604482015272195c5d585b081d1bc819da59c8189d5919d95d606a1b6064820152608490fd5b600080fd5b346106485760003660031901126106485760018060a01b03806004541681600554169160065460ff8160a01c16936040519384526020840152166040820152600382101561069f576080916060820152f35b634e487b7160e01b600052602160045260246000fd5b346106485760003660031901126106485760206001600160401b0360035460401c16604051908152f35b346106485760003660031901126106485760206001600160401b0360035416604051908152f35b34610648576080366003190112610648576001600160401b0360043581811161064857610737903690600401612676565b61073f6124cf565b906044359081151580920361064857606435848111610648576107669036906004016126e3565b604051916107738361253a565b825260209182810160018060a01b038096168152604082019485526060820192835233600052600194858552604060002092519687518981116103d3576107c4816107be87546124e5565b87612869565b86601f99601f83116001146109ed5791806107fc92600298979695946000926109e25750508160011b916000199060031b1c19161790565b84555b87840192511682549160ff60a01b9051151560a01b16916affffffffffffffffffffff60a81b161717905501905191825192600160401b84116103d35781908354858555808610610968575b500191600052806000206000925b84841061089a578767ffffffffffffffff60401b61087e600354928360401c166128ae565b60401b169067ffffffffffffffff60401b191617600355600080f35b80519081518981116103d3578791816108b8879361040a88546124e5565b82948b821160011461090257908085966108e8936000926108f75750508160011b916000199060031b1c19161790565b85555b01920193019290610859565b015190508e806101fe565b94601f1982169087600052846000209160005b8181106109515750908697848895949310610938575b505050811b0185556108eb565b015160001960f88460031b161c191690558d808061092b565b8289015184558d978b979401939283019201610915565b8460005286868460002092830192015b82811061098657505061084b565b909192935061099581546124e5565b806109a7575b50019086849392610978565b8981116001146109bd5750600081555b8a61099b565b6000908282526109d98b888420920160051c820185830161282a565b818355556109b7565b015190508d806101fe565b95949392918991601f19821690876000528a6000209160005b8c828210610a41575050988360029a10610a28575b505050811b0184556107ff565b015160001960f88460031b161c191690558c8080610a1b565b838c015185558e96909401939283019201610a06565b346106485760003660031901126106485760206001600160401b0360035460801c16604051908152f35b34610648576020366003190112610648576001600160401b03610aa2612762565b16600052600260205260406000206040516020810190610ac98161010384601087016128dc565b51902060405160208101906818dbdb5c1b195d195960ba1b825260098152610af081612555565b51902003610b045760126000910155600080f35b60405162461bcd60e51b815260206004820152601460248201527311da59c81a5cc81b9bdd0818dbdb5c1b195d195960621b6044820152606490fd5b3461064857602036600319011261064857610b59612762565b6001600160401b031660005260026020526040600020805490600160a01b600190036001820154169060028101610b8f90612591565b610b9b60038301612591565b610ba760048401612591565b600584015460010b906006850154600786015460ff169060405192610bcb8461251f565b610bd760088901612591565b845260098801546001600160a01b03166020850152610bf8600a8901612591565b6040850152610c09600b8901612778565b6060850152610c1a600c8901612778565b6080850152600d88015460ff16151560a0850152610c3a600e8901612778565b60c0850152610c4b60108901612591565b95601189015460ff169860120154976040519b8c9b8c6101a0926001600160401b0381168252600160a01b600190039060401c16906020015260408d01528060608d01528b01610c9a91612636565b8a810360808c0152610cab91612636565b89810360a08b0152610cbc91612636565b9360c089015260e08801521515610100870152858203610120870152805160e0835260e08301610ceb91612636565b600160a01b6001900360208301511660208401526040820151908381036040850152610d1691612636565b6060820151908381036060850152610d2d916127cd565b6080820151908381036080850152610d44916127cd565b9060a0810151151560a084015260c00151918082039060c00152610d67916127cd565b848103610140860152610d7991612636565b9115156101608401526101808301520390f35b3461064857602036600319011261064857610de46001600160a01b0380610db16124b9565b16600052600160205260406000209060ff6001610dcd84612591565b930154604051948594606086526060860190612636565b928116602085015260a01c16151560408301520390f35b34610648576003196101803682011261064857610e166124b9565b610e1e6124cf565b906044356001600160401b03811161064857610e3e903690600401612676565b926064356001600160401b03811161064857610e5e903690600401612676565b9060a43560010b60a435036106485760c4356001600160401b03811161064857610e8c903690600401612676565b9060e435151560e43503610648576001600160401b0361010435116106485760e09061010435360301126106485760405191610ec78361251f565b61010435600401356001600160401b03811161064857610ef09060043691610104350101612676565b835261010435602401356001600160a01b0381169003610648576101043560248101356020850152604401356001600160401b03811161064857610f3d9060043691610104350101612676565b60408401526001600160401b0360646101043501351161064857610f6d36610104356064810135016004016126e3565b606084015260846101043501356001600160401b03811161064857610f9b90600436916101043501016126e3565b60808401526101043560a4013580151590036106485760a461010435013560a08401526001600160401b0360c46101043501351161064857610fe9366101043560c4810135016004016126e3565b60c0840152610124356001600160401b0381116106485761100e903690600401612676565b956101443515156101443503610648576003549567ffffffffffffffff60801b611044608089901c6001600160401b03166128ae565b60801b166001600160401b0360801b198816176003556001600160401b038760801c166000526002602052604060002095865490600160401b600160e01b039060401b16906001600160401b038960801c169063ffffffff60e01b1617178655600186019060018060a01b03166bffffffffffffffffffffffff60a01b8254161790558051906001600160401b0382116103d3576110f2826110e960028901546124e5565b60028901612869565b602090601f8311600114611b0a57611122929160009183611aff5750508160011b916000199060031b1c19161790565b60028501555b8051906001600160401b0382116103d3576111538261114a60038801546124e5565b60038801612869565b602090601f8311600114611a8d57611183929160009183611a825750508160011b916000199060031b1c19161790565b60038401555b8051906001600160401b0382116103d3576111b4826111ab60048701546124e5565b60048701612869565b602090601f8311600114611a10576111e49291600091836114cb5750508160011b916000199060031b1c19161790565b60048301555b6005820161ffff1981541660a43561ffff16179055608435600683015561122260e435600784019060ff801983541691151516179055565b80518051906001600160401b0382116103d35761124f8261124660088701546124e5565b60088701612869565b602090601f831160011461199e5761127f9291600091836114cb5750508160011b916000199060031b1c19161790565b60088301555b6009820160018060a01b036020830151166bffffffffffffffffffffffff60a01b82541617905560408101518051906001600160401b0382116103d3576112dc826112d3600a8701546124e5565b600a8701612869565b602090601f831160011461192c5761130c9291600091836114cb5750508160011b916000199060031b1c19161790565b600a8301555b6060810151805190600160401b82116103d357600b84015482600b8601558083106118b4575b5060200190600b84016000526020600020916000905b8282106117dc57505050506080810151805190600160401b82116103d357600c84015482600c860155808310611764575b5060200190600c84016000526020600020916000905b82821061168c5750505050806113c260a060c09301511515600d85019060ff801983541691151516179055565b0151805190600160401b82116103d357600e83015482600e850155808310611614575b5060200190600e83016000526020600020916000905b82821061153c57505050506010810183516001600160401b0381116103d35760209461142b826101dc85546124e5565b8590601f83116001146114d65761145a9291600091836114cb5750508160011b916000199060031b1c19161790565b90555b61147961014435601183019060ff801983541691151516179055565b6012610164359101557f1c5d8807e0cac22ea4dccaf4f55e6a3d48e129d84fca614066c90f3961f93c15826040516001600160401b038460801c168152a16001600160401b036040519160801c168152f35b0151905087806101fe565b90601f1983169184600052876000209260005b818110611525575090846001959493921061150c575b505050811b01905561145d565b015160001960f88460031b161c191690558680806114ff565b9293896001819287860151815501950193016114e9565b80518051906001600160401b0382116103d35761155d8261040a88546124e5565b602090601f83116001146115a45792611595836001959460209487966000926109e25750508160011b916000199060031b1c19161790565b87555b019401910190926113fb565b908660005260206000209160005b601f19851681106115fc575083602093600196938796938794601f198116106115e3575b505050811b018755611598565b015160001960f88460031b161c191690558c80806115d6565b919260206001819286850151815501940192016115b2565b600e84016000526020600020908382015b81830181106116355750506113e5565b80611642600192546124e5565b8061164f575b5001611625565b601f811183146116655750600081555b89611648565b600090828252611683601f60208420920160051c820185830161282a565b8183555561165f565b80518051906001600160401b0382116103d3576116ad8261040a88546124e5565b602090601f83116001146116f457926116e5836001959460209487966000926108f75750508160011b916000199060031b1c19161790565b87555b01940191019092611395565b908660005260206000209160005b601f198516811061174c575083602093600196938796938794601f19811610611733575b505050811b0187556116e8565b015160001960f88460031b161c191690558d8080611726565b91926020600181928685015181550194019201611702565b600c85016000526020600020908382015b818301811061178557505061137f565b80611792600192546124e5565b8061179f575b5001611775565b601f811183146117b55750600081555b8a611798565b6000908282526117d3601f60208420920160051c820185830161282a565b818355556117af565b80518051906001600160401b0382116103d3576117fd8261040a88546124e5565b602090601f83116001146118445792611835836001959460209487966000926108f75750508160011b916000199060031b1c19161790565b87555b0194019101909261134e565b908660005260206000209160005b601f198516811061189c575083602093600196938796938794601f19811610611883575b505050811b018755611838565b015160001960f88460031b161c191690558d8080611876565b91926020600181928685015181550194019201611852565b600b85016000526020600020908382015b81830181106118d5575050611338565b806118e2600192546124e5565b806118ef575b50016118c5565b601f811183146119055750600081555b8a6118e8565b600090828252611923601f60208420920160051c820185830161282a565b818355556118ff565b9190600a85016000526020600020906000935b601f1984168510611983576001945083601f1981161061196a575b505050811b01600a830155611312565b015160001960f88460031b161c1916905586808061195a565b8181015183556020948501946001909301929091019061193f565b9190600885016000526020600020906000935b601f19841685106119f5576001945083601f198116106119dc575b505050811b016008830155611285565b015160001960f88460031b161c191690558680806119cc565b818101518355602094850194600190930192909101906119b1565b9190600485016000526020600020906000935b601f1984168510611a67576001945083601f19811610611a4e575b505050811b0160048301556111ea565b015160001960f88460031b161c19169055868080611a3e565b81810151835560209485019460019093019290910190611a23565b0151905088806101fe565b9190600386016000526020600020906000935b601f1984168510611ae4576001945083601f19811610611acb575b505050811b016003840155611189565b015160001960f88460031b161c19169055878080611abb565b81810151835560209485019460019093019290910190611aa0565b0151905089806101fe565b9190600287016000526020600020906000935b601f1984168510611b61576001945083601f19811610611b48575b505050811b016002850155611128565b015160001960f88460031b161c19169055888080611b38565b81810151835560209485019460019093019290910190611b1d565b34610648576020366003190112610648576001600160401b03611b9d612762565b1660005260026020526011604060002060108101611bca60405160208101906101118161010384876128dc565b611bdd611bd782546124e5565b82612841565b60126818dbdb5c1b195d195960ba1b01905501805460ff19166001179055005b34610648576020366003190112610648576001600160a01b03611c1e6124b9565b1660005260006020526005604060002001805460ff8116611c445760ff19166001179055005b60405162461bcd60e51b815260206004820152601e60248201527f467265656c616e63657220697320616c726561647920766572696669656400006044820152606490fd5b346106485760a0366003190112610648576004356001600160401b03811161064857611cb9903690600401612676565b6024356001600160401b03811161064857611cd8903690600401612676565b6044356001600160401b03811161064857611cf79036906004016126e3565b6064356001600160401b03811161064857611d169036906004016126e3565b916084356001600160401b03811161064857611d369036906004016126e3565b60405194611d438661251f565b8552602085019333855260408601928352606086019384526080860152600060a086015260c085015233600052600060205260406000209284518051906001600160401b0382116103d357611d9c8261040a88546124e5565b602090601f83116001146123c357611dcc929160009183611a825750508160011b916000199060031b1c19161790565b84555b516001840180546001600160a01b0319166001600160a01b039290921691909117905551805160028401916001600160401b0382116103d357611e16826101dc85546124e5565b602090601f831160011461235b57611e469291600091836114cb5750508160011b916000199060031b1c19161790565b90555b51805190600160401b82116103d35760038301548260038501558083106122e3575b5060200190600383016000526020600020916000905b82821061220b5785856080820151805190600160401b82116103d3576004830154826004850155808310612193575b5060200190600483016000526020600020916000905b8282106120b057858560c06006600592611ef560a08601511515600583019060ff801983541691151516179055565b01920151805191600160401b83116103d35783549083855581841061203d575b5050602001916000526020600020916000905b828210611f5a576003546001600160401b03611f458183166128ae565b67ffffffffffffffff19909216911617600355005b80518051906001600160401b0382116103d357611f7b8261040a88546124e5565b602090601f8311600114611fcd5792611fb383600195946020948796600092611fc25750508160011b916000199060031b1c19161790565b87555b01940191019092611f28565b015190508a806101fe565b908660005260206000209160005b601f1985168110612025575083602093600196938796938794601f1981161061200c575b505050811b018755611fb6565b015160001960f88460031b161c19169055898080611fff565b91926020600181928685015181550194019201611fdb565b8460005283602060002092830192015b82811061205a5750611f15565b80612067600192546124e5565b80612074575b500161204d565b601f8111831461208a5750600081555b8761206d565b6000908282526120a7601f602084209201861c820185830161282a565b81835555612084565b80518051906001600160401b0382116103d3576120d18261040a88546124e5565b602090601f83116001146121235792612109836001959460209487966000926121185750508160011b916000199060031b1c19161790565b87555b01940191019092611ec6565b015190508c806101fe565b908660005260206000209160005b601f198516811061217b575083602093600196938796938794601f19811610612162575b505050811b01875561210c565b015160001960f88460031b161c191690558b8080612155565b91926020600181928685015181550194019201612131565b600484016000526020600020908382015b81830181106121b4575050611eb0565b806121c1600192546124e5565b806121ce575b50016121a4565b601f811183146121e45750600081555b886121c7565b600090828252612202601f60208420920160051c820185830161282a565b818355556121de565b80518051906001600160401b0382116103d35761222c8261040a88546124e5565b602090601f83116001146122735792612264836001959460209487966000926121185750508160011b916000199060031b1c19161790565b87555b01940191019092611e81565b908660005260206000209160005b601f19851681106122cb575083602093600196938796938794601f198116106122b2575b505050811b018755612267565b015160001960f88460031b161c191690558b80806122a5565b91926020600181928685015181550194019201612281565b600384016000526020600020908382015b8183018110612304575050611e6b565b80612311600192546124e5565b8061231e575b50016122f4565b601f811183146123345750600081555b88612317565b600090828252612352601f60208420920160051c820185830161282a565b8183555561232e565b90601f198316918460005260206000209260005b8181106123ab5750908460019594939210612392575b505050811b019055611e49565b015160001960f88460031b161c19169055868080612385565b9293602060018192878601518155019501930161236f565b90601f198316918760005260206000209260005b81811061241357509084600195949392106123fa575b505050811b018455611dcf565b015160001960f88460031b161c191690558780806123ed565b929360206001819287860151815501950193016123d7565b346106485760203660031901126106485761249a6001600160a01b03806124506124b9565b16600052600060205260406000206124ad61246a82612591565b9260018301541660ff600561248160028601612591565b9401541692604051958695608087526080870190612636565b9160208601528482036040860152612636565b90151560608301520390f35b600435906001600160a01b038216820361064857565b602435906001600160a01b038216820361064857565b90600182811c92168015612515575b60208310146124ff57565b634e487b7160e01b600052602260045260246000fd5b91607f16916124f4565b60e081019081106001600160401b038211176103d357604052565b608081019081106001600160401b038211176103d357604052565b604081019081106001600160401b038211176103d357604052565b90601f801991011681019081106001600160401b038211176103d357604052565b906040519182600082546125a4816124e5565b9081845260209460019160018116908160001461261457506001146125d5575b5050506125d392500383612570565b565b600090815285812095935091905b8183106125fc5750506125d393508201013880806125c4565b855488840185015294850194879450918301916125e3565b925050506125d394925060ff191682840152151560051b8201013880806125c4565b919082519283825260005b848110612662575050826000602080949584010152601f8019910116010190565b602081830181015184830182015201612641565b81601f82011215610648578035906001600160401b0382116103d357604051926126aa601f8401601f191660200185612570565b8284526020838301011161064857816000926020809301838601378301015290565b6001600160401b0381116103d35760051b60200190565b81601f82011215610648578035916020916126fd846126cc565b9361270b6040519586612570565b808552838086019160051b8301019280841161064857848301915b8483106127365750505050505090565b82356001600160401b03811161064857869161275784848094890101612676565b815201920191612726565b600435906001600160401b038216820361064857565b908154612784816126cc565b926127926040519485612570565b818452600090815260208082208186015b8484106127b1575050505050565b60018381926127bf85612591565b8152019201930192906127a3565b90808251908181526020809101926020808460051b8301019501936000915b8483106127fc5750505050505090565b909192939495848061281a600193601f198682030187528a51612636565b98019301930191949392906127ec565b818110612835575050565b6000815560010161282a565b90601f811161284e575050565b6125d391600052601f6020600020910160051c81019061282a565b9190601f811161287857505050565b6125d3926000526020600020906020601f840160051c830193106128a4575b601f0160051c019061282a565b9091508190612897565b6001600160401b038091169081146128c65760010190565b634e487b7160e01b600052601160045260246000fd5b6000929181546128eb816124e5565b926001918083169081156129455750600114612908575b50505050565b9091929394506000526020906020600020906000915b8583106129345750505050019038808080612902565b80548584015291830191810161291e565b60ff1916845250505081151590910201915038808080612902565b1561296757565b60405162461bcd60e51b815260206004820152600f60248201526e23b4b39034b9903737ba1037b832b760891b6044820152606490fdfea264697066735822122072bf025f29c8cda67031b787fc9c7d382c12f9e1d7ea63c698d58b8f44a15b7464736f6c63430008180033",
  "linkReferences": {},
  "deployedLinkReferences": {}
}