{"contracts/Declan.sol":{"Declan":{"abi":[{"inputs":[],"stateMutability":"nonpayable","type":"constructor"},{"anonymous":false,"inputs":[{"indexed":false,"internalType":"uint256","name":"gigId","type":"uint256"},{"indexed":false,"internalType":"address","name":"freelancer","type":"address"}],"name":"AcceptBid","type":"event"},{"anonymous":false,"inputs":[{"indexed":false,"internalType":"uint256","name":"gigId","type":"uint256"},{"indexed":false,"internalType":"address","name":"bidder","type":"address"}],"name":"BidPlaced","type":"event"},{"anonymous":false,"inputs":[{"indexed":false,"internalType":"address","name":"freelancer","type":"address"}],"name":"FreelancerJoined","type":"event"},{"anonymous":false,"inputs":[{"indexed":false,"internalType":"uint256","name":"gigId","type":"uint256"}],"name":"GigCreated","type":"event"},{"inputs":[{"internalType":"uint256","name":"gigId","type":"uint256"},{"internalType":"uint256","name":"bidAmount","type":"uint256"},{"internalType":"address","name":"freelancer","type":"address"},{"internalType":"address","name":"escrower","type":"address"}],"name":"acceptBid","outputs":[],"stateMutability":"nonpayable","type":"function"},{"inputs":[{"internalType":"uint256","name":"gigId","type":"uint256"}],"name":"completeGig","outputs":[],"stateMutability":"nonpayable","type":"function"},{"inputs":[{"internalType":"uint256","name":"gigId","type":"uint256"}],"name":"confirmGig","outputs":[],"stateMutability":"nonpayable","type":"function"},{"inputs":[{"internalType":"string","name":"name","type":"string"},{"internalType":"address","name":"addr","type":"address"},{"internalType":"string","name":"portfolioURL","type":"string"},{"internalType":"string[]","name":"skills","type":"string[]"},{"internalType":"string[]","name":"categories","type":"string[]"},{"internalType":"bool","name":"verified","type":"bool"},{"internalType":"uint32","name":"stars","type":"uint32"},{"internalType":"string","name":"email","type":"string"},{"internalType":"string","name":"country","type":"string"},{"internalType":"uint32","name":"jobCount","type":"uint32"}],"name":"createFreelancerAccount","outputs":[],"stateMutability":"nonpayable","type":"function"},{"inputs":[{"internalType":"address","name":"owner","type":"address"},{"internalType":"string","name":"ownerEmail","type":"string"},{"internalType":"string","name":"title","type":"string"},{"internalType":"string","name":"description","type":"string"},{"internalType":"uint256","name":"gigTimeline","type":"uint256"},{"internalType":"uint256","name":"budget","type":"uint256"}],"name":"createGig","outputs":[{"internalType":"uint256","name":"","type":"uint256"}],"stateMutability":"nonpayable","type":"function"},{"inputs":[{"internalType":"string","name":"gigOwner","type":"string"},{"internalType":"address","name":"gigOwnerAddress","type":"address"},{"internalType":"string","name":"gigOwnerCompany","type":"string"},{"internalType":"bool","name":"isVerified","type":"bool"},{"internalType":"uint32","name":"stars","type":"uint32"}],"name":"createGigOwnerAccount","outputs":[],"stateMutability":"nonpayable","type":"function"},{"inputs":[{"internalType":"uint256","name":"gigId","type":"uint256"},{"internalType":"uint256","name":"newDeadline","type":"uint256"}],"name":"extendDeadline","outputs":[],"stateMutability":"nonpayable","type":"function"},{"inputs":[{"internalType":"address","name":"","type":"address"}],"name":"freelancers","outputs":[{"internalType":"string","name":"name","type":"string"},{"internalType":"address","name":"addr","type":"address"},{"internalType":"string","name":"portfolioURL","type":"string"},{"internalType":"bool","name":"verified","type":"bool"},{"internalType":"uint32","name":"stars","type":"uint32"},{"internalType":"string","name":"email","type":"string"},{"internalType":"string","name":"country","type":"string"},{"internalType":"uint32","name":"jobCount","type":"uint32"}],"stateMutability":"view","type":"function"},{"inputs":[{"internalType":"address","name":"","type":"address"}],"name":"gigOwners","outputs":[{"internalType":"string","name":"gigOwner","type":"string"},{"internalType":"address","name":"gigOwnerAddress","type":"address"},{"internalType":"string","name":"gigOwnerCompany","type":"string"},{"internalType":"bool","name":"isVerified","type":"bool"},{"internalType":"uint32","name":"stars","type":"uint32"}],"stateMutability":"view","type":"function"},{"inputs":[{"internalType":"uint256","name":"","type":"uint256"}],"name":"gigs","outputs":[{"internalType":"uint256","name":"id","type":"uint256"},{"internalType":"address","name":"owner","type":"address"},{"internalType":"string","name":"ownerEmail","type":"string"},{"internalType":"address","name":"freelancer","type":"address"},{"internalType":"string","name":"title","type":"string"},{"internalType":"string","name":"description","type":"string"},{"internalType":"uint256","name":"gigTimeline","type":"uint256"},{"internalType":"uint256","name":"deadline","type":"uint256"},{"internalType":"uint256","name":"budget","type":"uint256"},{"internalType":"bool","name":"featureGig","type":"bool"},{"internalType":"string","name":"status","type":"string"},{"internalType":"address","name":"escrower","type":"address"},{"internalType":"uint256","name":"escrowAmount","type":"uint256"},{"internalType":"uint256","name":"warningCount","type":"uint256"}],"stateMutability":"view","type":"function"},{"inputs":[],"name":"noOfCreatedGigs","outputs":[{"internalType":"uint256","name":"","type":"uint256"}],"stateMutability":"view","type":"function"},{"inputs":[],"name":"noOfFreelancers","outputs":[{"internalType":"uint256","name":"","type":"uint256"}],"stateMutability":"view","type":"function"},{"inputs":[],"name":"noOfGigOwners","outputs":[{"internalType":"uint256","name":"","type":"uint256"}],"stateMutability":"view","type":"function"},{"inputs":[{"internalType":"uint256","name":"gigId","type":"uint256"},{"internalType":"uint256","name":"bidAmount","type":"uint256"}],"name":"placeBid","outputs":[],"stateMutability":"nonpayable","type":"function"},{"inputs":[{"internalType":"uint256","name":"gigId","type":"uint256"}],"name":"reportGig","outputs":[],"stateMutability":"nonpayable","type":"function"},{"inputs":[{"internalType":"address","name":"freelancerAddress","type":"address"}],"name":"updateFreelancer","outputs":[],"stateMutability":"view","type":"function"},{"inputs":[{"internalType":"address","name":"freelancerAddress","type":"address"},{"internalType":"uint32","name":"stars","type":"uint32"}],"name":"verifyFreelancer","outputs":[],"stateMutability":"nonpayable","type":"function"}],"evm":{"bytecode":{"linkReferences":{},"object":"60808060405234610025576000600355600060045560006005556120f2908161002b8239f35b600080fdfe6080604052600436101561001257600080fd5b60003560e01c806321bd669314611bd45780632d1fdef614611b3a578063407edaab14611ae257806357c90de5146115455780635e3fbdc81461141a57806362916b261461108157806367755d9014610f0b5780637c1c41a714610e6e578063810ee0f914610bc057806392bf3d6914610ba7578063956876b314610b89578063ad6b323214610b0c578063cf539fc214610a98578063d184692414610a13578063df4e4130146109f5578063dfefb28c146109d75763e4928f32146100d757600080fd5b346109d257610140806003193601126109d2576004356001600160401b0381116109d257610109903690600401611e3e565b90610112611cd2565b916044356001600160401b0381116109d257610132903690600401611e3e565b6064356001600160401b0381116109d257610151903690600401611eab565b906084356001600160401b0381116109d257610171903690600401611eab565b9060a4359081151582036109d25760c43563ffffffff811681036109d25760e4356001600160401b0381116109d2576101ae903690600401611e3e565b92610104356001600160401b0381116109d2576101cf903690600401611e3e565b94610124359663ffffffff881688036109d257604051998a01948a86106001600160401b038711176105cf5763ffffffff998a966040528b5260018060a01b038c1660208c015260408b015260608a01526080890152151560a08801521660c086015260e08501526101008401521661012082015260018060a01b0382166000526000602052604060002081519283516001600160401b0381116105cf576102818161027b8554611ce8565b8561202c565b6020601f82116001146109695781906102b49394959660009261052b575b50508160011b916000199060031b1c19161790565b82555b6001820160018060a01b036020850151166001600160601b0360a01b82541617905560408301519283516001600160401b0381116105cf57610309816103006002870154611ce8565b6002870161202c565b6020601f82116001146108fa57819061033b9394959660009261052b5750508160011b916000199060031b1c19161790565b60028401555b6060810151805190600160401b82116105cf576003850154826003870155808310610882575b5060200190600385016000526020600020916000905b8282106107aa57505050506080810151805190600160401b82116105cf576004850154826004870155808310610732575b5060200190600485016000526020600020916000905b8282106106545750505050610413600584016103f260a08401511515829060ff801983541691151516179055565b60c0830151815464ffffffff00191660089190911b64ffffffff0016179055565b60e08101519283516001600160401b0381116105cf576104438161043a6006850154611ce8565b6006850161202c565b6020601f82116001146105e55781906104759394959660009261052b5750508160011b916000199060031b1c19161790565b60068201555b600781016101008301518051906001600160401b0382116105cf576104a48261027b8554611ce8565b602090601f8311600114610536577fca6eb03990e375d3ad2129e0a822334b9d4a405fec0002368e60b40973209b8f9694602096946105068563ffffffff966101209660089660009261052b5750508160011b916000199060031b1c19161790565b90555b019201511663ffffffff198254161790556040519060018060a01b03168152a1005b01519050388061029f565b90601f198316918460005260206000209260005b8181106105b7575094600185610120956008957fca6eb03990e375d3ad2129e0a822334b9d4a405fec0002368e60b40973209b8f9c9a9563ffffffff9960209d9b1061059e575b505050811b019055610509565b015160001960f88460031b161c19169055388080610591565b9293602060018192878601518155019501930161054a565b634e487b7160e01b600052604160045260246000fd5b6006830160005260206000209060005b601f198416811061063c575060019394959683601f19811610610623575b505050811b01600682015561047b565b015160001960f88460031b161c19169055388080610613565b9091602060018192858b0151815501930191016105f5565b80518051906001600160401b0382116105cf5761067b826106758854611ce8565b8861202c565b602090601f83116001146106c257926106b38360019594602094879660009261052b5750508160011b916000199060031b1c19161790565b87555b019401910190926103c4565b908660005260206000209160005b601f198516811061071a575083602093600196938796938794601f19811610610701575b505050811b0187556106b6565b015160001960f88460031b161c191690553880806106f4565b919260206001819286850151815501940192016106d0565b600486016000526020600020908382015b81830181106107535750506103ae565b8061076060019254611ce8565b8061076d575b5001610743565b601f811183146107835750600081555b38610766565b6000908282526107a1601f60208420920160051c8201858301611fed565b8183555561077d565b80518051906001600160401b0382116105cf576107cb826106758854611ce8565b602090601f831160011461081257926108038360019594602094879660009261052b5750508160011b916000199060031b1c19161790565b87555b0194019101909261037d565b908660005260206000209160005b601f198516811061086a575083602093600196938796938794601f19811610610851575b505050811b018755610806565b015160001960f88460031b161c19169055388080610844565b91926020600181928685015181550194019201610820565b600386016000526020600020908382015b81830181106108a3575050610367565b806108b060019254611ce8565b806108bd575b5001610893565b601f811183146108d35750600081555b386108b6565b6000908282526108f1601f60208420920160051c8201858301611fed565b818355556108cd565b6002850160005260206000209060005b601f1984168110610951575060019394959683601f19811610610938575b505050811b016002840155610341565b015160001960f88460031b161c19169055388080610928565b9091602060018192858b01518155019301910161090a565b8360005260206000209060005b601f19841681106109ba575060019394959683601f198116106109a1575b505050811b0182556102b7565b015160001960f88460031b161c19169055388080610994565b9091602060018192858b015181550193019101610976565b600080fd5b346109d25760003660031901126109d2576020600454604051908152f35b346109d25760003660031901126109d2576020600354604051908152f35b346109d25760203660031901126109d2576004356000526002602052600b604060002001610a717f99f30275ab70dd1890c0789c4570632b6f0b0284d11c2d9e587d0368f7027018610a6483611f2a565b602081519101201461207e565b610a84610a7e8254611ce8565b82612004565b60126818dbdb5c1b195d195960ba1b019055005b346109d25760403660031901126109d257610ab1611cbc565b6024359063ffffffff821682036109d2576001600160a01b031660009081526020819052604090206005018054919060ff831615610aeb57005b64ffffffffff1990921660089190911b64ffffffff0016176001179055005b005b346109d25760203660031901126109d2576004356000526002602052600b604060002001610b6a7f6216ba39af4188a6d7c765710d7e6075007c3444b59a22a973d1b958c43e60bb610b5d83611f2a565b6020815191012014611faa565b610b77610a7e8254611ce8565b600e66636f6e6669726d60c81b019055005b346109d25760003660031901126109d2576020600554604051908152f35b346109d25760203660031901126109d257610b0a611cbc565b346109d25760a03660031901126109d2576001600160401b036004358181116109d257610bf1903690600401611e3e565b90610bfa611cd2565b6044358281116109d257610c12903690600401611e3e565b91606435928315158094036109d2576084359163ffffffff938484168094036109d2576040519660a08801888110848211176105cf57604052875260209081880160018060a01b0380921680825260408a0195865260608a0198895260808a01968752600052600191828452604060002099518051908682116105cf57610ca4828d610c9e8154611ce8565b9061202c565b8590601f8311600114610e0b57610cd3929160009183610e005750508160011b916000199060031b1c19161790565b8a555b828a019151166001600160601b0360a01b8254161790556002880193519081519384116105cf57610d1184610d0b8754611ce8565b8761202c565b82601f8511600114610d8d57505092610d4c83600394610b0a9a94610d6697600092610d825750508160011b916000199060031b1c19161790565b90555b0193511515849060ff801983541691151516179055565b51825464ffffffff001916911660081b64ffffffff0016179055565b015190508b8061029f565b91601f949391941984168660005283600020936000905b828210610de957505092600395928592610b0a9c96610d66999610610dd1575b505050811b019055610d4f565b015160001983881b60f8161c191690558a8080610dc4565b808886978294978701518155019601940190610da4565b015190508d8061029f565b8592918d91601f19841692600052886000209260005b8a828210610e585750508411610e3f575b505050811b018a55610cd6565b015160001960f88460031b161c191690558c8080610e32565b8385015186558a97909501949384019301610e21565b346109d25760203660031901126109d257610edf6001600160a01b0380610e93611cbc565b166000526001602052604060002063ffffffff610ef2610eb283611d43565b936001840154166003610ec760028601611d43565b9401549360405196879660a0885260a0880190611de8565b9160208701528582036040870152611de8565b9160ff81161515606085015260081c1660808301520390f35b346109d25760803660031901126109d2576001600160a01b0360443581811691600435908383036109d2576064359081168091036109d257816000526002602052604060002093600b8501917ff53a29711c02f542d137bb227e38bc4a56fdbb2d6b028d30d397ae5c030abbd7610f8184611f2a565b602081519101201461102957600c8660037f8b380139d272a82949a5f3546eeeac9ec519e39fb2e3c20db9e991aface2b44498016001600160601b0360a01b94858254161790556006810154610fdc60078301918254612071565b9055602435600d8201550191825416179055610ffb610a7e8254611ce8565b60066205749560ec1b019055604080519182526001600160a01b03909216602082015290819081015b0390a1005b60405162461bcd60e51b815260206004820152602a60248201527f47696720686173206120667265656c616e63657220776f726b696e67206f6e20604482015269697420616c726561647960b01b6064820152608490fd5b346109d25760c03660031901126109d25761109a611cbc565b6001600160401b03906024358281116109d2576110bb903690600401611e3e565b906044358381116109d2576110d4903690600401611e3e565b906064358481116109d2576110ed903690600401611e3e565b92600554938460005260209560028752604060002094868655600186019460018060a01b0316936001600160601b0360a01b95858782541617905560028701908051908482116105cf576111458261027b8554611ce8565b8a90601f83116001146113b2576111749291600091836113a75750508160011b916000199060031b1c19161790565b90555b600386018054861685179055805160048701918382116105cf5761119f8261027b8554611ce8565b8990601f8311600114611340576111ce929160009183610d825750508160011b916000199060031b1c19161790565b90555b600585019180519182116105cf576111ed8261027b8554611ce8565b8790601f83116001146112d257826000979593600e979593611224938a92610d825750508160011b916000199060031b1c19161790565b90555b608435600684015584600784015560a43560088401556009830160ff198154169055600b830161125a610a7e8254611ce8565b60086337b832b760e11b019055600c83019182541617905582600d82015501557f2e1fb8c50683dad1b56ddaf6b63d12690ec1778f0f23183b951615420f4919bf82604051838152a1600554600181018091116112bc57600555604051908152f35b634e487b7160e01b600052601160045260246000fd5b90601f1983169184600052896000209260005b8b82821061132a57505092600192859260009a9896600e9a989610611312575b505050811b019055611227565b0151891960f88460031b161c191690558a8080611305565b60018596829396860151815501950193016112e5565b90601f19831691846000528b6000209260005b8d828210611391575050908460019594939210611378575b505050811b0190556111d1565b015160001960f88460031b161c191690558a808061136b565b6001859682939686015181550195019301611353565b015190508c8061029f565b60008481528c8120929190601f198516908e5b8282106114025750509084600195949392106113e9575b505050811b019055611177565b015160001960f88460031b161c191690558b80806113dc565b806001869782949787015181550196019401906113c5565b346109d25760203660031901126109d257600435600052600260205260406000208054600160a01b6001900380600184015416926002810161145b90611d43565b9082600382015416926004820161147190611d43565b61147d60058401611d43565b906006840154916007850154600886015491600987015460ff1693600b88016114a590611d43565b96600c8901541699600d89015498600e0154996040519d8e9d8e6101c092839282526020820152604001528d016114db91611de8565b9060608d01528b810360808d01526114f291611de8565b8a810360a08c015261150391611de8565b9360c08a015260e0890152610100880152151561012087015285810361014087015261152e91611de8565b926101608501526101808401526101a08301520390f35b346109d25761155336611e28565b9080600052600260205260406000206115927f99f30275ab70dd1890c0789c4570632b6f0b0284d11c2d9e587d0368f7027018610a64600b8401611f2a565b60088101548310611a7e573360005260006020526040600020926115b68454611ce8565b15611a4257600384019060405194608086018681106001600160401b038211176105cf576040526115e681611d43565b865282546115f381611e94565b936116016040519586611d22565b818552602085019060005260206000206000915b838310611a2557505050506002611633916020880194855201611d43565b6040860152606085015233600052600a820160205260406000209084518051906001600160401b0382116105cf576116758261166f8654611ce8565b8661202c565b602090601f83116001146119bd576116a59291600091836119b25750508160011b916000199060031b1c19161790565b82555b51805190600160401b82116105cf57600183015482600185015580831061193a575b5060200190600183016000526020600020916000905b8282106118595750505050600281019360408101519485516001600160401b0381116105cf5761171a816117148454611ce8565b8461202c565b6020601f82116001146117c65792600392611777836060946110249a9998977f5445de3f4fe13efb115ec05c57e09cc0e277801d0cd2ae780457ebcd8688c3919c6000926113a75750508160011b916000199060031b1c19161790565b90555b015191015561179861178f600b830154611ce8565b600b8301612004565b601469189a5917dc1b1858d95960b21b01600b91909101556040805191825233602083015290918291820190565b601f198216978360005260206000209860005b8181106118415750837f5445de3f4fe13efb115ec05c57e09cc0e277801d0cd2ae780457ebcd8688c3919a6110249a999897946003979460609760019510611829575b505050811b01905561177a565b015160001983891b60f8161c191690558b808061181c565b838301518b556001909a0199602093840193016117d9565b80518051906001600160401b0382116105cf5761187a826106758854611ce8565b602090601f83116001146118cc57926118b2836001959460209487966000926118c15750508160011b916000199060031b1c19161790565b87555b019401910190926116e0565b015190508e8061029f565b90601f198316918760005260206000209260005b8181106119225750936020936001969387969383889510611909575b505050811b0187556118b5565b015160001960f88460031b161c191690558d80806118fc565b929360206001819287860151815501950193016118e0565b600184016000526020600020908382015b818301811061195b5750506116ca565b8061196860019254611ce8565b80611975575b500161194b565b601f8111831461198b5750600081555b8a61196e565b6000908282526119a9601f60208420920160051c8201858301611fed565b81835555611985565b01519050888061029f565b90601f198316918560005260206000209260005b818110611a0d57509084600195949392106119f4575b505050811b0182556116a8565b015160001960f88460031b161c191690558780806119e7565b929360206001819287860151815501950193016119d1565b600160208192611a3485611d43565b815201920192019190611615565b60405162461bcd60e51b8152602060048201526014602482015273119c99595b185b98d95c881b9bdd08199bdd5b9960621b6044820152606490fd5b60405162461bcd60e51b815260206004820152603660248201527f42696420616d6f756e74206d7573742062652067726561746572207468616e206044820152751bdc88195c5d585b081d1bc819da59c8189d5919d95d60521b6064820152608490fd5b346109d25760203660031901126109d2576004356000526002602052600b604060002001611b0f81611f2a565b50611b1981611f2a565b50611b27610a7e8254611ce8565b6010671c995c1bdc9d195960c21b019055005b346109d257600e611b4a36611e28565b906000526002602052604060002090600b8201611b987f6216ba39af4188a6d7c765710d7e6075007c3444b59a22a973d1b958c43e60bb611b8a83611f2a565b602081519101201415611faa565b611ba5610a7e8254611ce8565b60066205749560ec1b019055611bc060078301918254612071565b905501805490600182018092116112bc5755005b346109d25760203660031901126109d257611c6f6001600160a01b0380611bf9611cbc565b1660005260006020526040600020611cb2611c1382611d43565b9260018301541691611ca4611c2a60028301611d43565b9360058301549063ffffffff611c82611c4560068701611d43565b92826008611c5560078a01611d43565b98015416986040519b8c9b8c6101008091528d0190611de8565b9160208c01528a820360408c0152611de8565b9260ff8116151560608a015260081c16608088015286820360a0880152611de8565b9084820360c0860152611de8565b9060e08301520390f35b600435906001600160a01b03821682036109d257565b602435906001600160a01b03821682036109d257565b90600182811c92168015611d18575b6020831014611d0257565b634e487b7160e01b600052602260045260246000fd5b91607f1691611cf7565b90601f801991011681019081106001600160401b038211176105cf57604052565b90604051918260008254611d5681611ce8565b90818452602094600191600181169081600014611dc65750600114611d87575b505050611d8592500383611d22565b565b600090815285812095935091905b818310611dae575050611d859350820101388080611d76565b85548884018501529485019487945091830191611d95565b92505050611d8594925060ff191682840152151560051b820101388080611d76565b919082519283825260005b848110611e14575050826000602080949584010152601f8019910116010190565b602081830181015184830182015201611df3565b60409060031901126109d2576004359060243590565b81601f820112156109d2578035906001600160401b0382116105cf5760405192611e72601f8401601f191660200185611d22565b828452602083830101116109d257816000926020809301838601378301015290565b6001600160401b0381116105cf5760051b60200190565b81601f820112156109d257803591602091611ec584611e94565b93611ed36040519586611d22565b808552838086019160051b830101928084116109d257848301915b848310611efe5750505050505090565b82356001600160401b0381116109d2578691611f1f84848094890101611e3e565b815201920191611eee565b90604051918260008254611f3d81611ce8565b90818452602094600191600181169081600014611dc65750600114611f6b57505050611d8592500383611d22565b600090815285812095935091905b818310611f92575050611d859350820101388080611d76565b85548884018501529485019487945091830191611f79565b15611fb157565b60405162461bcd60e51b815260206004820152601460248201527311da59c81a5cc81b9bdd0818dbdb5c1b195d195960621b6044820152606490fd5b818110611ff8575050565b60008155600101611fed565b90601f8111612011575050565b611d8591600052601f6020600020910160051c810190611fed565b9190601f811161203b57505050565b611d85926000526020600020906020601f840160051c83019310612067575b601f0160051c0190611fed565b909150819061205a565b919082018092116112bc57565b1561208557565b60405162461bcd60e51b815260206004820152600f60248201526e23b4b39034b9903737ba1037b832b760891b6044820152606490fdfea2646970667358221220f6694c5d006588d8405f2ce939ed1d8ff90b38184951b42de8d180e016f84bf364736f6c63430008180033","opcodes":"PUSH1 0x80 DUP1 PUSH1 0x40 MSTORE CALLVALUE PUSH2 0x25 JUMPI PUSH1 0x0 PUSH1 0x3 SSTORE PUSH1 0x0 PUSH1 0x4 SSTORE PUSH1 0x0 PUSH1 0x5 SSTORE PUSH2 0x20F2 SWAP1 DUP2 PUSH2 0x2B DUP3 CODECOPY RETURN JUMPDEST PUSH1 0x0 DUP1 REVERT INVALID PUSH1 0x80 PUSH1 0x40 MSTORE PUSH1 0x4 CALLDATASIZE LT ISZERO PUSH2 0x12 JUMPI PUSH1 0x0 DUP1 REVERT JUMPDEST PUSH1 0x0 CALLDATALOAD PUSH1 0xE0 SHR DUP1 PUSH4 0x21BD6693 EQ PUSH2 0x1BD4 JUMPI DUP1 PUSH4 0x2D1FDEF6 EQ PUSH2 0x1B3A JUMPI DUP1 PUSH4 0x407EDAAB EQ PUSH2 0x1AE2 JUMPI DUP1 PUSH4 0x57C90DE5 EQ PUSH2 0x1545 JUMPI DUP1 PUSH4 0x5E3FBDC8 EQ PUSH2 0x141A JUMPI DUP1 PUSH4 0x62916B26 EQ PUSH2 0x1081 JUMPI DUP1 PUSH4 0x67755D90 EQ PUSH2 0xF0B JUMPI DUP1 PUSH4 0x7C1C41A7 EQ PUSH2 0xE6E JUMPI DUP1 PUSH4 0x810EE0F9 EQ PUSH2 0xBC0 JUMPI DUP1 PUSH4 0x92BF3D69 EQ PUSH2 0xBA7 JUMPI DUP1 PUSH4 0x956876B3 EQ PUSH2 0xB89 JUMPI DUP1 PUSH4 0xAD6B3232 EQ PUSH2 0xB0C JUMPI DUP1 PUSH4 0xCF539FC2 EQ PUSH2 0xA98 JUMPI DUP1 PUSH4 0xD1846924 EQ PUSH2 0xA13 JUMPI DUP1 PUSH4 0xDF4E4130 EQ PUSH2 0x9F5 JUMPI DUP1 PUSH4 0xDFEFB28C EQ PUSH2 0x9D7 JUMPI PUSH4 0xE4928F32 EQ PUSH2 0xD7 JUMPI PUSH1 0x0 DUP1 REVERT JUMPDEST CALLVALUE PUSH2 0x9D2 JUMPI PUSH2 0x140 DUP1 PUSH1 0x3 NOT CALLDATASIZE ADD SLT PUSH2 0x9D2 JUMPI PUSH1 0x4 CALLDATALOAD PUSH1 0x1 PUSH1 0x1 PUSH1 0x40 SHL SUB DUP2 GT PUSH2 0x9D2 JUMPI PUSH2 0x109 SWAP1 CALLDATASIZE SWAP1 PUSH1 0x4 ADD PUSH2 0x1E3E JUMP JUMPDEST SWAP1 PUSH2 0x112 PUSH2 0x1CD2 JUMP JUMPDEST SWAP2 PUSH1 0x44 CALLDATALOAD PUSH1 0x1 PUSH1 0x1 PUSH1 0x40 SHL SUB DUP2 GT PUSH2 0x9D2 JUMPI PUSH2 0x132 SWAP1 CALLDATASIZE SWAP1 PUSH1 0x4 ADD PUSH2 0x1E3E JUMP JUMPDEST PUSH1 0x64 CALLDATALOAD PUSH1 0x1 PUSH1 0x1 PUSH1 0x40 SHL SUB DUP2 GT PUSH2 0x9D2 JUMPI PUSH2 0x151 SWAP1 CALLDATASIZE SWAP1 PUSH1 0x4 ADD PUSH2 0x1EAB JUMP JUMPDEST SWAP1 PUSH1 0x84 CALLDATALOAD PUSH1 0x1 PUSH1 0x1 PUSH1 0x40 SHL SUB DUP2 GT PUSH2 0x9D2 JUMPI PUSH2 0x171 SWAP1 CALLDATASIZE SWAP1 PUSH1 0x4 ADD PUSH2 0x1EAB JUMP JUMPDEST SWAP1 PUSH1 0xA4 CALLDATALOAD SWAP1 DUP2 ISZERO ISZERO DUP3 SUB PUSH2 0x9D2 JUMPI PUSH1 0xC4 CALLDATALOAD PUSH4 0xFFFFFFFF DUP2 AND DUP2 SUB PUSH2 0x9D2 JUMPI PUSH1 0xE4 CALLDATALOAD PUSH1 0x1 PUSH1 0x1 PUSH1 0x40 SHL SUB DUP2 GT PUSH2 0x9D2 JUMPI PUSH2 0x1AE SWAP1 CALLDATASIZE SWAP1 PUSH1 0x4 ADD PUSH2 0x1E3E JUMP JUMPDEST SWAP3 PUSH2 0x104 CALLDATALOAD PUSH1 0x1 PUSH1 0x1 PUSH1 0x40 SHL SUB DUP2 GT PUSH2 0x9D2 JUMPI PUSH2 0x1CF SWAP1 CALLDATASIZE SWAP1 PUSH1 0x4 ADD PUSH2 0x1E3E JUMP JUMPDEST SWAP5 PUSH2 0x124 CALLDATALOAD SWAP7 PUSH4 0xFFFFFFFF DUP9 AND DUP9 SUB PUSH2 0x9D2 JUMPI PUSH1 0x40 MLOAD SWAP10 DUP11 ADD SWAP5 DUP11 DUP7 LT PUSH1 0x1 PUSH1 0x1 PUSH1 0x40 SHL SUB DUP8 GT OR PUSH2 0x5CF JUMPI PUSH4 0xFFFFFFFF SWAP10 DUP11 SWAP7 PUSH1 0x40 MSTORE DUP12 MSTORE PUSH1 0x1 DUP1 PUSH1 0xA0 SHL SUB DUP13 AND PUSH1 0x20 DUP13 ADD MSTORE PUSH1 0x40 DUP12 ADD MSTORE PUSH1 0x60 DUP11 ADD MSTORE PUSH1 0x80 DUP10 ADD MSTORE ISZERO ISZERO PUSH1 0xA0 DUP9 ADD MSTORE AND PUSH1 0xC0 DUP7 ADD MSTORE PUSH1 0xE0 DUP6 ADD MSTORE PUSH2 0x100 DUP5 ADD MSTORE AND PUSH2 0x120 DUP3 ADD MSTORE PUSH1 0x1 DUP1 PUSH1 0xA0 SHL SUB DUP3 AND PUSH1 0x0 MSTORE PUSH1 0x0 PUSH1 0x20 MSTORE PUSH1 0x40 PUSH1 0x0 KECCAK256 DUP2 MLOAD SWAP3 DUP4 MLOAD PUSH1 0x1 PUSH1 0x1 PUSH1 0x40 SHL SUB DUP2 GT PUSH2 0x5CF JUMPI PUSH2 0x281 DUP2 PUSH2 0x27B DUP6 SLOAD PUSH2 0x1CE8 JUMP JUMPDEST DUP6 PUSH2 0x202C JUMP JUMPDEST PUSH1 0x20 PUSH1 0x1F DUP3 GT PUSH1 0x1 EQ PUSH2 0x969 JUMPI DUP2 SWAP1 PUSH2 0x2B4 SWAP4 SWAP5 SWAP6 SWAP7 PUSH1 0x0 SWAP3 PUSH2 0x52B JUMPI JUMPDEST POP POP DUP2 PUSH1 0x1 SHL SWAP2 PUSH1 0x0 NOT SWAP1 PUSH1 0x3 SHL SHR NOT AND OR SWAP1 JUMP JUMPDEST DUP3 SSTORE JUMPDEST PUSH1 0x1 DUP3 ADD PUSH1 0x1 DUP1 PUSH1 0xA0 SHL SUB PUSH1 0x20 DUP6 ADD MLOAD AND PUSH1 0x1 PUSH1 0x1 PUSH1 0x60 SHL SUB PUSH1 0xA0 SHL DUP3 SLOAD AND OR SWAP1 SSTORE PUSH1 0x40 DUP4 ADD MLOAD SWAP3 DUP4 MLOAD PUSH1 0x1 PUSH1 0x1 PUSH1 0x40 SHL SUB DUP2 GT PUSH2 0x5CF JUMPI PUSH2 0x309 DUP2 PUSH2 0x300 PUSH1 0x2 DUP8 ADD SLOAD PUSH2 0x1CE8 JUMP JUMPDEST PUSH1 0x2 DUP8 ADD PUSH2 0x202C JUMP JUMPDEST PUSH1 0x20 PUSH1 0x1F DUP3 GT PUSH1 0x1 EQ PUSH2 0x8FA JUMPI DUP2 SWAP1 PUSH2 0x33B SWAP4 SWAP5 SWAP6 SWAP7 PUSH1 0x0 SWAP3 PUSH2 0x52B JUMPI POP POP DUP2 PUSH1 0x1 SHL SWAP2 PUSH1 0x0 NOT SWAP1 PUSH1 0x3 SHL SHR NOT AND OR SWAP1 JUMP JUMPDEST PUSH1 0x2 DUP5 ADD SSTORE JUMPDEST PUSH1 0x60 DUP2 ADD MLOAD DUP1 MLOAD SWAP1 PUSH1 0x1 PUSH1 0x40 SHL DUP3 GT PUSH2 0x5CF JUMPI PUSH1 0x3 DUP6 ADD SLOAD DUP3 PUSH1 0x3 DUP8 ADD SSTORE DUP1 DUP4 LT PUSH2 0x882 JUMPI JUMPDEST POP PUSH1 0x20 ADD SWAP1 PUSH1 0x3 DUP6 ADD PUSH1 0x0 MSTORE PUSH1 0x20 PUSH1 0x0 KECCAK256 SWAP2 PUSH1 0x0 SWAP1 JUMPDEST DUP3 DUP3 LT PUSH2 0x7AA JUMPI POP POP POP POP PUSH1 0x80 DUP2 ADD MLOAD DUP1 MLOAD SWAP1 PUSH1 0x1 PUSH1 0x40 SHL DUP3 GT PUSH2 0x5CF JUMPI PUSH1 0x4 DUP6 ADD SLOAD DUP3 PUSH1 0x4 DUP8 ADD SSTORE DUP1 DUP4 LT PUSH2 0x732 JUMPI JUMPDEST POP PUSH1 0x20 ADD SWAP1 PUSH1 0x4 DUP6 ADD PUSH1 0x0 MSTORE PUSH1 0x20 PUSH1 0x0 KECCAK256 SWAP2 PUSH1 0x0 SWAP1 JUMPDEST DUP3 DUP3 LT PUSH2 0x654 JUMPI POP POP POP POP PUSH2 0x413 PUSH1 0x5 DUP5 ADD PUSH2 0x3F2 PUSH1 0xA0 DUP5 ADD MLOAD ISZERO ISZERO DUP3 SWAP1 PUSH1 0xFF DUP1 NOT DUP4 SLOAD AND SWAP2 ISZERO ISZERO AND OR SWAP1 SSTORE JUMP JUMPDEST PUSH1 0xC0 DUP4 ADD MLOAD DUP2 SLOAD PUSH5 0xFFFFFFFF00 NOT AND PUSH1 0x8 SWAP2 SWAP1 SWAP2 SHL PUSH5 0xFFFFFFFF00 AND OR SWAP1 SSTORE JUMP JUMPDEST PUSH1 0xE0 DUP2 ADD MLOAD SWAP3 DUP4 MLOAD PUSH1 0x1 PUSH1 0x1 PUSH1 0x40 SHL SUB DUP2 GT PUSH2 0x5CF JUMPI PUSH2 0x443 DUP2 PUSH2 0x43A PUSH1 0x6 DUP6 ADD SLOAD PUSH2 0x1CE8 JUMP JUMPDEST PUSH1 0x6 DUP6 ADD PUSH2 0x202C JUMP JUMPDEST PUSH1 0x20 PUSH1 0x1F DUP3 GT PUSH1 0x1 EQ PUSH2 0x5E5 JUMPI DUP2 SWAP1 PUSH2 0x475 SWAP4 SWAP5 SWAP6 SWAP7 PUSH1 0x0 SWAP3 PUSH2 0x52B JUMPI POP POP DUP2 PUSH1 0x1 SHL SWAP2 PUSH1 0x0 NOT SWAP1 PUSH1 0x3 SHL SHR NOT AND OR SWAP1 JUMP JUMPDEST PUSH1 0x6 DUP3 ADD SSTORE JUMPDEST PUSH1 0x7 DUP2 ADD PUSH2 0x100 DUP4 ADD MLOAD DUP1 MLOAD SWAP1 PUSH1 0x1 PUSH1 0x1 PUSH1 0x40 SHL SUB DUP3 GT PUSH2 0x5CF JUMPI PUSH2 0x4A4 DUP3 PUSH2 0x27B DUP6 SLOAD PUSH2 0x1CE8 JUMP JUMPDEST PUSH1 0x20 SWAP1 PUSH1 0x1F DUP4 GT PUSH1 0x1 EQ PUSH2 0x536 JUMPI PUSH32 0xCA6EB03990E375D3AD2129E0A822334B9D4A405FEC0002368E60B40973209B8F SWAP7 SWAP5 PUSH1 0x20 SWAP7 SWAP5 PUSH2 0x506 DUP6 PUSH4 0xFFFFFFFF SWAP7 PUSH2 0x120 SWAP7 PUSH1 0x8 SWAP7 PUSH1 0x0 SWAP3 PUSH2 0x52B JUMPI POP POP DUP2 PUSH1 0x1 SHL SWAP2 PUSH1 0x0 NOT SWAP1 PUSH1 0x3 SHL SHR NOT AND OR SWAP1 JUMP JUMPDEST SWAP1 SSTORE JUMPDEST ADD SWAP3 ADD MLOAD AND PUSH4 0xFFFFFFFF NOT DUP3 SLOAD AND OR SWAP1 SSTORE PUSH1 0x40 MLOAD SWAP1 PUSH1 0x1 DUP1 PUSH1 0xA0 SHL SUB AND DUP2 MSTORE LOG1 STOP JUMPDEST ADD MLOAD SWAP1 POP CODESIZE DUP1 PUSH2 0x29F JUMP JUMPDEST SWAP1 PUSH1 0x1F NOT DUP4 AND SWAP2 DUP5 PUSH1 0x0 MSTORE PUSH1 0x20 PUSH1 0x0 KECCAK256 SWAP3 PUSH1 0x0 JUMPDEST DUP2 DUP2 LT PUSH2 0x5B7 JUMPI POP SWAP5 PUSH1 0x1 DUP6 PUSH2 0x120 SWAP6 PUSH1 0x8 SWAP6 PUSH32 0xCA6EB03990E375D3AD2129E0A822334B9D4A405FEC0002368E60B40973209B8F SWAP13 SWAP11 SWAP6 PUSH4 0xFFFFFFFF SWAP10 PUSH1 0x20 SWAP14 SWAP12 LT PUSH2 0x59E JUMPI JUMPDEST POP POP POP DUP2 SHL ADD SWAP1 SSTORE PUSH2 0x509 JUMP JUMPDEST ADD MLOAD PUSH1 0x0 NOT PUSH1 0xF8 DUP5 PUSH1 0x3 SHL AND SHR NOT AND SWAP1 SSTORE CODESIZE DUP1 DUP1 PUSH2 0x591 JUMP JUMPDEST SWAP3 SWAP4 PUSH1 0x20 PUSH1 0x1 DUP2 SWAP3 DUP8 DUP7 ADD MLOAD DUP2 SSTORE ADD SWAP6 ADD SWAP4 ADD PUSH2 0x54A JUMP JUMPDEST PUSH4 0x4E487B71 PUSH1 0xE0 SHL PUSH1 0x0 MSTORE PUSH1 0x41 PUSH1 0x4 MSTORE PUSH1 0x24 PUSH1 0x0 REVERT JUMPDEST PUSH1 0x6 DUP4 ADD PUSH1 0x0 MSTORE PUSH1 0x20 PUSH1 0x0 KECCAK256 SWAP1 PUSH1 0x0 JUMPDEST PUSH1 0x1F NOT DUP5 AND DUP2 LT PUSH2 0x63C JUMPI POP PUSH1 0x1 SWAP4 SWAP5 SWAP6 SWAP7 DUP4 PUSH1 0x1F NOT DUP2 AND LT PUSH2 0x623 JUMPI JUMPDEST POP POP POP DUP2 SHL ADD PUSH1 0x6 DUP3 ADD SSTORE PUSH2 0x47B JUMP JUMPDEST ADD MLOAD PUSH1 0x0 NOT PUSH1 0xF8 DUP5 PUSH1 0x3 SHL AND SHR NOT AND SWAP1 SSTORE CODESIZE DUP1 DUP1 PUSH2 0x613 JUMP JUMPDEST SWAP1 SWAP2 PUSH1 0x20 PUSH1 0x1 DUP2 SWAP3 DUP6 DUP12 ADD MLOAD DUP2 SSTORE ADD SWAP4 ADD SWAP2 ADD PUSH2 0x5F5 JUMP JUMPDEST DUP1 MLOAD DUP1 MLOAD SWAP1 PUSH1 0x1 PUSH1 0x1 PUSH1 0x40 SHL SUB DUP3 GT PUSH2 0x5CF JUMPI PUSH2 0x67B DUP3 PUSH2 0x675 DUP9 SLOAD PUSH2 0x1CE8 JUMP JUMPDEST DUP9 PUSH2 0x202C JUMP JUMPDEST PUSH1 0x20 SWAP1 PUSH1 0x1F DUP4 GT PUSH1 0x1 EQ PUSH2 0x6C2 JUMPI SWAP3 PUSH2 0x6B3 DUP4 PUSH1 0x1 SWAP6 SWAP5 PUSH1 0x20 SWAP5 DUP8 SWAP7 PUSH1 0x0 SWAP3 PUSH2 0x52B JUMPI POP POP DUP2 PUSH1 0x1 SHL SWAP2 PUSH1 0x0 NOT SWAP1 PUSH1 0x3 SHL SHR NOT AND OR SWAP1 JUMP JUMPDEST DUP8 SSTORE JUMPDEST ADD SWAP5 ADD SWAP2 ADD SWAP1 SWAP3 PUSH2 0x3C4 JUMP JUMPDEST SWAP1 DUP7 PUSH1 0x0 MSTORE PUSH1 0x20 PUSH1 0x0 KECCAK256 SWAP2 PUSH1 0x0 JUMPDEST PUSH1 0x1F NOT DUP6 AND DUP2 LT PUSH2 0x71A JUMPI POP DUP4 PUSH1 0x20 SWAP4 PUSH1 0x1 SWAP7 SWAP4 DUP8 SWAP7 SWAP4 DUP8 SWAP5 PUSH1 0x1F NOT DUP2 AND LT PUSH2 0x701 JUMPI JUMPDEST POP POP POP DUP2 SHL ADD DUP8 SSTORE PUSH2 0x6B6 JUMP JUMPDEST ADD MLOAD PUSH1 0x0 NOT PUSH1 0xF8 DUP5 PUSH1 0x3 SHL AND SHR NOT AND SWAP1 SSTORE CODESIZE DUP1 DUP1 PUSH2 0x6F4 JUMP JUMPDEST SWAP2 SWAP3 PUSH1 0x20 PUSH1 0x1 DUP2 SWAP3 DUP7 DUP6 ADD MLOAD DUP2 SSTORE ADD SWAP5 ADD SWAP3 ADD PUSH2 0x6D0 JUMP JUMPDEST PUSH1 0x4 DUP7 ADD PUSH1 0x0 MSTORE PUSH1 0x20 PUSH1 0x0 KECCAK256 SWAP1 DUP4 DUP3 ADD JUMPDEST DUP2 DUP4 ADD DUP2 LT PUSH2 0x753 JUMPI POP POP PUSH2 0x3AE JUMP JUMPDEST DUP1 PUSH2 0x760 PUSH1 0x1 SWAP3 SLOAD PUSH2 0x1CE8 JUMP JUMPDEST DUP1 PUSH2 0x76D JUMPI JUMPDEST POP ADD PUSH2 0x743 JUMP JUMPDEST PUSH1 0x1F DUP2 GT DUP4 EQ PUSH2 0x783 JUMPI POP PUSH1 0x0 DUP2 SSTORE JUMPDEST CODESIZE PUSH2 0x766 JUMP JUMPDEST PUSH1 0x0 SWAP1 DUP3 DUP3 MSTORE PUSH2 0x7A1 PUSH1 0x1F PUSH1 0x20 DUP5 KECCAK256 SWAP3 ADD PUSH1 0x5 SHR DUP3 ADD DUP6 DUP4 ADD PUSH2 0x1FED JUMP JUMPDEST DUP2 DUP4 SSTORE SSTORE PUSH2 0x77D JUMP JUMPDEST DUP1 MLOAD DUP1 MLOAD SWAP1 PUSH1 0x1 PUSH1 0x1 PUSH1 0x40 SHL SUB DUP3 GT PUSH2 0x5CF JUMPI PUSH2 0x7CB DUP3 PUSH2 0x675 DUP9 SLOAD PUSH2 0x1CE8 JUMP JUMPDEST PUSH1 0x20 SWAP1 PUSH1 0x1F DUP4 GT PUSH1 0x1 EQ PUSH2 0x812 JUMPI SWAP3 PUSH2 0x803 DUP4 PUSH1 0x1 SWAP6 SWAP5 PUSH1 0x20 SWAP5 DUP8 SWAP7 PUSH1 0x0 SWAP3 PUSH2 0x52B JUMPI POP POP DUP2 PUSH1 0x1 SHL SWAP2 PUSH1 0x0 NOT SWAP1 PUSH1 0x3 SHL SHR NOT AND OR SWAP1 JUMP JUMPDEST DUP8 SSTORE JUMPDEST ADD SWAP5 ADD SWAP2 ADD SWAP1 SWAP3 PUSH2 0x37D JUMP JUMPDEST SWAP1 DUP7 PUSH1 0x0 MSTORE PUSH1 0x20 PUSH1 0x0 KECCAK256 SWAP2 PUSH1 0x0 JUMPDEST PUSH1 0x1F NOT DUP6 AND DUP2 LT PUSH2 0x86A JUMPI POP DUP4 PUSH1 0x20 SWAP4 PUSH1 0x1 SWAP7 SWAP4 DUP8 SWAP7 SWAP4 DUP8 SWAP5 PUSH1 0x1F NOT DUP2 AND LT PUSH2 0x851 JUMPI JUMPDEST POP POP POP DUP2 SHL ADD DUP8 SSTORE PUSH2 0x806 JUMP JUMPDEST ADD MLOAD PUSH1 0x0 NOT PUSH1 0xF8 DUP5 PUSH1 0x3 SHL AND SHR NOT AND SWAP1 SSTORE CODESIZE DUP1 DUP1 PUSH2 0x844 JUMP JUMPDEST SWAP2 SWAP3 PUSH1 0x20 PUSH1 0x1 DUP2 SWAP3 DUP7 DUP6 ADD MLOAD DUP2 SSTORE ADD SWAP5 ADD SWAP3 ADD PUSH2 0x820 JUMP JUMPDEST PUSH1 0x3 DUP7 ADD PUSH1 0x0 MSTORE PUSH1 0x20 PUSH1 0x0 KECCAK256 SWAP1 DUP4 DUP3 ADD JUMPDEST DUP2 DUP4 ADD DUP2 LT PUSH2 0x8A3 JUMPI POP POP PUSH2 0x367 JUMP JUMPDEST DUP1 PUSH2 0x8B0 PUSH1 0x1 SWAP3 SLOAD PUSH2 0x1CE8 JUMP JUMPDEST DUP1 PUSH2 0x8BD JUMPI JUMPDEST POP ADD PUSH2 0x893 JUMP JUMPDEST PUSH1 0x1F DUP2 GT DUP4 EQ PUSH2 0x8D3 JUMPI POP PUSH1 0x0 DUP2 SSTORE JUMPDEST CODESIZE PUSH2 0x8B6 JUMP JUMPDEST PUSH1 0x0 SWAP1 DUP3 DUP3 MSTORE PUSH2 0x8F1 PUSH1 0x1F PUSH1 0x20 DUP5 KECCAK256 SWAP3 ADD PUSH1 0x5 SHR DUP3 ADD DUP6 DUP4 ADD PUSH2 0x1FED JUMP JUMPDEST DUP2 DUP4 SSTORE SSTORE PUSH2 0x8CD JUMP JUMPDEST PUSH1 0x2 DUP6 ADD PUSH1 0x0 MSTORE PUSH1 0x20 PUSH1 0x0 KECCAK256 SWAP1 PUSH1 0x0 JUMPDEST PUSH1 0x1F NOT DUP5 AND DUP2 LT PUSH2 0x951 JUMPI POP PUSH1 0x1 SWAP4 SWAP5 SWAP6 SWAP7 DUP4 PUSH1 0x1F NOT DUP2 AND LT PUSH2 0x938 JUMPI JUMPDEST POP POP POP DUP2 SHL ADD PUSH1 0x2 DUP5 ADD SSTORE PUSH2 0x341 JUMP JUMPDEST ADD MLOAD PUSH1 0x0 NOT PUSH1 0xF8 DUP5 PUSH1 0x3 SHL AND SHR NOT AND SWAP1 SSTORE CODESIZE DUP1 DUP1 PUSH2 0x928 JUMP JUMPDEST SWAP1 SWAP2 PUSH1 0x20 PUSH1 0x1 DUP2 SWAP3 DUP6 DUP12 ADD MLOAD DUP2 SSTORE ADD SWAP4 ADD SWAP2 ADD PUSH2 0x90A JUMP JUMPDEST DUP4 PUSH1 0x0 MSTORE PUSH1 0x20 PUSH1 0x0 KECCAK256 SWAP1 PUSH1 0x0 JUMPDEST PUSH1 0x1F NOT DUP5 AND DUP2 LT PUSH2 0x9BA JUMPI POP PUSH1 0x1 SWAP4 SWAP5 SWAP6 SWAP7 DUP4 PUSH1 0x1F NOT DUP2 AND LT PUSH2 0x9A1 JUMPI JUMPDEST POP POP POP DUP2 SHL ADD DUP3 SSTORE PUSH2 0x2B7 JUMP JUMPDEST ADD MLOAD PUSH1 0x0 NOT PUSH1 0xF8 DUP5 PUSH1 0x3 SHL AND SHR NOT AND SWAP1 SSTORE CODESIZE DUP1 DUP1 PUSH2 0x994 JUMP JUMPDEST SWAP1 SWAP2 PUSH1 0x20 PUSH1 0x1 DUP2 SWAP3 DUP6 DUP12 ADD MLOAD DUP2 SSTORE ADD SWAP4 ADD SWAP2 ADD PUSH2 0x976 JUMP JUMPDEST PUSH1 0x0 DUP1 REVERT JUMPDEST CALLVALUE PUSH2 0x9D2 JUMPI PUSH1 0x0 CALLDATASIZE PUSH1 0x3 NOT ADD SLT PUSH2 0x9D2 JUMPI PUSH1 0x20 PUSH1 0x4 SLOAD PUSH1 0x40 MLOAD SWAP1 DUP2 MSTORE RETURN JUMPDEST CALLVALUE PUSH2 0x9D2 JUMPI PUSH1 0x0 CALLDATASIZE PUSH1 0x3 NOT ADD SLT PUSH2 0x9D2 JUMPI PUSH1 0x20 PUSH1 0x3 SLOAD PUSH1 0x40 MLOAD SWAP1 DUP2 MSTORE RETURN JUMPDEST CALLVALUE PUSH2 0x9D2 JUMPI PUSH1 0x20 CALLDATASIZE PUSH1 0x3 NOT ADD SLT PUSH2 0x9D2 JUMPI PUSH1 0x4 CALLDATALOAD PUSH1 0x0 MSTORE PUSH1 0x2 PUSH1 0x20 MSTORE PUSH1 0xB PUSH1 0x40 PUSH1 0x0 KECCAK256 ADD PUSH2 0xA71 PUSH32 0x99F30275AB70DD1890C0789C4570632B6F0B0284D11C2D9E587D0368F7027018 PUSH2 0xA64 DUP4 PUSH2 0x1F2A JUMP JUMPDEST PUSH1 0x20 DUP2 MLOAD SWAP2 ADD KECCAK256 EQ PUSH2 0x207E JUMP JUMPDEST PUSH2 0xA84 PUSH2 0xA7E DUP3 SLOAD PUSH2 0x1CE8 JUMP JUMPDEST DUP3 PUSH2 0x2004 JUMP JUMPDEST PUSH1 0x12 PUSH9 0x18DBDB5C1B195D1959 PUSH1 0xBA SHL ADD SWAP1 SSTORE STOP JUMPDEST CALLVALUE PUSH2 0x9D2 JUMPI PUSH1 0x40 CALLDATASIZE PUSH1 0x3 NOT ADD SLT PUSH2 0x9D2 JUMPI PUSH2 0xAB1 PUSH2 0x1CBC JUMP JUMPDEST PUSH1 0x24 CALLDATALOAD SWAP1 PUSH4 0xFFFFFFFF DUP3 AND DUP3 SUB PUSH2 0x9D2 JUMPI PUSH1 0x1 PUSH1 0x1 PUSH1 0xA0 SHL SUB AND PUSH1 0x0 SWAP1 DUP2 MSTORE PUSH1 0x20 DUP2 SWAP1 MSTORE PUSH1 0x40 SWAP1 KECCAK256 PUSH1 0x5 ADD DUP1 SLOAD SWAP2 SWAP1 PUSH1 0xFF DUP4 AND ISZERO PUSH2 0xAEB JUMPI STOP JUMPDEST PUSH5 0xFFFFFFFFFF NOT SWAP1 SWAP3 AND PUSH1 0x8 SWAP2 SWAP1 SWAP2 SHL PUSH5 0xFFFFFFFF00 AND OR PUSH1 0x1 OR SWAP1 SSTORE STOP JUMPDEST STOP JUMPDEST CALLVALUE PUSH2 0x9D2 JUMPI PUSH1 0x20 CALLDATASIZE PUSH1 0x3 NOT ADD SLT PUSH2 0x9D2 JUMPI PUSH1 0x4 CALLDATALOAD PUSH1 0x0 MSTORE PUSH1 0x2 PUSH1 0x20 MSTORE PUSH1 0xB PUSH1 0x40 PUSH1 0x0 KECCAK256 ADD PUSH2 0xB6A PUSH32 0x6216BA39AF4188A6D7C765710D7E6075007C3444B59A22A973D1B958C43E60BB PUSH2 0xB5D DUP4 PUSH2 0x1F2A JUMP JUMPDEST PUSH1 0x20 DUP2 MLOAD SWAP2 ADD KECCAK256 EQ PUSH2 0x1FAA JUMP JUMPDEST PUSH2 0xB77 PUSH2 0xA7E DUP3 SLOAD PUSH2 0x1CE8 JUMP JUMPDEST PUSH1 0xE PUSH7 0x636F6E6669726D PUSH1 0xC8 SHL ADD SWAP1 SSTORE STOP JUMPDEST CALLVALUE PUSH2 0x9D2 JUMPI PUSH1 0x0 CALLDATASIZE PUSH1 0x3 NOT ADD SLT PUSH2 0x9D2 JUMPI PUSH1 0x20 PUSH1 0x5 SLOAD PUSH1 0x40 MLOAD SWAP1 DUP2 MSTORE RETURN JUMPDEST CALLVALUE PUSH2 0x9D2 JUMPI PUSH1 0x20 CALLDATASIZE PUSH1 0x3 NOT ADD SLT PUSH2 0x9D2 JUMPI PUSH2 0xB0A PUSH2 0x1CBC JUMP JUMPDEST CALLVALUE PUSH2 0x9D2 JUMPI PUSH1 0xA0 CALLDATASIZE PUSH1 0x3 NOT ADD SLT PUSH2 0x9D2 JUMPI PUSH1 0x1 PUSH1 0x1 PUSH1 0x40 SHL SUB PUSH1 0x4 CALLDATALOAD DUP2 DUP2 GT PUSH2 0x9D2 JUMPI PUSH2 0xBF1 SWAP1 CALLDATASIZE SWAP1 PUSH1 0x4 ADD PUSH2 0x1E3E JUMP JUMPDEST SWAP1 PUSH2 0xBFA PUSH2 0x1CD2 JUMP JUMPDEST PUSH1 0x44 CALLDATALOAD DUP3 DUP2 GT PUSH2 0x9D2 JUMPI PUSH2 0xC12 SWAP1 CALLDATASIZE SWAP1 PUSH1 0x4 ADD PUSH2 0x1E3E JUMP JUMPDEST SWAP2 PUSH1 0x64 CALLDATALOAD SWAP3 DUP4 ISZERO ISZERO DUP1 SWAP5 SUB PUSH2 0x9D2 JUMPI PUSH1 0x84 CALLDATALOAD SWAP2 PUSH4 0xFFFFFFFF SWAP4 DUP5 DUP5 AND DUP1 SWAP5 SUB PUSH2 0x9D2 JUMPI PUSH1 0x40 MLOAD SWAP7 PUSH1 0xA0 DUP9 ADD DUP9 DUP2 LT DUP5 DUP3 GT OR PUSH2 0x5CF JUMPI PUSH1 0x40 MSTORE DUP8 MSTORE PUSH1 0x20 SWAP1 DUP2 DUP9 ADD PUSH1 0x1 DUP1 PUSH1 0xA0 SHL SUB DUP1 SWAP3 AND DUP1 DUP3 MSTORE PUSH1 0x40 DUP11 ADD SWAP6 DUP7 MSTORE PUSH1 0x60 DUP11 ADD SWAP9 DUP10 MSTORE PUSH1 0x80 DUP11 ADD SWAP7 DUP8 MSTORE PUSH1 0x0 MSTORE PUSH1 0x1 SWAP2 DUP3 DUP5 MSTORE PUSH1 0x40 PUSH1 0x0 KECCAK256 SWAP10 MLOAD DUP1 MLOAD SWAP1 DUP7 DUP3 GT PUSH2 0x5CF JUMPI PUSH2 0xCA4 DUP3 DUP14 PUSH2 0xC9E DUP2 SLOAD PUSH2 0x1CE8 JUMP JUMPDEST SWAP1 PUSH2 0x202C JUMP JUMPDEST DUP6 SWAP1 PUSH1 0x1F DUP4 GT PUSH1 0x1 EQ PUSH2 0xE0B JUMPI PUSH2 0xCD3 SWAP3 SWAP2 PUSH1 0x0 SWAP2 DUP4 PUSH2 0xE00 JUMPI POP POP DUP2 PUSH1 0x1 SHL SWAP2 PUSH1 0x0 NOT SWAP1 PUSH1 0x3 SHL SHR NOT AND OR SWAP1 JUMP JUMPDEST DUP11 SSTORE JUMPDEST DUP3 DUP11 ADD SWAP2 MLOAD AND PUSH1 0x1 PUSH1 0x1 PUSH1 0x60 SHL SUB PUSH1 0xA0 SHL DUP3 SLOAD AND OR SWAP1 SSTORE PUSH1 0x2 DUP9 ADD SWAP4 MLOAD SWAP1 DUP2 MLOAD SWAP4 DUP5 GT PUSH2 0x5CF JUMPI PUSH2 0xD11 DUP5 PUSH2 0xD0B DUP8 SLOAD PUSH2 0x1CE8 JUMP JUMPDEST DUP8 PUSH2 0x202C JUMP JUMPDEST DUP3 PUSH1 0x1F DUP6 GT PUSH1 0x1 EQ PUSH2 0xD8D JUMPI POP POP SWAP3 PUSH2 0xD4C DUP4 PUSH1 0x3 SWAP5 PUSH2 0xB0A SWAP11 SWAP5 PUSH2 0xD66 SWAP8 PUSH1 0x0 SWAP3 PUSH2 0xD82 JUMPI POP POP DUP2 PUSH1 0x1 SHL SWAP2 PUSH1 0x0 NOT SWAP1 PUSH1 0x3 SHL SHR NOT AND OR SWAP1 JUMP JUMPDEST SWAP1 SSTORE JUMPDEST ADD SWAP4 MLOAD ISZERO ISZERO DUP5 SWAP1 PUSH1 0xFF DUP1 NOT DUP4 SLOAD AND SWAP2 ISZERO ISZERO AND OR SWAP1 SSTORE JUMP JUMPDEST MLOAD DUP3 SLOAD PUSH5 0xFFFFFFFF00 NOT AND SWAP2 AND PUSH1 0x8 SHL PUSH5 0xFFFFFFFF00 AND OR SWAP1 SSTORE JUMP JUMPDEST ADD MLOAD SWAP1 POP DUP12 DUP1 PUSH2 0x29F JUMP JUMPDEST SWAP2 PUSH1 0x1F SWAP5 SWAP4 SWAP2 SWAP5 NOT DUP5 AND DUP7 PUSH1 0x0 MSTORE DUP4 PUSH1 0x0 KECCAK256 SWAP4 PUSH1 0x0 SWAP1 JUMPDEST DUP3 DUP3 LT PUSH2 0xDE9 JUMPI POP POP SWAP3 PUSH1 0x3 SWAP6 SWAP3 DUP6 SWAP3 PUSH2 0xB0A SWAP13 SWAP7 PUSH2 0xD66 SWAP10 SWAP7 LT PUSH2 0xDD1 JUMPI JUMPDEST POP POP POP DUP2 SHL ADD SWAP1 SSTORE PUSH2 0xD4F JUMP JUMPDEST ADD MLOAD PUSH1 0x0 NOT DUP4 DUP9 SHL PUSH1 0xF8 AND SHR NOT AND SWAP1 SSTORE DUP11 DUP1 DUP1 PUSH2 0xDC4 JUMP JUMPDEST DUP1 DUP9 DUP7 SWAP8 DUP3 SWAP5 SWAP8 DUP8 ADD MLOAD DUP2 SSTORE ADD SWAP7 ADD SWAP5 ADD SWAP1 PUSH2 0xDA4 JUMP JUMPDEST ADD MLOAD SWAP1 POP DUP14 DUP1 PUSH2 0x29F JUMP JUMPDEST DUP6 SWAP3 SWAP2 DUP14 SWAP2 PUSH1 0x1F NOT DUP5 AND SWAP3 PUSH1 0x0 MSTORE DUP9 PUSH1 0x0 KECCAK256 SWAP3 PUSH1 0x0 JUMPDEST DUP11 DUP3 DUP3 LT PUSH2 0xE58 JUMPI POP POP DUP5 GT PUSH2 0xE3F JUMPI JUMPDEST POP POP POP DUP2 SHL ADD DUP11 SSTORE PUSH2 0xCD6 JUMP JUMPDEST ADD MLOAD PUSH1 0x0 NOT PUSH1 0xF8 DUP5 PUSH1 0x3 SHL AND SHR NOT AND SWAP1 SSTORE DUP13 DUP1 DUP1 PUSH2 0xE32 JUMP JUMPDEST DUP4 DUP6 ADD MLOAD DUP7 SSTORE DUP11 SWAP8 SWAP1 SWAP6 ADD SWAP5 SWAP4 DUP5 ADD SWAP4 ADD PUSH2 0xE21 JUMP JUMPDEST CALLVALUE PUSH2 0x9D2 JUMPI PUSH1 0x20 CALLDATASIZE PUSH1 0x3 NOT ADD SLT PUSH2 0x9D2 JUMPI PUSH2 0xEDF PUSH1 0x1 PUSH1 0x1 PUSH1 0xA0 SHL SUB DUP1 PUSH2 0xE93 PUSH2 0x1CBC JUMP JUMPDEST AND PUSH1 0x0 MSTORE PUSH1 0x1 PUSH1 0x20 MSTORE PUSH1 0x40 PUSH1 0x0 KECCAK256 PUSH4 0xFFFFFFFF PUSH2 0xEF2 PUSH2 0xEB2 DUP4 PUSH2 0x1D43 JUMP JUMPDEST SWAP4 PUSH1 0x1 DUP5 ADD SLOAD AND PUSH1 0x3 PUSH2 0xEC7 PUSH1 0x2 DUP7 ADD PUSH2 0x1D43 JUMP JUMPDEST SWAP5 ADD SLOAD SWAP4 PUSH1 0x40 MLOAD SWAP7 DUP8 SWAP7 PUSH1 0xA0 DUP9 MSTORE PUSH1 0xA0 DUP9 ADD SWAP1 PUSH2 0x1DE8 JUMP JUMPDEST SWAP2 PUSH1 0x20 DUP8 ADD MSTORE DUP6 DUP3 SUB PUSH1 0x40 DUP8 ADD MSTORE PUSH2 0x1DE8 JUMP JUMPDEST SWAP2 PUSH1 0xFF DUP2 AND ISZERO ISZERO PUSH1 0x60 DUP6 ADD MSTORE PUSH1 0x8 SHR AND PUSH1 0x80 DUP4 ADD MSTORE SUB SWAP1 RETURN JUMPDEST CALLVALUE PUSH2 0x9D2 JUMPI PUSH1 0x80 CALLDATASIZE PUSH1 0x3 NOT ADD SLT PUSH2 0x9D2 JUMPI PUSH1 0x1 PUSH1 0x1 PUSH1 0xA0 SHL SUB PUSH1 0x44 CALLDATALOAD DUP2 DUP2 AND SWAP2 PUSH1 0x4 CALLDATALOAD SWAP1 DUP4 DUP4 SUB PUSH2 0x9D2 JUMPI PUSH1 0x64 CALLDATALOAD SWAP1 DUP2 AND DUP1 SWAP2 SUB PUSH2 0x9D2 JUMPI DUP2 PUSH1 0x0 MSTORE PUSH1 0x2 PUSH1 0x20 MSTORE PUSH1 0x40 PUSH1 0x0 KECCAK256 SWAP4 PUSH1 0xB DUP6 ADD SWAP2 PUSH32 0xF53A29711C02F542D137BB227E38BC4A56FDBB2D6B028D30D397AE5C030ABBD7 PUSH2 0xF81 DUP5 PUSH2 0x1F2A JUMP JUMPDEST PUSH1 0x20 DUP2 MLOAD SWAP2 ADD KECCAK256 EQ PUSH2 0x1029 JUMPI PUSH1 0xC DUP7 PUSH1 0x3 PUSH32 0x8B380139D272A82949A5F3546EEEAC9EC519E39FB2E3C20DB9E991AFACE2B444 SWAP9 ADD PUSH1 0x1 PUSH1 0x1 PUSH1 0x60 SHL SUB PUSH1 0xA0 SHL SWAP5 DUP6 DUP3 SLOAD AND OR SWAP1 SSTORE PUSH1 0x6 DUP2 ADD SLOAD PUSH2 0xFDC PUSH1 0x7 DUP4 ADD SWAP2 DUP3 SLOAD PUSH2 0x2071 JUMP JUMPDEST SWAP1 SSTORE PUSH1 0x24 CALLDATALOAD PUSH1 0xD DUP3 ADD SSTORE ADD SWAP2 DUP3 SLOAD AND OR SWAP1 SSTORE PUSH2 0xFFB PUSH2 0xA7E DUP3 SLOAD PUSH2 0x1CE8 JUMP JUMPDEST PUSH1 0x6 PUSH3 0x57495 PUSH1 0xEC SHL ADD SWAP1 SSTORE PUSH1 0x40 DUP1 MLOAD SWAP2 DUP3 MSTORE PUSH1 0x1 PUSH1 0x1 PUSH1 0xA0 SHL SUB SWAP1 SWAP3 AND PUSH1 0x20 DUP3 ADD MSTORE SWAP1 DUP2 SWAP1 DUP2 ADD JUMPDEST SUB SWAP1 LOG1 STOP JUMPDEST PUSH1 0x40 MLOAD PUSH3 0x461BCD PUSH1 0xE5 SHL DUP2 MSTORE PUSH1 0x20 PUSH1 0x4 DUP3 ADD MSTORE PUSH1 0x2A PUSH1 0x24 DUP3 ADD MSTORE PUSH32 0x47696720686173206120667265656C616E63657220776F726B696E67206F6E20 PUSH1 0x44 DUP3 ADD MSTORE PUSH10 0x697420616C7265616479 PUSH1 0xB0 SHL PUSH1 0x64 DUP3 ADD MSTORE PUSH1 0x84 SWAP1 REVERT JUMPDEST CALLVALUE PUSH2 0x9D2 JUMPI PUSH1 0xC0 CALLDATASIZE PUSH1 0x3 NOT ADD SLT PUSH2 0x9D2 JUMPI PUSH2 0x109A PUSH2 0x1CBC JUMP JUMPDEST PUSH1 0x1 PUSH1 0x1 PUSH1 0x40 SHL SUB SWAP1 PUSH1 0x24 CALLDATALOAD DUP3 DUP2 GT PUSH2 0x9D2 JUMPI PUSH2 0x10BB SWAP1 CALLDATASIZE SWAP1 PUSH1 0x4 ADD PUSH2 0x1E3E JUMP JUMPDEST SWAP1 PUSH1 0x44 CALLDATALOAD DUP4 DUP2 GT PUSH2 0x9D2 JUMPI PUSH2 0x10D4 SWAP1 CALLDATASIZE SWAP1 PUSH1 0x4 ADD PUSH2 0x1E3E JUMP JUMPDEST SWAP1 PUSH1 0x64 CALLDATALOAD DUP5 DUP2 GT PUSH2 0x9D2 JUMPI PUSH2 0x10ED SWAP1 CALLDATASIZE SWAP1 PUSH1 0x4 ADD PUSH2 0x1E3E JUMP JUMPDEST SWAP3 PUSH1 0x5 SLOAD SWAP4 DUP5 PUSH1 0x0 MSTORE PUSH1 0x20 SWAP6 PUSH1 0x2 DUP8 MSTORE PUSH1 0x40 PUSH1 0x0 KECCAK256 SWAP5 DUP7 DUP7 SSTORE PUSH1 0x1 DUP7 ADD SWAP5 PUSH1 0x1 DUP1 PUSH1 0xA0 SHL SUB AND SWAP4 PUSH1 0x1 PUSH1 0x1 PUSH1 0x60 SHL SUB PUSH1 0xA0 SHL SWAP6 DUP6 DUP8 DUP3 SLOAD AND OR SWAP1 SSTORE PUSH1 0x2 DUP8 ADD SWAP1 DUP1 MLOAD SWAP1 DUP5 DUP3 GT PUSH2 0x5CF JUMPI PUSH2 0x1145 DUP3 PUSH2 0x27B DUP6 SLOAD PUSH2 0x1CE8 JUMP JUMPDEST DUP11 SWAP1 PUSH1 0x1F DUP4 GT PUSH1 0x1 EQ PUSH2 0x13B2 JUMPI PUSH2 0x1174 SWAP3 SWAP2 PUSH1 0x0 SWAP2 DUP4 PUSH2 0x13A7 JUMPI POP POP DUP2 PUSH1 0x1 SHL SWAP2 PUSH1 0x0 NOT SWAP1 PUSH1 0x3 SHL SHR NOT AND OR SWAP1 JUMP JUMPDEST SWAP1 SSTORE JUMPDEST PUSH1 0x3 DUP7 ADD DUP1 SLOAD DUP7 AND DUP6 OR SWAP1 SSTORE DUP1 MLOAD PUSH1 0x4 DUP8 ADD SWAP2 DUP4 DUP3 GT PUSH2 0x5CF JUMPI PUSH2 0x119F DUP3 PUSH2 0x27B DUP6 SLOAD PUSH2 0x1CE8 JUMP JUMPDEST DUP10 SWAP1 PUSH1 0x1F DUP4 GT PUSH1 0x1 EQ PUSH2 0x1340 JUMPI PUSH2 0x11CE SWAP3 SWAP2 PUSH1 0x0 SWAP2 DUP4 PUSH2 0xD82 JUMPI POP POP DUP2 PUSH1 0x1 SHL SWAP2 PUSH1 0x0 NOT SWAP1 PUSH1 0x3 SHL SHR NOT AND OR SWAP1 JUMP JUMPDEST SWAP1 SSTORE JUMPDEST PUSH1 0x5 DUP6 ADD SWAP2 DUP1 MLOAD SWAP2 DUP3 GT PUSH2 0x5CF JUMPI PUSH2 0x11ED DUP3 PUSH2 0x27B DUP6 SLOAD PUSH2 0x1CE8 JUMP JUMPDEST DUP8 SWAP1 PUSH1 0x1F DUP4 GT PUSH1 0x1 EQ PUSH2 0x12D2 JUMPI DUP3 PUSH1 0x0 SWAP8 SWAP6 SWAP4 PUSH1 0xE SWAP8 SWAP6 SWAP4 PUSH2 0x1224 SWAP4 DUP11 SWAP3 PUSH2 0xD82 JUMPI POP POP DUP2 PUSH1 0x1 SHL SWAP2 PUSH1 0x0 NOT SWAP1 PUSH1 0x3 SHL SHR NOT AND OR SWAP1 JUMP JUMPDEST SWAP1 SSTORE JUMPDEST PUSH1 0x84 CALLDATALOAD PUSH1 0x6 DUP5 ADD SSTORE DUP5 PUSH1 0x7 DUP5 ADD SSTORE PUSH1 0xA4 CALLDATALOAD PUSH1 0x8 DUP5 ADD SSTORE PUSH1 0x9 DUP4 ADD PUSH1 0xFF NOT DUP2 SLOAD AND SWAP1 SSTORE PUSH1 0xB DUP4 ADD PUSH2 0x125A PUSH2 0xA7E DUP3 SLOAD PUSH2 0x1CE8 JUMP JUMPDEST PUSH1 0x8 PUSH4 0x37B832B7 PUSH1 0xE1 SHL ADD SWAP1 SSTORE PUSH1 0xC DUP4 ADD SWAP2 DUP3 SLOAD AND OR SWAP1 SSTORE DUP3 PUSH1 0xD DUP3 ADD SSTORE ADD SSTORE PUSH32 0x2E1FB8C50683DAD1B56DDAF6B63D12690EC1778F0F23183B951615420F4919BF DUP3 PUSH1 0x40 MLOAD DUP4 DUP2 MSTORE LOG1 PUSH1 0x5 SLOAD PUSH1 0x1 DUP2 ADD DUP1 SWAP2 GT PUSH2 0x12BC JUMPI PUSH1 0x5 SSTORE PUSH1 0x40 MLOAD SWAP1 DUP2 MSTORE RETURN JUMPDEST PUSH4 0x4E487B71 PUSH1 0xE0 SHL PUSH1 0x0 MSTORE PUSH1 0x11 PUSH1 0x4 MSTORE PUSH1 0x24 PUSH1 0x0 REVERT JUMPDEST SWAP1 PUSH1 0x1F NOT DUP4 AND SWAP2 DUP5 PUSH1 0x0 MSTORE DUP10 PUSH1 0x0 KECCAK256 SWAP3 PUSH1 0x0 JUMPDEST DUP12 DUP3 DUP3 LT PUSH2 0x132A JUMPI POP POP SWAP3 PUSH1 0x1 SWAP3 DUP6 SWAP3 PUSH1 0x0 SWAP11 SWAP9 SWAP7 PUSH1 0xE SWAP11 SWAP9 SWAP7 LT PUSH2 0x1312 JUMPI JUMPDEST POP POP POP DUP2 SHL ADD SWAP1 SSTORE PUSH2 0x1227 JUMP JUMPDEST ADD MLOAD DUP10 NOT PUSH1 0xF8 DUP5 PUSH1 0x3 SHL AND SHR NOT AND SWAP1 SSTORE DUP11 DUP1 DUP1 PUSH2 0x1305 JUMP JUMPDEST PUSH1 0x1 DUP6 SWAP7 DUP3 SWAP4 SWAP7 DUP7 ADD MLOAD DUP2 SSTORE ADD SWAP6 ADD SWAP4 ADD PUSH2 0x12E5 JUMP JUMPDEST SWAP1 PUSH1 0x1F NOT DUP4 AND SWAP2 DUP5 PUSH1 0x0 MSTORE DUP12 PUSH1 0x0 KECCAK256 SWAP3 PUSH1 0x0 JUMPDEST DUP14 DUP3 DUP3 LT PUSH2 0x1391 JUMPI POP POP SWAP1 DUP5 PUSH1 0x1 SWAP6 SWAP5 SWAP4 SWAP3 LT PUSH2 0x1378 JUMPI JUMPDEST POP POP POP DUP2 SHL ADD SWAP1 SSTORE PUSH2 0x11D1 JUMP JUMPDEST ADD MLOAD PUSH1 0x0 NOT PUSH1 0xF8 DUP5 PUSH1 0x3 SHL AND SHR NOT AND SWAP1 SSTORE DUP11 DUP1 DUP1 PUSH2 0x136B JUMP JUMPDEST PUSH1 0x1 DUP6 SWAP7 DUP3 SWAP4 SWAP7 DUP7 ADD MLOAD DUP2 SSTORE ADD SWAP6 ADD SWAP4 ADD PUSH2 0x1353 JUMP JUMPDEST ADD MLOAD SWAP1 POP DUP13 DUP1 PUSH2 0x29F JUMP JUMPDEST PUSH1 0x0 DUP5 DUP2 MSTORE DUP13 DUP2 KECCAK256 SWAP3 SWAP2 SWAP1 PUSH1 0x1F NOT DUP6 AND SWAP1 DUP15 JUMPDEST DUP3 DUP3 LT PUSH2 0x1402 JUMPI POP POP SWAP1 DUP5 PUSH1 0x1 SWAP6 SWAP5 SWAP4 SWAP3 LT PUSH2 0x13E9 JUMPI JUMPDEST POP POP POP DUP2 SHL ADD SWAP1 SSTORE PUSH2 0x1177 JUMP JUMPDEST ADD MLOAD PUSH1 0x0 NOT PUSH1 0xF8 DUP5 PUSH1 0x3 SHL AND SHR NOT AND SWAP1 SSTORE DUP12 DUP1 DUP1 PUSH2 0x13DC JUMP JUMPDEST DUP1 PUSH1 0x1 DUP7 SWAP8 DUP3 SWAP5 SWAP8 DUP8 ADD MLOAD DUP2 SSTORE ADD SWAP7 ADD SWAP5 ADD SWAP1 PUSH2 0x13C5 JUMP JUMPDEST CALLVALUE PUSH2 0x9D2 JUMPI PUSH1 0x20 CALLDATASIZE PUSH1 0x3 NOT ADD SLT PUSH2 0x9D2 JUMPI PUSH1 0x4 CALLDATALOAD PUSH1 0x0 MSTORE PUSH1 0x2 PUSH1 0x20 MSTORE PUSH1 0x40 PUSH1 0x0 KECCAK256 DUP1 SLOAD PUSH1 0x1 PUSH1 0xA0 SHL PUSH1 0x1 SWAP1 SUB DUP1 PUSH1 0x1 DUP5 ADD SLOAD AND SWAP3 PUSH1 0x2 DUP2 ADD PUSH2 0x145B SWAP1 PUSH2 0x1D43 JUMP JUMPDEST SWAP1 DUP3 PUSH1 0x3 DUP3 ADD SLOAD AND SWAP3 PUSH1 0x4 DUP3 ADD PUSH2 0x1471 SWAP1 PUSH2 0x1D43 JUMP JUMPDEST PUSH2 0x147D PUSH1 0x5 DUP5 ADD PUSH2 0x1D43 JUMP JUMPDEST SWAP1 PUSH1 0x6 DUP5 ADD SLOAD SWAP2 PUSH1 0x7 DUP6 ADD SLOAD PUSH1 0x8 DUP7 ADD SLOAD SWAP2 PUSH1 0x9 DUP8 ADD SLOAD PUSH1 0xFF AND SWAP4 PUSH1 0xB DUP9 ADD PUSH2 0x14A5 SWAP1 PUSH2 0x1D43 JUMP JUMPDEST SWAP7 PUSH1 0xC DUP10 ADD SLOAD AND SWAP10 PUSH1 0xD DUP10 ADD SLOAD SWAP9 PUSH1 0xE ADD SLOAD SWAP10 PUSH1 0x40 MLOAD SWAP14 DUP15 SWAP14 DUP15 PUSH2 0x1C0 SWAP3 DUP4 SWAP3 DUP3 MSTORE PUSH1 0x20 DUP3 ADD MSTORE PUSH1 0x40 ADD MSTORE DUP14 ADD PUSH2 0x14DB SWAP2 PUSH2 0x1DE8 JUMP JUMPDEST SWAP1 PUSH1 0x60 DUP14 ADD MSTORE DUP12 DUP2 SUB PUSH1 0x80 DUP14 ADD MSTORE PUSH2 0x14F2 SWAP2 PUSH2 0x1DE8 JUMP JUMPDEST DUP11 DUP2 SUB PUSH1 0xA0 DUP13 ADD MSTORE PUSH2 0x1503 SWAP2 PUSH2 0x1DE8 JUMP JUMPDEST SWAP4 PUSH1 0xC0 DUP11 ADD MSTORE PUSH1 0xE0 DUP10 ADD MSTORE PUSH2 0x100 DUP9 ADD MSTORE ISZERO ISZERO PUSH2 0x120 DUP8 ADD MSTORE DUP6 DUP2 SUB PUSH2 0x140 DUP8 ADD MSTORE PUSH2 0x152E SWAP2 PUSH2 0x1DE8 JUMP JUMPDEST SWAP3 PUSH2 0x160 DUP6 ADD MSTORE PUSH2 0x180 DUP5 ADD MSTORE PUSH2 0x1A0 DUP4 ADD MSTORE SUB SWAP1 RETURN JUMPDEST CALLVALUE PUSH2 0x9D2 JUMPI PUSH2 0x1553 CALLDATASIZE PUSH2 0x1E28 JUMP JUMPDEST SWAP1 DUP1 PUSH1 0x0 MSTORE PUSH1 0x2 PUSH1 0x20 MSTORE PUSH1 0x40 PUSH1 0x0 KECCAK256 PUSH2 0x1592 PUSH32 0x99F30275AB70DD1890C0789C4570632B6F0B0284D11C2D9E587D0368F7027018 PUSH2 0xA64 PUSH1 0xB DUP5 ADD PUSH2 0x1F2A JUMP JUMPDEST PUSH1 0x8 DUP2 ADD SLOAD DUP4 LT PUSH2 0x1A7E JUMPI CALLER PUSH1 0x0 MSTORE PUSH1 0x0 PUSH1 0x20 MSTORE PUSH1 0x40 PUSH1 0x0 KECCAK256 SWAP3 PUSH2 0x15B6 DUP5 SLOAD PUSH2 0x1CE8 JUMP JUMPDEST ISZERO PUSH2 0x1A42 JUMPI PUSH1 0x3 DUP5 ADD SWAP1 PUSH1 0x40 MLOAD SWAP5 PUSH1 0x80 DUP7 ADD DUP7 DUP2 LT PUSH1 0x1 PUSH1 0x1 PUSH1 0x40 SHL SUB DUP3 GT OR PUSH2 0x5CF JUMPI PUSH1 0x40 MSTORE PUSH2 0x15E6 DUP2 PUSH2 0x1D43 JUMP JUMPDEST DUP7 MSTORE DUP3 SLOAD PUSH2 0x15F3 DUP2 PUSH2 0x1E94 JUMP JUMPDEST SWAP4 PUSH2 0x1601 PUSH1 0x40 MLOAD SWAP6 DUP7 PUSH2 0x1D22 JUMP JUMPDEST DUP2 DUP6 MSTORE PUSH1 0x20 DUP6 ADD SWAP1 PUSH1 0x0 MSTORE PUSH1 0x20 PUSH1 0x0 KECCAK256 PUSH1 0x0 SWAP2 JUMPDEST DUP4 DUP4 LT PUSH2 0x1A25 JUMPI POP POP POP POP PUSH1 0x2 PUSH2 0x1633 SWAP2 PUSH1 0x20 DUP9 ADD SWAP5 DUP6 MSTORE ADD PUSH2 0x1D43 JUMP JUMPDEST PUSH1 0x40 DUP7 ADD MSTORE PUSH1 0x60 DUP6 ADD MSTORE CALLER PUSH1 0x0 MSTORE PUSH1 0xA DUP3 ADD PUSH1 0x20 MSTORE PUSH1 0x40 PUSH1 0x0 KECCAK256 SWAP1 DUP5 MLOAD DUP1 MLOAD SWAP1 PUSH1 0x1 PUSH1 0x1 PUSH1 0x40 SHL SUB DUP3 GT PUSH2 0x5CF JUMPI PUSH2 0x1675 DUP3 PUSH2 0x166F DUP7 SLOAD PUSH2 0x1CE8 JUMP JUMPDEST DUP7 PUSH2 0x202C JUMP JUMPDEST PUSH1 0x20 SWAP1 PUSH1 0x1F DUP4 GT PUSH1 0x1 EQ PUSH2 0x19BD JUMPI PUSH2 0x16A5 SWAP3 SWAP2 PUSH1 0x0 SWAP2 DUP4 PUSH2 0x19B2 JUMPI POP POP DUP2 PUSH1 0x1 SHL SWAP2 PUSH1 0x0 NOT SWAP1 PUSH1 0x3 SHL SHR NOT AND OR SWAP1 JUMP JUMPDEST DUP3 SSTORE JUMPDEST MLOAD DUP1 MLOAD SWAP1 PUSH1 0x1 PUSH1 0x40 SHL DUP3 GT PUSH2 0x5CF JUMPI PUSH1 0x1 DUP4 ADD SLOAD DUP3 PUSH1 0x1 DUP6 ADD SSTORE DUP1 DUP4 LT PUSH2 0x193A JUMPI JUMPDEST POP PUSH1 0x20 ADD SWAP1 PUSH1 0x1 DUP4 ADD PUSH1 0x0 MSTORE PUSH1 0x20 PUSH1 0x0 KECCAK256 SWAP2 PUSH1 0x0 SWAP1 JUMPDEST DUP3 DUP3 LT PUSH2 0x1859 JUMPI POP POP POP POP PUSH1 0x2 DUP2 ADD SWAP4 PUSH1 0x40 DUP2 ADD MLOAD SWAP5 DUP6 MLOAD PUSH1 0x1 PUSH1 0x1 PUSH1 0x40 SHL SUB DUP2 GT PUSH2 0x5CF JUMPI PUSH2 0x171A DUP2 PUSH2 0x1714 DUP5 SLOAD PUSH2 0x1CE8 JUMP JUMPDEST DUP5 PUSH2 0x202C JUMP JUMPDEST PUSH1 0x20 PUSH1 0x1F DUP3 GT PUSH1 0x1 EQ PUSH2 0x17C6 JUMPI SWAP3 PUSH1 0x3 SWAP3 PUSH2 0x1777 DUP4 PUSH1 0x60 SWAP5 PUSH2 0x1024 SWAP11 SWAP10 SWAP9 SWAP8 PUSH32 0x5445DE3F4FE13EFB115EC05C57E09CC0E277801D0CD2AE780457EBCD8688C391 SWAP13 PUSH1 0x0 SWAP3 PUSH2 0x13A7 JUMPI POP POP DUP2 PUSH1 0x1 SHL SWAP2 PUSH1 0x0 NOT SWAP1 PUSH1 0x3 SHL SHR NOT AND OR SWAP1 JUMP JUMPDEST SWAP1 SSTORE JUMPDEST ADD MLOAD SWAP2 ADD SSTORE PUSH2 0x1798 PUSH2 0x178F PUSH1 0xB DUP4 ADD SLOAD PUSH2 0x1CE8 JUMP JUMPDEST PUSH1 0xB DUP4 ADD PUSH2 0x2004 JUMP JUMPDEST PUSH1 0x14 PUSH10 0x189A5917DC1B1858D959 PUSH1 0xB2 SHL ADD PUSH1 0xB SWAP2 SWAP1 SWAP2 ADD SSTORE PUSH1 0x40 DUP1 MLOAD SWAP2 DUP3 MSTORE CALLER PUSH1 0x20 DUP4 ADD MSTORE SWAP1 SWAP2 DUP3 SWAP2 DUP3 ADD SWAP1 JUMP JUMPDEST PUSH1 0x1F NOT DUP3 AND SWAP8 DUP4 PUSH1 0x0 MSTORE PUSH1 0x20 PUSH1 0x0 KECCAK256 SWAP9 PUSH1 0x0 JUMPDEST DUP2 DUP2 LT PUSH2 0x1841 JUMPI POP DUP4 PUSH32 0x5445DE3F4FE13EFB115EC05C57E09CC0E277801D0CD2AE780457EBCD8688C391 SWAP11 PUSH2 0x1024 SWAP11 SWAP10 SWAP9 SWAP8 SWAP5 PUSH1 0x3 SWAP8 SWAP5 PUSH1 0x60 SWAP8 PUSH1 0x1 SWAP6 LT PUSH2 0x1829 JUMPI JUMPDEST POP POP POP DUP2 SHL ADD SWAP1 SSTORE PUSH2 0x177A JUMP JUMPDEST ADD MLOAD PUSH1 0x0 NOT DUP4 DUP10 SHL PUSH1 0xF8 AND SHR NOT AND SWAP1 SSTORE DUP12 DUP1 DUP1 PUSH2 0x181C JUMP JUMPDEST DUP4 DUP4 ADD MLOAD DUP12 SSTORE PUSH1 0x1 SWAP1 SWAP11 ADD SWAP10 PUSH1 0x20 SWAP4 DUP5 ADD SWAP4 ADD PUSH2 0x17D9 JUMP JUMPDEST DUP1 MLOAD DUP1 MLOAD SWAP1 PUSH1 0x1 PUSH1 0x1 PUSH1 0x40 SHL SUB DUP3 GT PUSH2 0x5CF JUMPI PUSH2 0x187A DUP3 PUSH2 0x675 DUP9 SLOAD PUSH2 0x1CE8 JUMP JUMPDEST PUSH1 0x20 SWAP1 PUSH1 0x1F DUP4 GT PUSH1 0x1 EQ PUSH2 0x18CC JUMPI SWAP3 PUSH2 0x18B2 DUP4 PUSH1 0x1 SWAP6 SWAP5 PUSH1 0x20 SWAP5 DUP8 SWAP7 PUSH1 0x0 SWAP3 PUSH2 0x18C1 JUMPI POP POP DUP2 PUSH1 0x1 SHL SWAP2 PUSH1 0x0 NOT SWAP1 PUSH1 0x3 SHL SHR NOT AND OR SWAP1 JUMP JUMPDEST DUP8 SSTORE JUMPDEST ADD SWAP5 ADD SWAP2 ADD SWAP1 SWAP3 PUSH2 0x16E0 JUMP JUMPDEST ADD MLOAD SWAP1 POP DUP15 DUP1 PUSH2 0x29F JUMP JUMPDEST SWAP1 PUSH1 0x1F NOT DUP4 AND SWAP2 DUP8 PUSH1 0x0 MSTORE PUSH1 0x20 PUSH1 0x0 KECCAK256 SWAP3 PUSH1 0x0 JUMPDEST DUP2 DUP2 LT PUSH2 0x1922 JUMPI POP SWAP4 PUSH1 0x20 SWAP4 PUSH1 0x1 SWAP7 SWAP4 DUP8 SWAP7 SWAP4 DUP4 DUP9 SWAP6 LT PUSH2 0x1909 JUMPI JUMPDEST POP POP POP DUP2 SHL ADD DUP8 SSTORE PUSH2 0x18B5 JUMP JUMPDEST ADD MLOAD PUSH1 0x0 NOT PUSH1 0xF8 DUP5 PUSH1 0x3 SHL AND SHR NOT AND SWAP1 SSTORE DUP14 DUP1 DUP1 PUSH2 0x18FC JUMP JUMPDEST SWAP3 SWAP4 PUSH1 0x20 PUSH1 0x1 DUP2 SWAP3 DUP8 DUP7 ADD MLOAD DUP2 SSTORE ADD SWAP6 ADD SWAP4 ADD PUSH2 0x18E0 JUMP JUMPDEST PUSH1 0x1 DUP5 ADD PUSH1 0x0 MSTORE PUSH1 0x20 PUSH1 0x0 KECCAK256 SWAP1 DUP4 DUP3 ADD JUMPDEST DUP2 DUP4 ADD DUP2 LT PUSH2 0x195B JUMPI POP POP PUSH2 0x16CA JUMP JUMPDEST DUP1 PUSH2 0x1968 PUSH1 0x1 SWAP3 SLOAD PUSH2 0x1CE8 JUMP JUMPDEST DUP1 PUSH2 0x1975 JUMPI JUMPDEST POP ADD PUSH2 0x194B JUMP JUMPDEST PUSH1 0x1F DUP2 GT DUP4 EQ PUSH2 0x198B JUMPI POP PUSH1 0x0 DUP2 SSTORE JUMPDEST DUP11 PUSH2 0x196E JUMP JUMPDEST PUSH1 0x0 SWAP1 DUP3 DUP3 MSTORE PUSH2 0x19A9 PUSH1 0x1F PUSH1 0x20 DUP5 KECCAK256 SWAP3 ADD PUSH1 0x5 SHR DUP3 ADD DUP6 DUP4 ADD PUSH2 0x1FED JUMP JUMPDEST DUP2 DUP4 SSTORE SSTORE PUSH2 0x1985 JUMP JUMPDEST ADD MLOAD SWAP1 POP DUP9 DUP1 PUSH2 0x29F JUMP JUMPDEST SWAP1 PUSH1 0x1F NOT DUP4 AND SWAP2 DUP6 PUSH1 0x0 MSTORE PUSH1 0x20 PUSH1 0x0 KECCAK256 SWAP3 PUSH1 0x0 JUMPDEST DUP2 DUP2 LT PUSH2 0x1A0D JUMPI POP SWAP1 DUP5 PUSH1 0x1 SWAP6 SWAP5 SWAP4 SWAP3 LT PUSH2 0x19F4 JUMPI JUMPDEST POP POP POP DUP2 SHL ADD DUP3 SSTORE PUSH2 0x16A8 JUMP JUMPDEST ADD MLOAD PUSH1 0x0 NOT PUSH1 0xF8 DUP5 PUSH1 0x3 SHL AND SHR NOT AND SWAP1 SSTORE DUP8 DUP1 DUP1 PUSH2 0x19E7 JUMP JUMPDEST SWAP3 SWAP4 PUSH1 0x20 PUSH1 0x1 DUP2 SWAP3 DUP8 DUP7 ADD MLOAD DUP2 SSTORE ADD SWAP6 ADD SWAP4 ADD PUSH2 0x19D1 JUMP JUMPDEST PUSH1 0x1 PUSH1 0x20 DUP2 SWAP3 PUSH2 0x1A34 DUP6 PUSH2 0x1D43 JUMP JUMPDEST DUP2 MSTORE ADD SWAP3 ADD SWAP3 ADD SWAP2 SWAP1 PUSH2 0x1615 JUMP JUMPDEST PUSH1 0x40 MLOAD PUSH3 0x461BCD PUSH1 0xE5 SHL DUP2 MSTORE PUSH1 0x20 PUSH1 0x4 DUP3 ADD MSTORE PUSH1 0x14 PUSH1 0x24 DUP3 ADD MSTORE PUSH20 0x119C99595B185B98D95C881B9BDD08199BDD5B99 PUSH1 0x62 SHL PUSH1 0x44 DUP3 ADD MSTORE PUSH1 0x64 SWAP1 REVERT JUMPDEST PUSH1 0x40 MLOAD PUSH3 0x461BCD PUSH1 0xE5 SHL DUP2 MSTORE PUSH1 0x20 PUSH1 0x4 DUP3 ADD MSTORE PUSH1 0x36 PUSH1 0x24 DUP3 ADD MSTORE PUSH32 0x42696420616D6F756E74206D7573742062652067726561746572207468616E20 PUSH1 0x44 DUP3 ADD MSTORE PUSH22 0x1BDC88195C5D585B081D1BC819DA59C8189D5919D95D PUSH1 0x52 SHL PUSH1 0x64 DUP3 ADD MSTORE PUSH1 0x84 SWAP1 REVERT JUMPDEST CALLVALUE PUSH2 0x9D2 JUMPI PUSH1 0x20 CALLDATASIZE PUSH1 0x3 NOT ADD SLT PUSH2 0x9D2 JUMPI PUSH1 0x4 CALLDATALOAD PUSH1 0x0 MSTORE PUSH1 0x2 PUSH1 0x20 MSTORE PUSH1 0xB PUSH1 0x40 PUSH1 0x0 KECCAK256 ADD PUSH2 0x1B0F DUP2 PUSH2 0x1F2A JUMP JUMPDEST POP PUSH2 0x1B19 DUP2 PUSH2 0x1F2A JUMP JUMPDEST POP PUSH2 0x1B27 PUSH2 0xA7E DUP3 SLOAD PUSH2 0x1CE8 JUMP JUMPDEST PUSH1 0x10 PUSH8 0x1C995C1BDC9D1959 PUSH1 0xC2 SHL ADD SWAP1 SSTORE STOP JUMPDEST CALLVALUE PUSH2 0x9D2 JUMPI PUSH1 0xE PUSH2 0x1B4A CALLDATASIZE PUSH2 0x1E28 JUMP JUMPDEST SWAP1 PUSH1 0x0 MSTORE PUSH1 0x2 PUSH1 0x20 MSTORE PUSH1 0x40 PUSH1 0x0 KECCAK256 SWAP1 PUSH1 0xB DUP3 ADD PUSH2 0x1B98 PUSH32 0x6216BA39AF4188A6D7C765710D7E6075007C3444B59A22A973D1B958C43E60BB PUSH2 0x1B8A DUP4 PUSH2 0x1F2A JUMP JUMPDEST PUSH1 0x20 DUP2 MLOAD SWAP2 ADD KECCAK256 EQ ISZERO PUSH2 0x1FAA JUMP JUMPDEST PUSH2 0x1BA5 PUSH2 0xA7E DUP3 SLOAD PUSH2 0x1CE8 JUMP JUMPDEST PUSH1 0x6 PUSH3 0x57495 PUSH1 0xEC SHL ADD SWAP1 SSTORE PUSH2 0x1BC0 PUSH1 0x7 DUP4 ADD SWAP2 DUP3 SLOAD PUSH2 0x2071 JUMP JUMPDEST SWAP1 SSTORE ADD DUP1 SLOAD SWAP1 PUSH1 0x1 DUP3 ADD DUP1 SWAP3 GT PUSH2 0x12BC JUMPI SSTORE STOP JUMPDEST CALLVALUE PUSH2 0x9D2 JUMPI PUSH1 0x20 CALLDATASIZE PUSH1 0x3 NOT ADD SLT PUSH2 0x9D2 JUMPI PUSH2 0x1C6F PUSH1 0x1 PUSH1 0x1 PUSH1 0xA0 SHL SUB DUP1 PUSH2 0x1BF9 PUSH2 0x1CBC JUMP JUMPDEST AND PUSH1 0x0 MSTORE PUSH1 0x0 PUSH1 0x20 MSTORE PUSH1 0x40 PUSH1 0x0 KECCAK256 PUSH2 0x1CB2 PUSH2 0x1C13 DUP3 PUSH2 0x1D43 JUMP JUMPDEST SWAP3 PUSH1 0x1 DUP4 ADD SLOAD AND SWAP2 PUSH2 0x1CA4 PUSH2 0x1C2A PUSH1 0x2 DUP4 ADD PUSH2 0x1D43 JUMP JUMPDEST SWAP4 PUSH1 0x5 DUP4 ADD SLOAD SWAP1 PUSH4 0xFFFFFFFF PUSH2 0x1C82 PUSH2 0x1C45 PUSH1 0x6 DUP8 ADD PUSH2 0x1D43 JUMP JUMPDEST SWAP3 DUP3 PUSH1 0x8 PUSH2 0x1C55 PUSH1 0x7 DUP11 ADD PUSH2 0x1D43 JUMP JUMPDEST SWAP9 ADD SLOAD AND SWAP9 PUSH1 0x40 MLOAD SWAP12 DUP13 SWAP12 DUP13 PUSH2 0x100 DUP1 SWAP2 MSTORE DUP14 ADD SWAP1 PUSH2 0x1DE8 JUMP JUMPDEST SWAP2 PUSH1 0x20 DUP13 ADD MSTORE DUP11 DUP3 SUB PUSH1 0x40 DUP13 ADD MSTORE PUSH2 0x1DE8 JUMP JUMPDEST SWAP3 PUSH1 0xFF DUP2 AND ISZERO ISZERO PUSH1 0x60 DUP11 ADD MSTORE PUSH1 0x8 SHR AND PUSH1 0x80 DUP9 ADD MSTORE DUP7 DUP3 SUB PUSH1 0xA0 DUP9 ADD MSTORE PUSH2 0x1DE8 JUMP JUMPDEST SWAP1 DUP5 DUP3 SUB PUSH1 0xC0 DUP7 ADD MSTORE PUSH2 0x1DE8 JUMP JUMPDEST SWAP1 PUSH1 0xE0 DUP4 ADD MSTORE SUB SWAP1 RETURN JUMPDEST PUSH1 0x4 CALLDATALOAD SWAP1 PUSH1 0x1 PUSH1 0x1 PUSH1 0xA0 SHL SUB DUP3 AND DUP3 SUB PUSH2 0x9D2 JUMPI JUMP JUMPDEST PUSH1 0x24 CALLDATALOAD SWAP1 PUSH1 0x1 PUSH1 0x1 PUSH1 0xA0 SHL SUB DUP3 AND DUP3 SUB PUSH2 0x9D2 JUMPI JUMP JUMPDEST SWAP1 PUSH1 0x1 DUP3 DUP2 SHR SWAP3 AND DUP1 ISZERO PUSH2 0x1D18 JUMPI JUMPDEST PUSH1 0x20 DUP4 LT EQ PUSH2 0x1D02 JUMPI JUMP JUMPDEST PUSH4 0x4E487B71 PUSH1 0xE0 SHL PUSH1 0x0 MSTORE PUSH1 0x22 PUSH1 0x4 MSTORE PUSH1 0x24 PUSH1 0x0 REVERT JUMPDEST SWAP2 PUSH1 0x7F AND SWAP2 PUSH2 0x1CF7 JUMP JUMPDEST SWAP1 PUSH1 0x1F DUP1 NOT SWAP2 ADD AND DUP2 ADD SWAP1 DUP2 LT PUSH1 0x1 PUSH1 0x1 PUSH1 0x40 SHL SUB DUP3 GT OR PUSH2 0x5CF JUMPI PUSH1 0x40 MSTORE JUMP JUMPDEST SWAP1 PUSH1 0x40 MLOAD SWAP2 DUP3 PUSH1 0x0 DUP3 SLOAD PUSH2 0x1D56 DUP2 PUSH2 0x1CE8 JUMP JUMPDEST SWAP1 DUP2 DUP5 MSTORE PUSH1 0x20 SWAP5 PUSH1 0x1 SWAP2 PUSH1 0x1 DUP2 AND SWAP1 DUP2 PUSH1 0x0 EQ PUSH2 0x1DC6 JUMPI POP PUSH1 0x1 EQ PUSH2 0x1D87 JUMPI JUMPDEST POP POP POP PUSH2 0x1D85 SWAP3 POP SUB DUP4 PUSH2 0x1D22 JUMP JUMPDEST JUMP JUMPDEST PUSH1 0x0 SWAP1 DUP2 MSTORE DUP6 DUP2 KECCAK256 SWAP6 SWAP4 POP SWAP2 SWAP1 JUMPDEST DUP2 DUP4 LT PUSH2 0x1DAE JUMPI POP POP PUSH2 0x1D85 SWAP4 POP DUP3 ADD ADD CODESIZE DUP1 DUP1 PUSH2 0x1D76 JUMP JUMPDEST DUP6 SLOAD DUP9 DUP5 ADD DUP6 ADD MSTORE SWAP5 DUP6 ADD SWAP5 DUP8 SWAP5 POP SWAP2 DUP4 ADD SWAP2 PUSH2 0x1D95 JUMP JUMPDEST SWAP3 POP POP POP PUSH2 0x1D85 SWAP5 SWAP3 POP PUSH1 0xFF NOT AND DUP3 DUP5 ADD MSTORE ISZERO ISZERO PUSH1 0x5 SHL DUP3 ADD ADD CODESIZE DUP1 DUP1 PUSH2 0x1D76 JUMP JUMPDEST SWAP2 SWAP1 DUP3 MLOAD SWAP3 DUP4 DUP3 MSTORE PUSH1 0x0 JUMPDEST DUP5 DUP2 LT PUSH2 0x1E14 JUMPI POP POP DUP3 PUSH1 0x0 PUSH1 0x20 DUP1 SWAP5 SWAP6 DUP5 ADD ADD MSTORE PUSH1 0x1F DUP1 NOT SWAP2 ADD AND ADD ADD SWAP1 JUMP JUMPDEST PUSH1 0x20 DUP2 DUP4 ADD DUP2 ADD MLOAD DUP5 DUP4 ADD DUP3 ADD MSTORE ADD PUSH2 0x1DF3 JUMP JUMPDEST PUSH1 0x40 SWAP1 PUSH1 0x3 NOT ADD SLT PUSH2 0x9D2 JUMPI PUSH1 0x4 CALLDATALOAD SWAP1 PUSH1 0x24 CALLDATALOAD SWAP1 JUMP JUMPDEST DUP2 PUSH1 0x1F DUP3 ADD SLT ISZERO PUSH2 0x9D2 JUMPI DUP1 CALLDATALOAD SWAP1 PUSH1 0x1 PUSH1 0x1 PUSH1 0x40 SHL SUB DUP3 GT PUSH2 0x5CF JUMPI PUSH1 0x40 MLOAD SWAP3 PUSH2 0x1E72 PUSH1 0x1F DUP5 ADD PUSH1 0x1F NOT AND PUSH1 0x20 ADD DUP6 PUSH2 0x1D22 JUMP JUMPDEST DUP3 DUP5 MSTORE PUSH1 0x20 DUP4 DUP4 ADD ADD GT PUSH2 0x9D2 JUMPI DUP2 PUSH1 0x0 SWAP3 PUSH1 0x20 DUP1 SWAP4 ADD DUP4 DUP7 ADD CALLDATACOPY DUP4 ADD ADD MSTORE SWAP1 JUMP JUMPDEST PUSH1 0x1 PUSH1 0x1 PUSH1 0x40 SHL SUB DUP2 GT PUSH2 0x5CF JUMPI PUSH1 0x5 SHL PUSH1 0x20 ADD SWAP1 JUMP JUMPDEST DUP2 PUSH1 0x1F DUP3 ADD SLT ISZERO PUSH2 0x9D2 JUMPI DUP1 CALLDATALOAD SWAP2 PUSH1 0x20 SWAP2 PUSH2 0x1EC5 DUP5 PUSH2 0x1E94 JUMP JUMPDEST SWAP4 PUSH2 0x1ED3 PUSH1 0x40 MLOAD SWAP6 DUP7 PUSH2 0x1D22 JUMP JUMPDEST DUP1 DUP6 MSTORE DUP4 DUP1 DUP7 ADD SWAP2 PUSH1 0x5 SHL DUP4 ADD ADD SWAP3 DUP1 DUP5 GT PUSH2 0x9D2 JUMPI DUP5 DUP4 ADD SWAP2 JUMPDEST DUP5 DUP4 LT PUSH2 0x1EFE JUMPI POP POP POP POP POP POP SWAP1 JUMP JUMPDEST DUP3 CALLDATALOAD PUSH1 0x1 PUSH1 0x1 PUSH1 0x40 SHL SUB DUP2 GT PUSH2 0x9D2 JUMPI DUP7 SWAP2 PUSH2 0x1F1F DUP5 DUP5 DUP1 SWAP5 DUP10 ADD ADD PUSH2 0x1E3E JUMP JUMPDEST DUP2 MSTORE ADD SWAP3 ADD SWAP2 PUSH2 0x1EEE JUMP JUMPDEST SWAP1 PUSH1 0x40 MLOAD SWAP2 DUP3 PUSH1 0x0 DUP3 SLOAD PUSH2 0x1F3D DUP2 PUSH2 0x1CE8 JUMP JUMPDEST SWAP1 DUP2 DUP5 MSTORE PUSH1 0x20 SWAP5 PUSH1 0x1 SWAP2 PUSH1 0x1 DUP2 AND SWAP1 DUP2 PUSH1 0x0 EQ PUSH2 0x1DC6 JUMPI POP PUSH1 0x1 EQ PUSH2 0x1F6B JUMPI POP POP POP PUSH2 0x1D85 SWAP3 POP SUB DUP4 PUSH2 0x1D22 JUMP JUMPDEST PUSH1 0x0 SWAP1 DUP2 MSTORE DUP6 DUP2 KECCAK256 SWAP6 SWAP4 POP SWAP2 SWAP1 JUMPDEST DUP2 DUP4 LT PUSH2 0x1F92 JUMPI POP POP PUSH2 0x1D85 SWAP4 POP DUP3 ADD ADD CODESIZE DUP1 DUP1 PUSH2 0x1D76 JUMP JUMPDEST DUP6 SLOAD DUP9 DUP5 ADD DUP6 ADD MSTORE SWAP5 DUP6 ADD SWAP5 DUP8 SWAP5 POP SWAP2 DUP4 ADD SWAP2 PUSH2 0x1F79 JUMP JUMPDEST ISZERO PUSH2 0x1FB1 JUMPI JUMP JUMPDEST PUSH1 0x40 MLOAD PUSH3 0x461BCD PUSH1 0xE5 SHL DUP2 MSTORE PUSH1 0x20 PUSH1 0x4 DUP3 ADD MSTORE PUSH1 0x14 PUSH1 0x24 DUP3 ADD MSTORE PUSH20 0x11DA59C81A5CC81B9BDD0818DBDB5C1B195D1959 PUSH1 0x62 SHL PUSH1 0x44 DUP3 ADD MSTORE PUSH1 0x64 SWAP1 REVERT JUMPDEST DUP2 DUP2 LT PUSH2 0x1FF8 JUMPI POP POP JUMP JUMPDEST PUSH1 0x0 DUP2 SSTORE PUSH1 0x1 ADD PUSH2 0x1FED JUMP JUMPDEST SWAP1 PUSH1 0x1F DUP2 GT PUSH2 0x2011 JUMPI POP POP JUMP JUMPDEST PUSH2 0x1D85 SWAP2 PUSH1 0x0 MSTORE PUSH1 0x1F PUSH1 0x20 PUSH1 0x0 KECCAK256 SWAP2 ADD PUSH1 0x5 SHR DUP2 ADD SWAP1 PUSH2 0x1FED JUMP JUMPDEST SWAP2 SWAP1 PUSH1 0x1F DUP2 GT PUSH2 0x203B JUMPI POP POP POP JUMP JUMPDEST PUSH2 0x1D85 SWAP3 PUSH1 0x0 MSTORE PUSH1 0x20 PUSH1 0x0 KECCAK256 SWAP1 PUSH1 0x20 PUSH1 0x1F DUP5 ADD PUSH1 0x5 SHR DUP4 ADD SWAP4 LT PUSH2 0x2067 JUMPI JUMPDEST PUSH1 0x1F ADD PUSH1 0x5 SHR ADD SWAP1 PUSH2 0x1FED JUMP JUMPDEST SWAP1 SWAP2 POP DUP2 SWAP1 PUSH2 0x205A JUMP JUMPDEST SWAP2 SWAP1 DUP3 ADD DUP1 SWAP3 GT PUSH2 0x12BC JUMPI JUMP JUMPDEST ISZERO PUSH2 0x2085 JUMPI JUMP JUMPDEST PUSH1 0x40 MLOAD PUSH3 0x461BCD PUSH1 0xE5 SHL DUP2 MSTORE PUSH1 0x20 PUSH1 0x4 DUP3 ADD MSTORE PUSH1 0xF PUSH1 0x24 DUP3 ADD MSTORE PUSH15 0x23B4B39034B9903737BA1037B832B7 PUSH1 0x89 SHL PUSH1 0x44 DUP3 ADD MSTORE PUSH1 0x64 SWAP1 REVERT INVALID LOG2 PUSH5 0x6970667358 0x22 SLT KECCAK256 0xF6 PUSH10 0x4C5D006588D8405F2CE9 CODECOPY 0xED SAR DUP16 0xF9 SIGNEXTEND CODESIZE XOR BLOBHASH MLOAD 0xB4 0x2D 0xE8 0xD1 DUP1 0xE0 AND 0xF8 0x4B RETURN PUSH5 0x736F6C6343 STOP ADDMOD XOR STOP CALLER "},"methodIdentifiers":{"acceptBid(uint256,uint256,address,address)":"67755d90","completeGig(uint256)":"d1846924","confirmGig(uint256)":"ad6b3232","createFreelancerAccount(string,address,string,string[],string[],bool,uint32,string,string,uint32)":"e4928f32","createGig(address,string,string,string,uint256,uint256)":"62916b26","createGigOwnerAccount(string,address,string,bool,uint32)":"810ee0f9","extendDeadline(uint256,uint256)":"2d1fdef6","freelancers(address)":"21bd6693","gigOwners(address)":"7c1c41a7","gigs(uint256)":"5e3fbdc8","noOfCreatedGigs()":"956876b3","noOfFreelancers()":"df4e4130","noOfGigOwners()":"dfefb28c","placeBid(uint256,uint256)":"57c90de5","reportGig(uint256)":"407edaab","updateFreelancer(address)":"92bf3d69","verifyFreelancer(address,uint32)":"cf539fc2"}}}}}