{"contracts/contract_upgrade_wip.sol":{"DeclanWork":{"abi":[{"inputs":[],"stateMutability":"nonpayable","type":"constructor"},{"anonymous":false,"inputs":[{"indexed":false,"internalType":"uint64","name":"gigId","type":"uint64"},{"indexed":false,"internalType":"address","name":"bidder","type":"address"}],"name":"BidPlaced","type":"event"},{"anonymous":false,"inputs":[{"indexed":false,"internalType":"uint64","name":"gigId","type":"uint64"}],"name":"GigCreated","type":"event"},{"inputs":[{"internalType":"uint64","name":"gigId","type":"uint64"}],"name":"completeGig","outputs":[],"stateMutability":"nonpayable","type":"function"},{"inputs":[{"internalType":"uint64","name":"gigId","type":"uint64"}],"name":"confirmGig","outputs":[],"stateMutability":"nonpayable","type":"function"},{"inputs":[{"internalType":"string","name":"name","type":"string"},{"internalType":"string","name":"portfolioURL","type":"string"},{"internalType":"string[]","name":"skills","type":"string[]"},{"internalType":"string[]","name":"categories","type":"string[]"},{"internalType":"string[]","name":"stars","type":"string[]"}],"name":"createFreelancerAccount","outputs":[],"stateMutability":"nonpayable","type":"function"},{"inputs":[{"internalType":"address","name":"buyer","type":"address"},{"internalType":"address","name":"seller","type":"address"},{"internalType":"string","name":"title","type":"string"},{"internalType":"string","name":"description","type":"string"},{"internalType":"uint256","name":"budget","type":"uint256"},{"internalType":"int16","name":"deadline","type":"int16"},{"internalType":"string","name":"gigTimeline","type":"string"},{"internalType":"bool","name":"featureGig","type":"bool"},{"components":[{"internalType":"string","name":"name","type":"string"},{"internalType":"address","name":"freelancerAddress","type":"address"},{"internalType":"string","name":"portfolioURL","type":"string"},{"internalType":"string[]","name":"skills","type":"string[]"},{"internalType":"string[]","name":"categories","type":"string[]"},{"internalType":"bool","name":"verified","type":"bool"},{"internalType":"string[]","name":"stars","type":"string[]"}],"internalType":"struct DeclanWork.Freelancer","name":"freelancer","type":"tuple"},{"internalType":"string","name":"status","type":"string"},{"internalType":"bool","name":"completed","type":"bool"},{"internalType":"uint256","name":"escrowAmount","type":"uint256"}],"name":"createGig","outputs":[{"internalType":"uint64","name":"","type":"uint64"}],"stateMutability":"nonpayable","type":"function"},{"inputs":[{"internalType":"string","name":"gigOwner","type":"string"},{"internalType":"address","name":"gigOwnerAddress","type":"address"},{"internalType":"bool","name":"isVerified","type":"bool"},{"internalType":"string[]","name":"stars","type":"string[]"}],"name":"createGigOwnerAccount","outputs":[],"stateMutability":"nonpayable","type":"function"},{"inputs":[],"name":"escrow","outputs":[{"internalType":"address","name":"buyer","type":"address"},{"internalType":"address","name":"seller","type":"address"},{"internalType":"address","name":"arbiter","type":"address"},{"internalType":"enum DeclanWork.State","name":"state","type":"uint8"}],"stateMutability":"view","type":"function"},{"inputs":[{"internalType":"address","name":"","type":"address"}],"name":"freelancers","outputs":[{"internalType":"string","name":"name","type":"string"},{"internalType":"address","name":"freelancerAddress","type":"address"},{"internalType":"string","name":"portfolioURL","type":"string"},{"internalType":"bool","name":"verified","type":"bool"}],"stateMutability":"view","type":"function"},{"inputs":[{"internalType":"address","name":"","type":"address"}],"name":"gigOwners","outputs":[{"internalType":"string","name":"gigOwner","type":"string"},{"internalType":"address","name":"gigOwnerAddress","type":"address"},{"internalType":"bool","name":"isVerified","type":"bool"}],"stateMutability":"view","type":"function"},{"inputs":[{"internalType":"uint64","name":"","type":"uint64"}],"name":"gigs","outputs":[{"internalType":"uint64","name":"id","type":"uint64"},{"internalType":"address","name":"buyer","type":"address"},{"internalType":"address","name":"seller","type":"address"},{"internalType":"string","name":"title","type":"string"},{"internalType":"string","name":"description","type":"string"},{"internalType":"string","name":"gigTimeline","type":"string"},{"internalType":"int16","name":"deadline","type":"int16"},{"internalType":"uint256","name":"budget","type":"uint256"},{"internalType":"bool","name":"featureGig","type":"bool"},{"components":[{"internalType":"string","name":"name","type":"string"},{"internalType":"address","name":"freelancerAddress","type":"address"},{"internalType":"string","name":"portfolioURL","type":"string"},{"internalType":"string[]","name":"skills","type":"string[]"},{"internalType":"string[]","name":"categories","type":"string[]"},{"internalType":"bool","name":"verified","type":"bool"},{"internalType":"string[]","name":"stars","type":"string[]"}],"internalType":"struct DeclanWork.Freelancer","name":"freelancer","type":"tuple"},{"internalType":"string","name":"status","type":"string"},{"internalType":"bool","name":"completed","type":"bool"},{"internalType":"uint256","name":"escrow","type":"uint256"}],"stateMutability":"view","type":"function"},{"inputs":[],"name":"noOfCreatedGigs","outputs":[{"internalType":"uint64","name":"","type":"uint64"}],"stateMutability":"view","type":"function"},{"inputs":[],"name":"noOfFreelancers","outputs":[{"internalType":"uint64","name":"","type":"uint64"}],"stateMutability":"view","type":"function"},{"inputs":[],"name":"noOfGigOwners","outputs":[{"internalType":"uint64","name":"","type":"uint64"}],"stateMutability":"view","type":"function"},{"inputs":[{"internalType":"uint64","name":"gigId","type":"uint64"},{"internalType":"uint256","name":"bidAmount","type":"uint256"}],"name":"placeBid","outputs":[],"stateMutability":"nonpayable","type":"function"},{"inputs":[{"internalType":"address","name":"freelancerAddress","type":"address"}],"name":"verifyFreelancer","outputs":[],"stateMutability":"nonpayable","type":"function"}],"evm":{"bytecode":{"linkReferences":{},"object":"6080806040523461002f57600680546001600160a81b0319163360ff60a01b19161790556129d490816100358239f35b600080fdfe6080604052600436101561001257600080fd5b60003560e01c806321bd66931461242b5780632309323c14611c895780632a3ce8d014611bfd5780632bd7003514611b7c5780635b28618f14610dfb5780637c1c41a714610d8c578063845b0d7f14610b4057806387af564e14610a81578063956876b314610a57578063d250354d14610706578063df4e4130146106df578063dfefb28c146106b5578063e2fdcc171461064d5763fd2e5a23146100b657600080fd5b34610648576040366003190112610648576100cf612762565b6001600160401b038116600052600260205260406000209061013c60405160208101906101118161010384601089016128dc565b03601f198101835282612570565b51902060405160208101906337b832b760e11b82526004815261013381612555565b51902014612960565b6006820154602435116105e75733600052600060205260406000209160018060a01b03600184015416156105ab5761019e60026040519461017c8661253a565b61018581612591565b865261019360038201612778565b602087015201612591565b6040840152602435606084015233600052600f8101602052604060002083518051906001600160401b0382116103d3576101e2826101dc85546124e5565b85612869565b602090601f831160011461053f57610213929160009183610336575b50508160011b916000199060031b1c19161790565b81555b6020840151805190600160401b82116103d35760018301548260018501558083106104c7575b5060200190600183016000526020600020916000905b8282106103e95750505050600281019360408101519485516001600160401b0381116103d35761028c8161028684546124e5565b84612869565b6020601f821160011461034157926003926102e88360609460409a9998977fb0e59b6909e1a66a0cdb5b8c4c87129f42751664da66e6d778693230501f085c9c6000926103365750508160011b916000199060031b1c19161790565b90555b015191015561030961030060108301546124e5565b60108301612841565b6010601469189a5917dc1b1858d95960b21b019101556001600160401b03825191168152336020820152a1005b0151905038806101fe565b601f198216978360005260206000209860005b8181106103bb5750837fb0e59b6909e1a66a0cdb5b8c4c87129f42751664da66e6d778693230501f085c9a60409a9998979460039794606097600195106103a3575b505050811b0190556102eb565b015160001983891b60f8161c19169055388080610396565b838301518b556001909a019960209384019301610354565b634e487b7160e01b600052604160045260246000fd5b80518051906001600160401b0382116103d3576104108261040a88546124e5565b88612869565b602090601f83116001146104575792610448836001959460209487966000926103365750508160011b916000199060031b1c19161790565b87555b01940191019092610252565b908660005260206000209160005b601f19851681106104af575083602093600196938796938794601f19811610610496575b505050811b01875561044b565b015160001960f88460031b161c19169055388080610489565b91926020600181928685015181550194019201610465565b600184016000526020600020908382015b81830181106104e857505061023c565b806104f5600192546124e5565b80610502575b50016104d8565b601f811183146105185750600081555b386104fb565b600090828252610536601f60208420920160051c820185830161282a565b81835555610512565b9190836000526020600020906000935b601f1984168510610590576001945083601f19811610610577575b505050811b018155610216565b015160001960f88460031b161c1916905538808061056a565b8181015183556020948501946001909301929091019061054f565b60405162461bcd60e51b8152602060048201526014602482015273119c99595b185b98d95c881b9bdd08199bdd5b9960621b6044820152606490fd5b60405162461bcd60e51b815260206004820152603360248201527f42696420616d6f756e74206d757374206265206c657373207468616e206f7220604482015272195c5d585b081d1bc819da59c8189d5919d95d606a1b6064820152608490fd5b600080fd5b346106485760003660031901126106485760018060a01b03806004541681600554169160065460ff8160a01c16936040519384526020840152166040820152600382101561069f576080916060820152f35b634e487b7160e01b600052602160045260246000fd5b346106485760003660031901126106485760206001600160401b0360035460401c16604051908152f35b346106485760003660031901126106485760206001600160401b0360035416604051908152f35b34610648576080366003190112610648576001600160401b0360043581811161064857610737903690600401612676565b61073f6124cf565b906044359081151580920361064857606435848111610648576107669036906004016126e3565b604051916107738361253a565b825260209182810160018060a01b038096168152604082019485526060820192835233600052600194858552604060002092519687518981116103d3576107c4816107be87546124e5565b87612869565b86601f99601f83116001146109ed5791806107fc92600298979695946000926109e25750508160011b916000199060031b1c19161790565b84555b87840192511682549160ff60a01b9051151560a01b16916affffffffffffffffffffff60a81b161717905501905191825192600160401b84116103d35781908354858555808610610968575b500191600052806000206000925b84841061089a578767ffffffffffffffff60401b61087e600354928360401c166128ae565b60401b169067ffffffffffffffff60401b191617600355600080f35b80519081518981116103d3578791816108b8879361040a88546124e5565b82948b821160011461090257908085966108e8936000926108f75750508160011b916000199060031b1c19161790565b85555b01920193019290610859565b015190508e806101fe565b94601f1982169087600052846000209160005b8181106109515750908697848895949310610938575b505050811b0185556108eb565b015160001960f88460031b161c191690558d808061092b565b8289015184558d978b979401939283019201610915565b8460005286868460002092830192015b82811061098657505061084b565b909192935061099581546124e5565b806109a7575b50019086849392610978565b8981116001146109bd5750600081555b8a61099b565b6000908282526109d98b888420920160051c820185830161282a565b818355556109b7565b015190508d806101fe565b95949392918991601f19821690876000528a6000209160005b8c828210610a41575050988360029a10610a28575b505050811b0184556107ff565b015160001960f88460031b161c191690558c8080610a1b565b838c015185558e96909401939283019201610a06565b346106485760003660031901126106485760206001600160401b0360035460801c16604051908152f35b34610648576020366003190112610648576001600160401b03610aa2612762565b16600052600260205260406000206040516020810190610ac98161010384601087016128dc565b51902060405160208101906818dbdb5c1b195d195960ba1b825260098152610af081612555565b51902003610b045760126000910155600080f35b60405162461bcd60e51b815260206004820152601460248201527311da59c81a5cc81b9bdd0818dbdb5c1b195d195960621b6044820152606490fd5b3461064857602036600319011261064857610b59612762565b6001600160401b031660005260026020526040600020805490600160a01b600190036001820154169060028101610b8f90612591565b610b9b60038301612591565b610ba760048401612591565b600584015460010b906006850154600786015460ff169060405192610bcb8461251f565b610bd760088901612591565b845260098801546001600160a01b03166020850152610bf8600a8901612591565b6040850152610c09600b8901612778565b6060850152610c1a600c8901612778565b6080850152600d88015460ff16151560a0850152610c3a600e8901612778565b60c0850152610c4b60108901612591565b95601189015460ff169860120154976040519b8c9b8c6101a0926001600160401b0381168252600160a01b600190039060401c16906020015260408d01528060608d01528b01610c9a91612636565b8a810360808c0152610cab91612636565b89810360a08b0152610cbc91612636565b9360c089015260e08801521515610100870152858203610120870152805160e0835260e08301610ceb91612636565b600160a01b6001900360208301511660208401526040820151908381036040850152610d1691612636565b6060820151908381036060850152610d2d916127cd565b6080820151908381036080850152610d44916127cd565b9060a0810151151560a084015260c00151918082039060c00152610d67916127cd565b848103610140860152610d7991612636565b9115156101608401526101808301520390f35b3461064857602036600319011261064857610de46001600160a01b0380610db16124b9565b16600052600160205260406000209060ff6001610dcd84612591565b930154604051948594606086526060860190612636565b928116602085015260a01c16151560408301520390f35b34610648576003196101803682011261064857610e166124b9565b610e1e6124cf565b906044356001600160401b03811161064857610e3e903690600401612676565b926064356001600160401b03811161064857610e5e903690600401612676565b9060a43560010b60a435036106485760c4356001600160401b03811161064857610e8c903690600401612676565b9060e435151560e43503610648576001600160401b0361010435116106485760e09061010435360301126106485760405191610ec78361251f565b61010435600401356001600160401b03811161064857610ef09060043691610104350101612676565b835261010435602401356001600160a01b0381169003610648576101043560248101356020850152604401356001600160401b03811161064857610f3d9060043691610104350101612676565b60408401526001600160401b0360646101043501351161064857610f6d36610104356064810135016004016126e3565b606084015260846101043501356001600160401b03811161064857610f9b90600436916101043501016126e3565b60808401526101043560a4013580151590036106485760a461010435013560a08401526001600160401b0360c46101043501351161064857610fe9366101043560c4810135016004016126e3565b60c0840152610124356001600160401b0381116106485761100e903690600401612676565b956101443515156101443503610648576003549567ffffffffffffffff60801b611044608089901c6001600160401b03166128ae565b60801b166001600160401b0360801b198816176003556001600160401b038760801c166000526002602052604060002095865490600160401b600160e01b039060401b16906001600160401b038960801c169063ffffffff60e01b1617178655600186019060018060a01b03166bffffffffffffffffffffffff60a01b8254161790558051906001600160401b0382116103d3576110f2826110e960028901546124e5565b60028901612869565b602090601f8311600114611b0a57611122929160009183611aff5750508160011b916000199060031b1c19161790565b60028501555b8051906001600160401b0382116103d3576111538261114a60038801546124e5565b60038801612869565b602090601f8311600114611a8d57611183929160009183611a825750508160011b916000199060031b1c19161790565b60038401555b8051906001600160401b0382116103d3576111b4826111ab60048701546124e5565b60048701612869565b602090601f8311600114611a10576111e49291600091836114cb5750508160011b916000199060031b1c19161790565b60048301555b6005820161ffff1981541660a43561ffff16179055608435600683015561122260e435600784019060ff801983541691151516179055565b80518051906001600160401b0382116103d35761124f8261124660088701546124e5565b60088701612869565b602090601f831160011461199e5761127f9291600091836114cb5750508160011b916000199060031b1c19161790565b60088301555b6009820160018060a01b036020830151166bffffffffffffffffffffffff60a01b82541617905560408101518051906001600160401b0382116103d3576112dc826112d3600a8701546124e5565b600a8701612869565b602090601f831160011461192c5761130c9291600091836114cb5750508160011b916000199060031b1c19161790565b600a8301555b6060810151805190600160401b82116103d357600b84015482600b8601558083106118b4575b5060200190600b84016000526020600020916000905b8282106117dc57505050506080810151805190600160401b82116103d357600c84015482600c860155808310611764575b5060200190600c84016000526020600020916000905b82821061168c5750505050806113c260a060c09301511515600d85019060ff801983541691151516179055565b0151805190600160401b82116103d357600e83015482600e850155808310611614575b5060200190600e83016000526020600020916000905b82821061153c57505050506010810183516001600160401b0381116103d35760209461142b826101dc85546124e5565b8590601f83116001146114d65761145a9291600091836114cb5750508160011b916000199060031b1c19161790565b90555b61147961014435601183019060ff801983541691151516179055565b6012610164359101557f1c5d8807e0cac22ea4dccaf4f55e6a3d48e129d84fca614066c90f3961f93c15826040516001600160401b038460801c168152a16001600160401b036040519160801c168152f35b0151905087806101fe565b90601f1983169184600052876000209260005b818110611525575090846001959493921061150c575b505050811b01905561145d565b015160001960f88460031b161c191690558680806114ff565b9293896001819287860151815501950193016114e9565b80518051906001600160401b0382116103d35761155d8261040a88546124e5565b602090601f83116001146115a45792611595836001959460209487966000926109e25750508160011b916000199060031b1c19161790565b87555b019401910190926113fb565b908660005260206000209160005b601f19851681106115fc575083602093600196938796938794601f198116106115e3575b505050811b018755611598565b015160001960f88460031b161c191690558c80806115d6565b919260206001819286850151815501940192016115b2565b600e84016000526020600020908382015b81830181106116355750506113e5565b80611642600192546124e5565b8061164f575b5001611625565b601f811183146116655750600081555b89611648565b600090828252611683601f60208420920160051c820185830161282a565b8183555561165f565b80518051906001600160401b0382116103d3576116ad8261040a88546124e5565b602090601f83116001146116f457926116e5836001959460209487966000926108f75750508160011b916000199060031b1c19161790565b87555b01940191019092611395565b908660005260206000209160005b601f198516811061174c575083602093600196938796938794601f19811610611733575b505050811b0187556116e8565b015160001960f88460031b161c191690558d8080611726565b91926020600181928685015181550194019201611702565b600c85016000526020600020908382015b818301811061178557505061137f565b80611792600192546124e5565b8061179f575b5001611775565b601f811183146117b55750600081555b8a611798565b6000908282526117d3601f60208420920160051c820185830161282a565b818355556117af565b80518051906001600160401b0382116103d3576117fd8261040a88546124e5565b602090601f83116001146118445792611835836001959460209487966000926108f75750508160011b916000199060031b1c19161790565b87555b0194019101909261134e565b908660005260206000209160005b601f198516811061189c575083602093600196938796938794601f19811610611883575b505050811b018755611838565b015160001960f88460031b161c191690558d8080611876565b91926020600181928685015181550194019201611852565b600b85016000526020600020908382015b81830181106118d5575050611338565b806118e2600192546124e5565b806118ef575b50016118c5565b601f811183146119055750600081555b8a6118e8565b600090828252611923601f60208420920160051c820185830161282a565b818355556118ff565b9190600a85016000526020600020906000935b601f1984168510611983576001945083601f1981161061196a575b505050811b01600a830155611312565b015160001960f88460031b161c1916905586808061195a565b8181015183556020948501946001909301929091019061193f565b9190600885016000526020600020906000935b601f19841685106119f5576001945083601f198116106119dc575b505050811b016008830155611285565b015160001960f88460031b161c191690558680806119cc565b818101518355602094850194600190930192909101906119b1565b9190600485016000526020600020906000935b601f1984168510611a67576001945083601f19811610611a4e575b505050811b0160048301556111ea565b015160001960f88460031b161c19169055868080611a3e565b81810151835560209485019460019093019290910190611a23565b0151905088806101fe565b9190600386016000526020600020906000935b601f1984168510611ae4576001945083601f19811610611acb575b505050811b016003840155611189565b015160001960f88460031b161c19169055878080611abb565b81810151835560209485019460019093019290910190611aa0565b0151905089806101fe565b9190600287016000526020600020906000935b601f1984168510611b61576001945083601f19811610611b48575b505050811b016002850155611128565b015160001960f88460031b161c19169055888080611b38565b81810151835560209485019460019093019290910190611b1d565b34610648576020366003190112610648576001600160401b03611b9d612762565b1660005260026020526011604060002060108101611bca60405160208101906101118161010384876128dc565b611bdd611bd782546124e5565b82612841565b60126818dbdb5c1b195d195960ba1b01905501805460ff19166001179055005b34610648576020366003190112610648576001600160a01b03611c1e6124b9565b1660005260006020526005604060002001805460ff8116611c445760ff19166001179055005b60405162461bcd60e51b815260206004820152601e60248201527f467265656c616e63657220697320616c726561647920766572696669656400006044820152606490fd5b346106485760a0366003190112610648576004356001600160401b03811161064857611cb9903690600401612676565b6024356001600160401b03811161064857611cd8903690600401612676565b6044356001600160401b03811161064857611cf79036906004016126e3565b6064356001600160401b03811161064857611d169036906004016126e3565b916084356001600160401b03811161064857611d369036906004016126e3565b60405194611d438661251f565b8552602085019333855260408601928352606086019384526080860152600060a086015260c085015233600052600060205260406000209284518051906001600160401b0382116103d357611d9c8261040a88546124e5565b602090601f83116001146123c357611dcc929160009183611a825750508160011b916000199060031b1c19161790565b84555b516001840180546001600160a01b0319166001600160a01b039290921691909117905551805160028401916001600160401b0382116103d357611e16826101dc85546124e5565b602090601f831160011461235b57611e469291600091836114cb5750508160011b916000199060031b1c19161790565b90555b51805190600160401b82116103d35760038301548260038501558083106122e3575b5060200190600383016000526020600020916000905b82821061220b5785856080820151805190600160401b82116103d3576004830154826004850155808310612193575b5060200190600483016000526020600020916000905b8282106120b057858560c06006600592611ef560a08601511515600583019060ff801983541691151516179055565b01920151805191600160401b83116103d35783549083855581841061203d575b5050602001916000526020600020916000905b828210611f5a576003546001600160401b03611f458183166128ae565b67ffffffffffffffff19909216911617600355005b80518051906001600160401b0382116103d357611f7b8261040a88546124e5565b602090601f8311600114611fcd5792611fb383600195946020948796600092611fc25750508160011b916000199060031b1c19161790565b87555b01940191019092611f28565b015190508a806101fe565b908660005260206000209160005b601f1985168110612025575083602093600196938796938794601f1981161061200c575b505050811b018755611fb6565b015160001960f88460031b161c19169055898080611fff565b91926020600181928685015181550194019201611fdb565b8460005283602060002092830192015b82811061205a5750611f15565b80612067600192546124e5565b80612074575b500161204d565b601f8111831461208a5750600081555b8761206d565b6000908282526120a7601f602084209201861c820185830161282a565b81835555612084565b80518051906001600160401b0382116103d3576120d18261040a88546124e5565b602090601f83116001146121235792612109836001959460209487966000926121185750508160011b916000199060031b1c19161790565b87555b01940191019092611ec6565b015190508c806101fe565b908660005260206000209160005b601f198516811061217b575083602093600196938796938794601f19811610612162575b505050811b01875561210c565b015160001960f88460031b161c191690558b8080612155565b91926020600181928685015181550194019201612131565b600484016000526020600020908382015b81830181106121b4575050611eb0565b806121c1600192546124e5565b806121ce575b50016121a4565b601f811183146121e45750600081555b886121c7565b600090828252612202601f60208420920160051c820185830161282a565b818355556121de565b80518051906001600160401b0382116103d35761222c8261040a88546124e5565b602090601f83116001146122735792612264836001959460209487966000926121185750508160011b916000199060031b1c19161790565b87555b01940191019092611e81565b908660005260206000209160005b601f19851681106122cb575083602093600196938796938794601f198116106122b2575b505050811b018755612267565b015160001960f88460031b161c191690558b80806122a5565b91926020600181928685015181550194019201612281565b600384016000526020600020908382015b8183018110612304575050611e6b565b80612311600192546124e5565b8061231e575b50016122f4565b601f811183146123345750600081555b88612317565b600090828252612352601f60208420920160051c820185830161282a565b8183555561232e565b90601f198316918460005260206000209260005b8181106123ab5750908460019594939210612392575b505050811b019055611e49565b015160001960f88460031b161c19169055868080612385565b9293602060018192878601518155019501930161236f565b90601f198316918760005260206000209260005b81811061241357509084600195949392106123fa575b505050811b018455611dcf565b015160001960f88460031b161c191690558780806123ed565b929360206001819287860151815501950193016123d7565b346106485760203660031901126106485761249a6001600160a01b03806124506124b9565b16600052600060205260406000206124ad61246a82612591565b9260018301541660ff600561248160028601612591565b9401541692604051958695608087526080870190612636565b9160208601528482036040860152612636565b90151560608301520390f35b600435906001600160a01b038216820361064857565b602435906001600160a01b038216820361064857565b90600182811c92168015612515575b60208310146124ff57565b634e487b7160e01b600052602260045260246000fd5b91607f16916124f4565b60e081019081106001600160401b038211176103d357604052565b608081019081106001600160401b038211176103d357604052565b604081019081106001600160401b038211176103d357604052565b90601f801991011681019081106001600160401b038211176103d357604052565b906040519182600082546125a4816124e5565b9081845260209460019160018116908160001461261457506001146125d5575b5050506125d392500383612570565b565b600090815285812095935091905b8183106125fc5750506125d393508201013880806125c4565b855488840185015294850194879450918301916125e3565b925050506125d394925060ff191682840152151560051b8201013880806125c4565b919082519283825260005b848110612662575050826000602080949584010152601f8019910116010190565b602081830181015184830182015201612641565b81601f82011215610648578035906001600160401b0382116103d357604051926126aa601f8401601f191660200185612570565b8284526020838301011161064857816000926020809301838601378301015290565b6001600160401b0381116103d35760051b60200190565b81601f82011215610648578035916020916126fd846126cc565b9361270b6040519586612570565b808552838086019160051b8301019280841161064857848301915b8483106127365750505050505090565b82356001600160401b03811161064857869161275784848094890101612676565b815201920191612726565b600435906001600160401b038216820361064857565b908154612784816126cc565b926127926040519485612570565b818452600090815260208082208186015b8484106127b1575050505050565b60018381926127bf85612591565b8152019201930192906127a3565b90808251908181526020809101926020808460051b8301019501936000915b8483106127fc5750505050505090565b909192939495848061281a600193601f198682030187528a51612636565b98019301930191949392906127ec565b818110612835575050565b6000815560010161282a565b90601f811161284e575050565b6125d391600052601f6020600020910160051c81019061282a565b9190601f811161287857505050565b6125d3926000526020600020906020601f840160051c830193106128a4575b601f0160051c019061282a565b9091508190612897565b6001600160401b038091169081146128c65760010190565b634e487b7160e01b600052601160045260246000fd5b6000929181546128eb816124e5565b926001918083169081156129455750600114612908575b50505050565b9091929394506000526020906020600020906000915b8583106129345750505050019038808080612902565b80548584015291830191810161291e565b60ff1916845250505081151590910201915038808080612902565b1561296757565b60405162461bcd60e51b815260206004820152600f60248201526e23b4b39034b9903737ba1037b832b760891b6044820152606490fdfea264697066735822122072bf025f29c8cda67031b787fc9c7d382c12f9e1d7ea63c698d58b8f44a15b7464736f6c63430008180033","opcodes":"PUSH1 0x80 DUP1 PUSH1 0x40 MSTORE CALLVALUE PUSH2 0x2F JUMPI PUSH1 0x6 DUP1 SLOAD PUSH1 0x1 PUSH1 0x1 PUSH1 0xA8 SHL SUB NOT AND CALLER PUSH1 0xFF PUSH1 0xA0 SHL NOT AND OR SWAP1 SSTORE PUSH2 0x29D4 SWAP1 DUP2 PUSH2 0x35 DUP3 CODECOPY RETURN JUMPDEST PUSH1 0x0 DUP1 REVERT INVALID PUSH1 0x80 PUSH1 0x40 MSTORE PUSH1 0x4 CALLDATASIZE LT ISZERO PUSH2 0x12 JUMPI PUSH1 0x0 DUP1 REVERT JUMPDEST PUSH1 0x0 CALLDATALOAD PUSH1 0xE0 SHR DUP1 PUSH4 0x21BD6693 EQ PUSH2 0x242B JUMPI DUP1 PUSH4 0x2309323C EQ PUSH2 0x1C89 JUMPI DUP1 PUSH4 0x2A3CE8D0 EQ PUSH2 0x1BFD JUMPI DUP1 PUSH4 0x2BD70035 EQ PUSH2 0x1B7C JUMPI DUP1 PUSH4 0x5B28618F EQ PUSH2 0xDFB JUMPI DUP1 PUSH4 0x7C1C41A7 EQ PUSH2 0xD8C JUMPI DUP1 PUSH4 0x845B0D7F EQ PUSH2 0xB40 JUMPI DUP1 PUSH4 0x87AF564E EQ PUSH2 0xA81 JUMPI DUP1 PUSH4 0x956876B3 EQ PUSH2 0xA57 JUMPI DUP1 PUSH4 0xD250354D EQ PUSH2 0x706 JUMPI DUP1 PUSH4 0xDF4E4130 EQ PUSH2 0x6DF JUMPI DUP1 PUSH4 0xDFEFB28C EQ PUSH2 0x6B5 JUMPI DUP1 PUSH4 0xE2FDCC17 EQ PUSH2 0x64D JUMPI PUSH4 0xFD2E5A23 EQ PUSH2 0xB6 JUMPI PUSH1 0x0 DUP1 REVERT JUMPDEST CALLVALUE PUSH2 0x648 JUMPI PUSH1 0x40 CALLDATASIZE PUSH1 0x3 NOT ADD SLT PUSH2 0x648 JUMPI PUSH2 0xCF PUSH2 0x2762 JUMP JUMPDEST PUSH1 0x1 PUSH1 0x1 PUSH1 0x40 SHL SUB DUP2 AND PUSH1 0x0 MSTORE PUSH1 0x2 PUSH1 0x20 MSTORE PUSH1 0x40 PUSH1 0x0 KECCAK256 SWAP1 PUSH2 0x13C PUSH1 0x40 MLOAD PUSH1 0x20 DUP2 ADD SWAP1 PUSH2 0x111 DUP2 PUSH2 0x103 DUP5 PUSH1 0x10 DUP10 ADD PUSH2 0x28DC JUMP JUMPDEST SUB PUSH1 0x1F NOT DUP2 ADD DUP4 MSTORE DUP3 PUSH2 0x2570 JUMP JUMPDEST MLOAD SWAP1 KECCAK256 PUSH1 0x40 MLOAD PUSH1 0x20 DUP2 ADD SWAP1 PUSH4 0x37B832B7 PUSH1 0xE1 SHL DUP3 MSTORE PUSH1 0x4 DUP2 MSTORE PUSH2 0x133 DUP2 PUSH2 0x2555 JUMP JUMPDEST MLOAD SWAP1 KECCAK256 EQ PUSH2 0x2960 JUMP JUMPDEST PUSH1 0x6 DUP3 ADD SLOAD PUSH1 0x24 CALLDATALOAD GT PUSH2 0x5E7 JUMPI CALLER PUSH1 0x0 MSTORE PUSH1 0x0 PUSH1 0x20 MSTORE PUSH1 0x40 PUSH1 0x0 KECCAK256 SWAP2 PUSH1 0x1 DUP1 PUSH1 0xA0 SHL SUB PUSH1 0x1 DUP5 ADD SLOAD AND ISZERO PUSH2 0x5AB JUMPI PUSH2 0x19E PUSH1 0x2 PUSH1 0x40 MLOAD SWAP5 PUSH2 0x17C DUP7 PUSH2 0x253A JUMP JUMPDEST PUSH2 0x185 DUP2 PUSH2 0x2591 JUMP JUMPDEST DUP7 MSTORE PUSH2 0x193 PUSH1 0x3 DUP3 ADD PUSH2 0x2778 JUMP JUMPDEST PUSH1 0x20 DUP8 ADD MSTORE ADD PUSH2 0x2591 JUMP JUMPDEST PUSH1 0x40 DUP5 ADD MSTORE PUSH1 0x24 CALLDATALOAD PUSH1 0x60 DUP5 ADD MSTORE CALLER PUSH1 0x0 MSTORE PUSH1 0xF DUP2 ADD PUSH1 0x20 MSTORE PUSH1 0x40 PUSH1 0x0 KECCAK256 DUP4 MLOAD DUP1 MLOAD SWAP1 PUSH1 0x1 PUSH1 0x1 PUSH1 0x40 SHL SUB DUP3 GT PUSH2 0x3D3 JUMPI PUSH2 0x1E2 DUP3 PUSH2 0x1DC DUP6 SLOAD PUSH2 0x24E5 JUMP JUMPDEST DUP6 PUSH2 0x2869 JUMP JUMPDEST PUSH1 0x20 SWAP1 PUSH1 0x1F DUP4 GT PUSH1 0x1 EQ PUSH2 0x53F JUMPI PUSH2 0x213 SWAP3 SWAP2 PUSH1 0x0 SWAP2 DUP4 PUSH2 0x336 JUMPI JUMPDEST POP POP DUP2 PUSH1 0x1 SHL SWAP2 PUSH1 0x0 NOT SWAP1 PUSH1 0x3 SHL SHR NOT AND OR SWAP1 JUMP JUMPDEST DUP2 SSTORE JUMPDEST PUSH1 0x20 DUP5 ADD MLOAD DUP1 MLOAD SWAP1 PUSH1 0x1 PUSH1 0x40 SHL DUP3 GT PUSH2 0x3D3 JUMPI PUSH1 0x1 DUP4 ADD SLOAD DUP3 PUSH1 0x1 DUP6 ADD SSTORE DUP1 DUP4 LT PUSH2 0x4C7 JUMPI JUMPDEST POP PUSH1 0x20 ADD SWAP1 PUSH1 0x1 DUP4 ADD PUSH1 0x0 MSTORE PUSH1 0x20 PUSH1 0x0 KECCAK256 SWAP2 PUSH1 0x0 SWAP1 JUMPDEST DUP3 DUP3 LT PUSH2 0x3E9 JUMPI POP POP POP POP PUSH1 0x2 DUP2 ADD SWAP4 PUSH1 0x40 DUP2 ADD MLOAD SWAP5 DUP6 MLOAD PUSH1 0x1 PUSH1 0x1 PUSH1 0x40 SHL SUB DUP2 GT PUSH2 0x3D3 JUMPI PUSH2 0x28C DUP2 PUSH2 0x286 DUP5 SLOAD PUSH2 0x24E5 JUMP JUMPDEST DUP5 PUSH2 0x2869 JUMP JUMPDEST PUSH1 0x20 PUSH1 0x1F DUP3 GT PUSH1 0x1 EQ PUSH2 0x341 JUMPI SWAP3 PUSH1 0x3 SWAP3 PUSH2 0x2E8 DUP4 PUSH1 0x60 SWAP5 PUSH1 0x40 SWAP11 SWAP10 SWAP9 SWAP8 PUSH32 0xB0E59B6909E1A66A0CDB5B8C4C87129F42751664DA66E6D778693230501F085C SWAP13 PUSH1 0x0 SWAP3 PUSH2 0x336 JUMPI POP POP DUP2 PUSH1 0x1 SHL SWAP2 PUSH1 0x0 NOT SWAP1 PUSH1 0x3 SHL SHR NOT AND OR SWAP1 JUMP JUMPDEST SWAP1 SSTORE JUMPDEST ADD MLOAD SWAP2 ADD SSTORE PUSH2 0x309 PUSH2 0x300 PUSH1 0x10 DUP4 ADD SLOAD PUSH2 0x24E5 JUMP JUMPDEST PUSH1 0x10 DUP4 ADD PUSH2 0x2841 JUMP JUMPDEST PUSH1 0x10 PUSH1 0x14 PUSH10 0x189A5917DC1B1858D959 PUSH1 0xB2 SHL ADD SWAP2 ADD SSTORE PUSH1 0x1 PUSH1 0x1 PUSH1 0x40 SHL SUB DUP3 MLOAD SWAP2 AND DUP2 MSTORE CALLER PUSH1 0x20 DUP3 ADD MSTORE LOG1 STOP JUMPDEST ADD MLOAD SWAP1 POP CODESIZE DUP1 PUSH2 0x1FE JUMP JUMPDEST PUSH1 0x1F NOT DUP3 AND SWAP8 DUP4 PUSH1 0x0 MSTORE PUSH1 0x20 PUSH1 0x0 KECCAK256 SWAP9 PUSH1 0x0 JUMPDEST DUP2 DUP2 LT PUSH2 0x3BB JUMPI POP DUP4 PUSH32 0xB0E59B6909E1A66A0CDB5B8C4C87129F42751664DA66E6D778693230501F085C SWAP11 PUSH1 0x40 SWAP11 SWAP10 SWAP9 SWAP8 SWAP5 PUSH1 0x3 SWAP8 SWAP5 PUSH1 0x60 SWAP8 PUSH1 0x1 SWAP6 LT PUSH2 0x3A3 JUMPI JUMPDEST POP POP POP DUP2 SHL ADD SWAP1 SSTORE PUSH2 0x2EB JUMP JUMPDEST ADD MLOAD PUSH1 0x0 NOT DUP4 DUP10 SHL PUSH1 0xF8 AND SHR NOT AND SWAP1 SSTORE CODESIZE DUP1 DUP1 PUSH2 0x396 JUMP JUMPDEST DUP4 DUP4 ADD MLOAD DUP12 SSTORE PUSH1 0x1 SWAP1 SWAP11 ADD SWAP10 PUSH1 0x20 SWAP4 DUP5 ADD SWAP4 ADD PUSH2 0x354 JUMP JUMPDEST PUSH4 0x4E487B71 PUSH1 0xE0 SHL PUSH1 0x0 MSTORE PUSH1 0x41 PUSH1 0x4 MSTORE PUSH1 0x24 PUSH1 0x0 REVERT JUMPDEST DUP1 MLOAD DUP1 MLOAD SWAP1 PUSH1 0x1 PUSH1 0x1 PUSH1 0x40 SHL SUB DUP3 GT PUSH2 0x3D3 JUMPI PUSH2 0x410 DUP3 PUSH2 0x40A DUP9 SLOAD PUSH2 0x24E5 JUMP JUMPDEST DUP9 PUSH2 0x2869 JUMP JUMPDEST PUSH1 0x20 SWAP1 PUSH1 0x1F DUP4 GT PUSH1 0x1 EQ PUSH2 0x457 JUMPI SWAP3 PUSH2 0x448 DUP4 PUSH1 0x1 SWAP6 SWAP5 PUSH1 0x20 SWAP5 DUP8 SWAP7 PUSH1 0x0 SWAP3 PUSH2 0x336 JUMPI POP POP DUP2 PUSH1 0x1 SHL SWAP2 PUSH1 0x0 NOT SWAP1 PUSH1 0x3 SHL SHR NOT AND OR SWAP1 JUMP JUMPDEST DUP8 SSTORE JUMPDEST ADD SWAP5 ADD SWAP2 ADD SWAP1 SWAP3 PUSH2 0x252 JUMP JUMPDEST SWAP1 DUP7 PUSH1 0x0 MSTORE PUSH1 0x20 PUSH1 0x0 KECCAK256 SWAP2 PUSH1 0x0 JUMPDEST PUSH1 0x1F NOT DUP6 AND DUP2 LT PUSH2 0x4AF JUMPI POP DUP4 PUSH1 0x20 SWAP4 PUSH1 0x1 SWAP7 SWAP4 DUP8 SWAP7 SWAP4 DUP8 SWAP5 PUSH1 0x1F NOT DUP2 AND LT PUSH2 0x496 JUMPI JUMPDEST POP POP POP DUP2 SHL ADD DUP8 SSTORE PUSH2 0x44B JUMP JUMPDEST ADD MLOAD PUSH1 0x0 NOT PUSH1 0xF8 DUP5 PUSH1 0x3 SHL AND SHR NOT AND SWAP1 SSTORE CODESIZE DUP1 DUP1 PUSH2 0x489 JUMP JUMPDEST SWAP2 SWAP3 PUSH1 0x20 PUSH1 0x1 DUP2 SWAP3 DUP7 DUP6 ADD MLOAD DUP2 SSTORE ADD SWAP5 ADD SWAP3 ADD PUSH2 0x465 JUMP JUMPDEST PUSH1 0x1 DUP5 ADD PUSH1 0x0 MSTORE PUSH1 0x20 PUSH1 0x0 KECCAK256 SWAP1 DUP4 DUP3 ADD JUMPDEST DUP2 DUP4 ADD DUP2 LT PUSH2 0x4E8 JUMPI POP POP PUSH2 0x23C JUMP JUMPDEST DUP1 PUSH2 0x4F5 PUSH1 0x1 SWAP3 SLOAD PUSH2 0x24E5 JUMP JUMPDEST DUP1 PUSH2 0x502 JUMPI JUMPDEST POP ADD PUSH2 0x4D8 JUMP JUMPDEST PUSH1 0x1F DUP2 GT DUP4 EQ PUSH2 0x518 JUMPI POP PUSH1 0x0 DUP2 SSTORE JUMPDEST CODESIZE PUSH2 0x4FB JUMP JUMPDEST PUSH1 0x0 SWAP1 DUP3 DUP3 MSTORE PUSH2 0x536 PUSH1 0x1F PUSH1 0x20 DUP5 KECCAK256 SWAP3 ADD PUSH1 0x5 SHR DUP3 ADD DUP6 DUP4 ADD PUSH2 0x282A JUMP JUMPDEST DUP2 DUP4 SSTORE SSTORE PUSH2 0x512 JUMP JUMPDEST SWAP2 SWAP1 DUP4 PUSH1 0x0 MSTORE PUSH1 0x20 PUSH1 0x0 KECCAK256 SWAP1 PUSH1 0x0 SWAP4 JUMPDEST PUSH1 0x1F NOT DUP5 AND DUP6 LT PUSH2 0x590 JUMPI PUSH1 0x1 SWAP5 POP DUP4 PUSH1 0x1F NOT DUP2 AND LT PUSH2 0x577 JUMPI JUMPDEST POP POP POP DUP2 SHL ADD DUP2 SSTORE PUSH2 0x216 JUMP JUMPDEST ADD MLOAD PUSH1 0x0 NOT PUSH1 0xF8 DUP5 PUSH1 0x3 SHL AND SHR NOT AND SWAP1 SSTORE CODESIZE DUP1 DUP1 PUSH2 0x56A JUMP JUMPDEST DUP2 DUP2 ADD MLOAD DUP4 SSTORE PUSH1 0x20 SWAP5 DUP6 ADD SWAP5 PUSH1 0x1 SWAP1 SWAP4 ADD SWAP3 SWAP1 SWAP2 ADD SWAP1 PUSH2 0x54F JUMP JUMPDEST PUSH1 0x40 MLOAD PUSH3 0x461BCD PUSH1 0xE5 SHL DUP2 MSTORE PUSH1 0x20 PUSH1 0x4 DUP3 ADD MSTORE PUSH1 0x14 PUSH1 0x24 DUP3 ADD MSTORE PUSH20 0x119C99595B185B98D95C881B9BDD08199BDD5B99 PUSH1 0x62 SHL PUSH1 0x44 DUP3 ADD MSTORE PUSH1 0x64 SWAP1 REVERT JUMPDEST PUSH1 0x40 MLOAD PUSH3 0x461BCD PUSH1 0xE5 SHL DUP2 MSTORE PUSH1 0x20 PUSH1 0x4 DUP3 ADD MSTORE PUSH1 0x33 PUSH1 0x24 DUP3 ADD MSTORE PUSH32 0x42696420616D6F756E74206D757374206265206C657373207468616E206F7220 PUSH1 0x44 DUP3 ADD MSTORE PUSH19 0x195C5D585B081D1BC819DA59C8189D5919D95D PUSH1 0x6A SHL PUSH1 0x64 DUP3 ADD MSTORE PUSH1 0x84 SWAP1 REVERT JUMPDEST PUSH1 0x0 DUP1 REVERT JUMPDEST CALLVALUE PUSH2 0x648 JUMPI PUSH1 0x0 CALLDATASIZE PUSH1 0x3 NOT ADD SLT PUSH2 0x648 JUMPI PUSH1 0x1 DUP1 PUSH1 0xA0 SHL SUB DUP1 PUSH1 0x4 SLOAD AND DUP2 PUSH1 0x5 SLOAD AND SWAP2 PUSH1 0x6 SLOAD PUSH1 0xFF DUP2 PUSH1 0xA0 SHR AND SWAP4 PUSH1 0x40 MLOAD SWAP4 DUP5 MSTORE PUSH1 0x20 DUP5 ADD MSTORE AND PUSH1 0x40 DUP3 ADD MSTORE PUSH1 0x3 DUP3 LT ISZERO PUSH2 0x69F JUMPI PUSH1 0x80 SWAP2 PUSH1 0x60 DUP3 ADD MSTORE RETURN JUMPDEST PUSH4 0x4E487B71 PUSH1 0xE0 SHL PUSH1 0x0 MSTORE PUSH1 0x21 PUSH1 0x4 MSTORE PUSH1 0x24 PUSH1 0x0 REVERT JUMPDEST CALLVALUE PUSH2 0x648 JUMPI PUSH1 0x0 CALLDATASIZE PUSH1 0x3 NOT ADD SLT PUSH2 0x648 JUMPI PUSH1 0x20 PUSH1 0x1 PUSH1 0x1 PUSH1 0x40 SHL SUB PUSH1 0x3 SLOAD PUSH1 0x40 SHR AND PUSH1 0x40 MLOAD SWAP1 DUP2 MSTORE RETURN JUMPDEST CALLVALUE PUSH2 0x648 JUMPI PUSH1 0x0 CALLDATASIZE PUSH1 0x3 NOT ADD SLT PUSH2 0x648 JUMPI PUSH1 0x20 PUSH1 0x1 PUSH1 0x1 PUSH1 0x40 SHL SUB PUSH1 0x3 SLOAD AND PUSH1 0x40 MLOAD SWAP1 DUP2 MSTORE RETURN JUMPDEST CALLVALUE PUSH2 0x648 JUMPI PUSH1 0x80 CALLDATASIZE PUSH1 0x3 NOT ADD SLT PUSH2 0x648 JUMPI PUSH1 0x1 PUSH1 0x1 PUSH1 0x40 SHL SUB PUSH1 0x4 CALLDATALOAD DUP2 DUP2 GT PUSH2 0x648 JUMPI PUSH2 0x737 SWAP1 CALLDATASIZE SWAP1 PUSH1 0x4 ADD PUSH2 0x2676 JUMP JUMPDEST PUSH2 0x73F PUSH2 0x24CF JUMP JUMPDEST SWAP1 PUSH1 0x44 CALLDATALOAD SWAP1 DUP2 ISZERO ISZERO DUP1 SWAP3 SUB PUSH2 0x648 JUMPI PUSH1 0x64 CALLDATALOAD DUP5 DUP2 GT PUSH2 0x648 JUMPI PUSH2 0x766 SWAP1 CALLDATASIZE SWAP1 PUSH1 0x4 ADD PUSH2 0x26E3 JUMP JUMPDEST PUSH1 0x40 MLOAD SWAP2 PUSH2 0x773 DUP4 PUSH2 0x253A JUMP JUMPDEST DUP3 MSTORE PUSH1 0x20 SWAP2 DUP3 DUP2 ADD PUSH1 0x1 DUP1 PUSH1 0xA0 SHL SUB DUP1 SWAP7 AND DUP2 MSTORE PUSH1 0x40 DUP3 ADD SWAP5 DUP6 MSTORE PUSH1 0x60 DUP3 ADD SWAP3 DUP4 MSTORE CALLER PUSH1 0x0 MSTORE PUSH1 0x1 SWAP5 DUP6 DUP6 MSTORE PUSH1 0x40 PUSH1 0x0 KECCAK256 SWAP3 MLOAD SWAP7 DUP8 MLOAD DUP10 DUP2 GT PUSH2 0x3D3 JUMPI PUSH2 0x7C4 DUP2 PUSH2 0x7BE DUP8 SLOAD PUSH2 0x24E5 JUMP JUMPDEST DUP8 PUSH2 0x2869 JUMP JUMPDEST DUP7 PUSH1 0x1F SWAP10 PUSH1 0x1F DUP4 GT PUSH1 0x1 EQ PUSH2 0x9ED JUMPI SWAP2 DUP1 PUSH2 0x7FC SWAP3 PUSH1 0x2 SWAP9 SWAP8 SWAP7 SWAP6 SWAP5 PUSH1 0x0 SWAP3 PUSH2 0x9E2 JUMPI POP POP DUP2 PUSH1 0x1 SHL SWAP2 PUSH1 0x0 NOT SWAP1 PUSH1 0x3 SHL SHR NOT AND OR SWAP1 JUMP JUMPDEST DUP5 SSTORE JUMPDEST DUP8 DUP5 ADD SWAP3 MLOAD AND DUP3 SLOAD SWAP2 PUSH1 0xFF PUSH1 0xA0 SHL SWAP1 MLOAD ISZERO ISZERO PUSH1 0xA0 SHL AND SWAP2 PUSH11 0xFFFFFFFFFFFFFFFFFFFFFF PUSH1 0xA8 SHL AND OR OR SWAP1 SSTORE ADD SWAP1 MLOAD SWAP2 DUP3 MLOAD SWAP3 PUSH1 0x1 PUSH1 0x40 SHL DUP5 GT PUSH2 0x3D3 JUMPI DUP2 SWAP1 DUP4 SLOAD DUP6 DUP6 SSTORE DUP1 DUP7 LT PUSH2 0x968 JUMPI JUMPDEST POP ADD SWAP2 PUSH1 0x0 MSTORE DUP1 PUSH1 0x0 KECCAK256 PUSH1 0x0 SWAP3 JUMPDEST DUP5 DUP5 LT PUSH2 0x89A JUMPI DUP8 PUSH8 0xFFFFFFFFFFFFFFFF PUSH1 0x40 SHL PUSH2 0x87E PUSH1 0x3 SLOAD SWAP3 DUP4 PUSH1 0x40 SHR AND PUSH2 0x28AE JUMP JUMPDEST PUSH1 0x40 SHL AND SWAP1 PUSH8 0xFFFFFFFFFFFFFFFF PUSH1 0x40 SHL NOT AND OR PUSH1 0x3 SSTORE PUSH1 0x0 DUP1 RETURN JUMPDEST DUP1 MLOAD SWAP1 DUP2 MLOAD DUP10 DUP2 GT PUSH2 0x3D3 JUMPI DUP8 SWAP2 DUP2 PUSH2 0x8B8 DUP8 SWAP4 PUSH2 0x40A DUP9 SLOAD PUSH2 0x24E5 JUMP JUMPDEST DUP3 SWAP5 DUP12 DUP3 GT PUSH1 0x1 EQ PUSH2 0x902 JUMPI SWAP1 DUP1 DUP6 SWAP7 PUSH2 0x8E8 SWAP4 PUSH1 0x0 SWAP3 PUSH2 0x8F7 JUMPI POP POP DUP2 PUSH1 0x1 SHL SWAP2 PUSH1 0x0 NOT SWAP1 PUSH1 0x3 SHL SHR NOT AND OR SWAP1 JUMP JUMPDEST DUP6 SSTORE JUMPDEST ADD SWAP3 ADD SWAP4 ADD SWAP3 SWAP1 PUSH2 0x859 JUMP JUMPDEST ADD MLOAD SWAP1 POP DUP15 DUP1 PUSH2 0x1FE JUMP JUMPDEST SWAP5 PUSH1 0x1F NOT DUP3 AND SWAP1 DUP8 PUSH1 0x0 MSTORE DUP5 PUSH1 0x0 KECCAK256 SWAP2 PUSH1 0x0 JUMPDEST DUP2 DUP2 LT PUSH2 0x951 JUMPI POP SWAP1 DUP7 SWAP8 DUP5 DUP9 SWAP6 SWAP5 SWAP4 LT PUSH2 0x938 JUMPI JUMPDEST POP POP POP DUP2 SHL ADD DUP6 SSTORE PUSH2 0x8EB JUMP JUMPDEST ADD MLOAD PUSH1 0x0 NOT PUSH1 0xF8 DUP5 PUSH1 0x3 SHL AND SHR NOT AND SWAP1 SSTORE DUP14 DUP1 DUP1 PUSH2 0x92B JUMP JUMPDEST DUP3 DUP10 ADD MLOAD DUP5 SSTORE DUP14 SWAP8 DUP12 SWAP8 SWAP5 ADD SWAP4 SWAP3 DUP4 ADD SWAP3 ADD PUSH2 0x915 JUMP JUMPDEST DUP5 PUSH1 0x0 MSTORE DUP7 DUP7 DUP5 PUSH1 0x0 KECCAK256 SWAP3 DUP4 ADD SWAP3 ADD JUMPDEST DUP3 DUP2 LT PUSH2 0x986 JUMPI POP POP PUSH2 0x84B JUMP JUMPDEST SWAP1 SWAP2 SWAP3 SWAP4 POP PUSH2 0x995 DUP2 SLOAD PUSH2 0x24E5 JUMP JUMPDEST DUP1 PUSH2 0x9A7 JUMPI JUMPDEST POP ADD SWAP1 DUP7 DUP5 SWAP4 SWAP3 PUSH2 0x978 JUMP JUMPDEST DUP10 DUP2 GT PUSH1 0x1 EQ PUSH2 0x9BD JUMPI POP PUSH1 0x0 DUP2 SSTORE JUMPDEST DUP11 PUSH2 0x99B JUMP JUMPDEST PUSH1 0x0 SWAP1 DUP3 DUP3 MSTORE PUSH2 0x9D9 DUP12 DUP9 DUP5 KECCAK256 SWAP3 ADD PUSH1 0x5 SHR DUP3 ADD DUP6 DUP4 ADD PUSH2 0x282A JUMP JUMPDEST DUP2 DUP4 SSTORE SSTORE PUSH2 0x9B7 JUMP JUMPDEST ADD MLOAD SWAP1 POP DUP14 DUP1 PUSH2 0x1FE JUMP JUMPDEST SWAP6 SWAP5 SWAP4 SWAP3 SWAP2 DUP10 SWAP2 PUSH1 0x1F NOT DUP3 AND SWAP1 DUP8 PUSH1 0x0 MSTORE DUP11 PUSH1 0x0 KECCAK256 SWAP2 PUSH1 0x0 JUMPDEST DUP13 DUP3 DUP3 LT PUSH2 0xA41 JUMPI POP POP SWAP9 DUP4 PUSH1 0x2 SWAP11 LT PUSH2 0xA28 JUMPI JUMPDEST POP POP POP DUP2 SHL ADD DUP5 SSTORE PUSH2 0x7FF JUMP JUMPDEST ADD MLOAD PUSH1 0x0 NOT PUSH1 0xF8 DUP5 PUSH1 0x3 SHL AND SHR NOT AND SWAP1 SSTORE DUP13 DUP1 DUP1 PUSH2 0xA1B JUMP JUMPDEST DUP4 DUP13 ADD MLOAD DUP6 SSTORE DUP15 SWAP7 SWAP1 SWAP5 ADD SWAP4 SWAP3 DUP4 ADD SWAP3 ADD PUSH2 0xA06 JUMP JUMPDEST CALLVALUE PUSH2 0x648 JUMPI PUSH1 0x0 CALLDATASIZE PUSH1 0x3 NOT ADD SLT PUSH2 0x648 JUMPI PUSH1 0x20 PUSH1 0x1 PUSH1 0x1 PUSH1 0x40 SHL SUB PUSH1 0x3 SLOAD PUSH1 0x80 SHR AND PUSH1 0x40 MLOAD SWAP1 DUP2 MSTORE RETURN JUMPDEST CALLVALUE PUSH2 0x648 JUMPI PUSH1 0x20 CALLDATASIZE PUSH1 0x3 NOT ADD SLT PUSH2 0x648 JUMPI PUSH1 0x1 PUSH1 0x1 PUSH1 0x40 SHL SUB PUSH2 0xAA2 PUSH2 0x2762 JUMP JUMPDEST AND PUSH1 0x0 MSTORE PUSH1 0x2 PUSH1 0x20 MSTORE PUSH1 0x40 PUSH1 0x0 KECCAK256 PUSH1 0x40 MLOAD PUSH1 0x20 DUP2 ADD SWAP1 PUSH2 0xAC9 DUP2 PUSH2 0x103 DUP5 PUSH1 0x10 DUP8 ADD PUSH2 0x28DC JUMP JUMPDEST MLOAD SWAP1 KECCAK256 PUSH1 0x40 MLOAD PUSH1 0x20 DUP2 ADD SWAP1 PUSH9 0x18DBDB5C1B195D1959 PUSH1 0xBA SHL DUP3 MSTORE PUSH1 0x9 DUP2 MSTORE PUSH2 0xAF0 DUP2 PUSH2 0x2555 JUMP JUMPDEST MLOAD SWAP1 KECCAK256 SUB PUSH2 0xB04 JUMPI PUSH1 0x12 PUSH1 0x0 SWAP2 ADD SSTORE PUSH1 0x0 DUP1 RETURN JUMPDEST PUSH1 0x40 MLOAD PUSH3 0x461BCD PUSH1 0xE5 SHL DUP2 MSTORE PUSH1 0x20 PUSH1 0x4 DUP3 ADD MSTORE PUSH1 0x14 PUSH1 0x24 DUP3 ADD MSTORE PUSH20 0x11DA59C81A5CC81B9BDD0818DBDB5C1B195D1959 PUSH1 0x62 SHL PUSH1 0x44 DUP3 ADD MSTORE PUSH1 0x64 SWAP1 REVERT JUMPDEST CALLVALUE PUSH2 0x648 JUMPI PUSH1 0x20 CALLDATASIZE PUSH1 0x3 NOT ADD SLT PUSH2 0x648 JUMPI PUSH2 0xB59 PUSH2 0x2762 JUMP JUMPDEST PUSH1 0x1 PUSH1 0x1 PUSH1 0x40 SHL SUB AND PUSH1 0x0 MSTORE PUSH1 0x2 PUSH1 0x20 MSTORE PUSH1 0x40 PUSH1 0x0 KECCAK256 DUP1 SLOAD SWAP1 PUSH1 0x1 PUSH1 0xA0 SHL PUSH1 0x1 SWAP1 SUB PUSH1 0x1 DUP3 ADD SLOAD AND SWAP1 PUSH1 0x2 DUP2 ADD PUSH2 0xB8F SWAP1 PUSH2 0x2591 JUMP JUMPDEST PUSH2 0xB9B PUSH1 0x3 DUP4 ADD PUSH2 0x2591 JUMP JUMPDEST PUSH2 0xBA7 PUSH1 0x4 DUP5 ADD PUSH2 0x2591 JUMP JUMPDEST PUSH1 0x5 DUP5 ADD SLOAD PUSH1 0x1 SIGNEXTEND SWAP1 PUSH1 0x6 DUP6 ADD SLOAD PUSH1 0x7 DUP7 ADD SLOAD PUSH1 0xFF AND SWAP1 PUSH1 0x40 MLOAD SWAP3 PUSH2 0xBCB DUP5 PUSH2 0x251F JUMP JUMPDEST PUSH2 0xBD7 PUSH1 0x8 DUP10 ADD PUSH2 0x2591 JUMP JUMPDEST DUP5 MSTORE PUSH1 0x9 DUP9 ADD SLOAD PUSH1 0x1 PUSH1 0x1 PUSH1 0xA0 SHL SUB AND PUSH1 0x20 DUP6 ADD MSTORE PUSH2 0xBF8 PUSH1 0xA DUP10 ADD PUSH2 0x2591 JUMP JUMPDEST PUSH1 0x40 DUP6 ADD MSTORE PUSH2 0xC09 PUSH1 0xB DUP10 ADD PUSH2 0x2778 JUMP JUMPDEST PUSH1 0x60 DUP6 ADD MSTORE PUSH2 0xC1A PUSH1 0xC DUP10 ADD PUSH2 0x2778 JUMP JUMPDEST PUSH1 0x80 DUP6 ADD MSTORE PUSH1 0xD DUP9 ADD SLOAD PUSH1 0xFF AND ISZERO ISZERO PUSH1 0xA0 DUP6 ADD MSTORE PUSH2 0xC3A PUSH1 0xE DUP10 ADD PUSH2 0x2778 JUMP JUMPDEST PUSH1 0xC0 DUP6 ADD MSTORE PUSH2 0xC4B PUSH1 0x10 DUP10 ADD PUSH2 0x2591 JUMP JUMPDEST SWAP6 PUSH1 0x11 DUP10 ADD SLOAD PUSH1 0xFF AND SWAP9 PUSH1 0x12 ADD SLOAD SWAP8 PUSH1 0x40 MLOAD SWAP12 DUP13 SWAP12 DUP13 PUSH2 0x1A0 SWAP3 PUSH1 0x1 PUSH1 0x1 PUSH1 0x40 SHL SUB DUP2 AND DUP3 MSTORE PUSH1 0x1 PUSH1 0xA0 SHL PUSH1 0x1 SWAP1 SUB SWAP1 PUSH1 0x40 SHR AND SWAP1 PUSH1 0x20 ADD MSTORE PUSH1 0x40 DUP14 ADD MSTORE DUP1 PUSH1 0x60 DUP14 ADD MSTORE DUP12 ADD PUSH2 0xC9A SWAP2 PUSH2 0x2636 JUMP JUMPDEST DUP11 DUP2 SUB PUSH1 0x80 DUP13 ADD MSTORE PUSH2 0xCAB SWAP2 PUSH2 0x2636 JUMP JUMPDEST DUP10 DUP2 SUB PUSH1 0xA0 DUP12 ADD MSTORE PUSH2 0xCBC SWAP2 PUSH2 0x2636 JUMP JUMPDEST SWAP4 PUSH1 0xC0 DUP10 ADD MSTORE PUSH1 0xE0 DUP9 ADD MSTORE ISZERO ISZERO PUSH2 0x100 DUP8 ADD MSTORE DUP6 DUP3 SUB PUSH2 0x120 DUP8 ADD MSTORE DUP1 MLOAD PUSH1 0xE0 DUP4 MSTORE PUSH1 0xE0 DUP4 ADD PUSH2 0xCEB SWAP2 PUSH2 0x2636 JUMP JUMPDEST PUSH1 0x1 PUSH1 0xA0 SHL PUSH1 0x1 SWAP1 SUB PUSH1 0x20 DUP4 ADD MLOAD AND PUSH1 0x20 DUP5 ADD MSTORE PUSH1 0x40 DUP3 ADD MLOAD SWAP1 DUP4 DUP2 SUB PUSH1 0x40 DUP6 ADD MSTORE PUSH2 0xD16 SWAP2 PUSH2 0x2636 JUMP JUMPDEST PUSH1 0x60 DUP3 ADD MLOAD SWAP1 DUP4 DUP2 SUB PUSH1 0x60 DUP6 ADD MSTORE PUSH2 0xD2D SWAP2 PUSH2 0x27CD JUMP JUMPDEST PUSH1 0x80 DUP3 ADD MLOAD SWAP1 DUP4 DUP2 SUB PUSH1 0x80 DUP6 ADD MSTORE PUSH2 0xD44 SWAP2 PUSH2 0x27CD JUMP JUMPDEST SWAP1 PUSH1 0xA0 DUP2 ADD MLOAD ISZERO ISZERO PUSH1 0xA0 DUP5 ADD MSTORE PUSH1 0xC0 ADD MLOAD SWAP2 DUP1 DUP3 SUB SWAP1 PUSH1 0xC0 ADD MSTORE PUSH2 0xD67 SWAP2 PUSH2 0x27CD JUMP JUMPDEST DUP5 DUP2 SUB PUSH2 0x140 DUP7 ADD MSTORE PUSH2 0xD79 SWAP2 PUSH2 0x2636 JUMP JUMPDEST SWAP2 ISZERO ISZERO PUSH2 0x160 DUP5 ADD MSTORE PUSH2 0x180 DUP4 ADD MSTORE SUB SWAP1 RETURN JUMPDEST CALLVALUE PUSH2 0x648 JUMPI PUSH1 0x20 CALLDATASIZE PUSH1 0x3 NOT ADD SLT PUSH2 0x648 JUMPI PUSH2 0xDE4 PUSH1 0x1 PUSH1 0x1 PUSH1 0xA0 SHL SUB DUP1 PUSH2 0xDB1 PUSH2 0x24B9 JUMP JUMPDEST AND PUSH1 0x0 MSTORE PUSH1 0x1 PUSH1 0x20 MSTORE PUSH1 0x40 PUSH1 0x0 KECCAK256 SWAP1 PUSH1 0xFF PUSH1 0x1 PUSH2 0xDCD DUP5 PUSH2 0x2591 JUMP JUMPDEST SWAP4 ADD SLOAD PUSH1 0x40 MLOAD SWAP5 DUP6 SWAP5 PUSH1 0x60 DUP7 MSTORE PUSH1 0x60 DUP7 ADD SWAP1 PUSH2 0x2636 JUMP JUMPDEST SWAP3 DUP2 AND PUSH1 0x20 DUP6 ADD MSTORE PUSH1 0xA0 SHR AND ISZERO ISZERO PUSH1 0x40 DUP4 ADD MSTORE SUB SWAP1 RETURN JUMPDEST CALLVALUE PUSH2 0x648 JUMPI PUSH1 0x3 NOT PUSH2 0x180 CALLDATASIZE DUP3 ADD SLT PUSH2 0x648 JUMPI PUSH2 0xE16 PUSH2 0x24B9 JUMP JUMPDEST PUSH2 0xE1E PUSH2 0x24CF JUMP JUMPDEST SWAP1 PUSH1 0x44 CALLDATALOAD PUSH1 0x1 PUSH1 0x1 PUSH1 0x40 SHL SUB DUP2 GT PUSH2 0x648 JUMPI PUSH2 0xE3E SWAP1 CALLDATASIZE SWAP1 PUSH1 0x4 ADD PUSH2 0x2676 JUMP JUMPDEST SWAP3 PUSH1 0x64 CALLDATALOAD PUSH1 0x1 PUSH1 0x1 PUSH1 0x40 SHL SUB DUP2 GT PUSH2 0x648 JUMPI PUSH2 0xE5E SWAP1 CALLDATASIZE SWAP1 PUSH1 0x4 ADD PUSH2 0x2676 JUMP JUMPDEST SWAP1 PUSH1 0xA4 CALLDATALOAD PUSH1 0x1 SIGNEXTEND PUSH1 0xA4 CALLDATALOAD SUB PUSH2 0x648 JUMPI PUSH1 0xC4 CALLDATALOAD PUSH1 0x1 PUSH1 0x1 PUSH1 0x40 SHL SUB DUP2 GT PUSH2 0x648 JUMPI PUSH2 0xE8C SWAP1 CALLDATASIZE SWAP1 PUSH1 0x4 ADD PUSH2 0x2676 JUMP JUMPDEST SWAP1 PUSH1 0xE4 CALLDATALOAD ISZERO ISZERO PUSH1 0xE4 CALLDATALOAD SUB PUSH2 0x648 JUMPI PUSH1 0x1 PUSH1 0x1 PUSH1 0x40 SHL SUB PUSH2 0x104 CALLDATALOAD GT PUSH2 0x648 JUMPI PUSH1 0xE0 SWAP1 PUSH2 0x104 CALLDATALOAD CALLDATASIZE SUB ADD SLT PUSH2 0x648 JUMPI PUSH1 0x40 MLOAD SWAP2 PUSH2 0xEC7 DUP4 PUSH2 0x251F JUMP JUMPDEST PUSH2 0x104 CALLDATALOAD PUSH1 0x4 ADD CALLDATALOAD PUSH1 0x1 PUSH1 0x1 PUSH1 0x40 SHL SUB DUP2 GT PUSH2 0x648 JUMPI PUSH2 0xEF0 SWAP1 PUSH1 0x4 CALLDATASIZE SWAP2 PUSH2 0x104 CALLDATALOAD ADD ADD PUSH2 0x2676 JUMP JUMPDEST DUP4 MSTORE PUSH2 0x104 CALLDATALOAD PUSH1 0x24 ADD CALLDATALOAD PUSH1 0x1 PUSH1 0x1 PUSH1 0xA0 SHL SUB DUP2 AND SWAP1 SUB PUSH2 0x648 JUMPI PUSH2 0x104 CALLDATALOAD PUSH1 0x24 DUP2 ADD CALLDATALOAD PUSH1 0x20 DUP6 ADD MSTORE PUSH1 0x44 ADD CALLDATALOAD PUSH1 0x1 PUSH1 0x1 PUSH1 0x40 SHL SUB DUP2 GT PUSH2 0x648 JUMPI PUSH2 0xF3D SWAP1 PUSH1 0x4 CALLDATASIZE SWAP2 PUSH2 0x104 CALLDATALOAD ADD ADD PUSH2 0x2676 JUMP JUMPDEST PUSH1 0x40 DUP5 ADD MSTORE PUSH1 0x1 PUSH1 0x1 PUSH1 0x40 SHL SUB PUSH1 0x64 PUSH2 0x104 CALLDATALOAD ADD CALLDATALOAD GT PUSH2 0x648 JUMPI PUSH2 0xF6D CALLDATASIZE PUSH2 0x104 CALLDATALOAD PUSH1 0x64 DUP2 ADD CALLDATALOAD ADD PUSH1 0x4 ADD PUSH2 0x26E3 JUMP JUMPDEST PUSH1 0x60 DUP5 ADD MSTORE PUSH1 0x84 PUSH2 0x104 CALLDATALOAD ADD CALLDATALOAD PUSH1 0x1 PUSH1 0x1 PUSH1 0x40 SHL SUB DUP2 GT PUSH2 0x648 JUMPI PUSH2 0xF9B SWAP1 PUSH1 0x4 CALLDATASIZE SWAP2 PUSH2 0x104 CALLDATALOAD ADD ADD PUSH2 0x26E3 JUMP JUMPDEST PUSH1 0x80 DUP5 ADD MSTORE PUSH2 0x104 CALLDATALOAD PUSH1 0xA4 ADD CALLDATALOAD DUP1 ISZERO ISZERO SWAP1 SUB PUSH2 0x648 JUMPI PUSH1 0xA4 PUSH2 0x104 CALLDATALOAD ADD CALLDATALOAD PUSH1 0xA0 DUP5 ADD MSTORE PUSH1 0x1 PUSH1 0x1 PUSH1 0x40 SHL SUB PUSH1 0xC4 PUSH2 0x104 CALLDATALOAD ADD CALLDATALOAD GT PUSH2 0x648 JUMPI PUSH2 0xFE9 CALLDATASIZE PUSH2 0x104 CALLDATALOAD PUSH1 0xC4 DUP2 ADD CALLDATALOAD ADD PUSH1 0x4 ADD PUSH2 0x26E3 JUMP JUMPDEST PUSH1 0xC0 DUP5 ADD MSTORE PUSH2 0x124 CALLDATALOAD PUSH1 0x1 PUSH1 0x1 PUSH1 0x40 SHL SUB DUP2 GT PUSH2 0x648 JUMPI PUSH2 0x100E SWAP1 CALLDATASIZE SWAP1 PUSH1 0x4 ADD PUSH2 0x2676 JUMP JUMPDEST SWAP6 PUSH2 0x144 CALLDATALOAD ISZERO ISZERO PUSH2 0x144 CALLDATALOAD SUB PUSH2 0x648 JUMPI PUSH1 0x3 SLOAD SWAP6 PUSH8 0xFFFFFFFFFFFFFFFF PUSH1 0x80 SHL PUSH2 0x1044 PUSH1 0x80 DUP10 SWAP1 SHR PUSH1 0x1 PUSH1 0x1 PUSH1 0x40 SHL SUB AND PUSH2 0x28AE JUMP JUMPDEST PUSH1 0x80 SHL AND PUSH1 0x1 PUSH1 0x1 PUSH1 0x40 SHL SUB PUSH1 0x80 SHL NOT DUP9 AND OR PUSH1 0x3 SSTORE PUSH1 0x1 PUSH1 0x1 PUSH1 0x40 SHL SUB DUP8 PUSH1 0x80 SHR AND PUSH1 0x0 MSTORE PUSH1 0x2 PUSH1 0x20 MSTORE PUSH1 0x40 PUSH1 0x0 KECCAK256 SWAP6 DUP7 SLOAD SWAP1 PUSH1 0x1 PUSH1 0x40 SHL PUSH1 0x1 PUSH1 0xE0 SHL SUB SWAP1 PUSH1 0x40 SHL AND SWAP1 PUSH1 0x1 PUSH1 0x1 PUSH1 0x40 SHL SUB DUP10 PUSH1 0x80 SHR AND SWAP1 PUSH4 0xFFFFFFFF PUSH1 0xE0 SHL AND OR OR DUP7 SSTORE PUSH1 0x1 DUP7 ADD SWAP1 PUSH1 0x1 DUP1 PUSH1 0xA0 SHL SUB AND PUSH12 0xFFFFFFFFFFFFFFFFFFFFFFFF PUSH1 0xA0 SHL DUP3 SLOAD AND OR SWAP1 SSTORE DUP1 MLOAD SWAP1 PUSH1 0x1 PUSH1 0x1 PUSH1 0x40 SHL SUB DUP3 GT PUSH2 0x3D3 JUMPI PUSH2 0x10F2 DUP3 PUSH2 0x10E9 PUSH1 0x2 DUP10 ADD SLOAD PUSH2 0x24E5 JUMP JUMPDEST PUSH1 0x2 DUP10 ADD PUSH2 0x2869 JUMP JUMPDEST PUSH1 0x20 SWAP1 PUSH1 0x1F DUP4 GT PUSH1 0x1 EQ PUSH2 0x1B0A JUMPI PUSH2 0x1122 SWAP3 SWAP2 PUSH1 0x0 SWAP2 DUP4 PUSH2 0x1AFF JUMPI POP POP DUP2 PUSH1 0x1 SHL SWAP2 PUSH1 0x0 NOT SWAP1 PUSH1 0x3 SHL SHR NOT AND OR SWAP1 JUMP JUMPDEST PUSH1 0x2 DUP6 ADD SSTORE JUMPDEST DUP1 MLOAD SWAP1 PUSH1 0x1 PUSH1 0x1 PUSH1 0x40 SHL SUB DUP3 GT PUSH2 0x3D3 JUMPI PUSH2 0x1153 DUP3 PUSH2 0x114A PUSH1 0x3 DUP9 ADD SLOAD PUSH2 0x24E5 JUMP JUMPDEST PUSH1 0x3 DUP9 ADD PUSH2 0x2869 JUMP JUMPDEST PUSH1 0x20 SWAP1 PUSH1 0x1F DUP4 GT PUSH1 0x1 EQ PUSH2 0x1A8D JUMPI PUSH2 0x1183 SWAP3 SWAP2 PUSH1 0x0 SWAP2 DUP4 PUSH2 0x1A82 JUMPI POP POP DUP2 PUSH1 0x1 SHL SWAP2 PUSH1 0x0 NOT SWAP1 PUSH1 0x3 SHL SHR NOT AND OR SWAP1 JUMP JUMPDEST PUSH1 0x3 DUP5 ADD SSTORE JUMPDEST DUP1 MLOAD SWAP1 PUSH1 0x1 PUSH1 0x1 PUSH1 0x40 SHL SUB DUP3 GT PUSH2 0x3D3 JUMPI PUSH2 0x11B4 DUP3 PUSH2 0x11AB PUSH1 0x4 DUP8 ADD SLOAD PUSH2 0x24E5 JUMP JUMPDEST PUSH1 0x4 DUP8 ADD PUSH2 0x2869 JUMP JUMPDEST PUSH1 0x20 SWAP1 PUSH1 0x1F DUP4 GT PUSH1 0x1 EQ PUSH2 0x1A10 JUMPI PUSH2 0x11E4 SWAP3 SWAP2 PUSH1 0x0 SWAP2 DUP4 PUSH2 0x14CB JUMPI POP POP DUP2 PUSH1 0x1 SHL SWAP2 PUSH1 0x0 NOT SWAP1 PUSH1 0x3 SHL SHR NOT AND OR SWAP1 JUMP JUMPDEST PUSH1 0x4 DUP4 ADD SSTORE JUMPDEST PUSH1 0x5 DUP3 ADD PUSH2 0xFFFF NOT DUP2 SLOAD AND PUSH1 0xA4 CALLDATALOAD PUSH2 0xFFFF AND OR SWAP1 SSTORE PUSH1 0x84 CALLDATALOAD PUSH1 0x6 DUP4 ADD SSTORE PUSH2 0x1222 PUSH1 0xE4 CALLDATALOAD PUSH1 0x7 DUP5 ADD SWAP1 PUSH1 0xFF DUP1 NOT DUP4 SLOAD AND SWAP2 ISZERO ISZERO AND OR SWAP1 SSTORE JUMP JUMPDEST DUP1 MLOAD DUP1 MLOAD SWAP1 PUSH1 0x1 PUSH1 0x1 PUSH1 0x40 SHL SUB DUP3 GT PUSH2 0x3D3 JUMPI PUSH2 0x124F DUP3 PUSH2 0x1246 PUSH1 0x8 DUP8 ADD SLOAD PUSH2 0x24E5 JUMP JUMPDEST PUSH1 0x8 DUP8 ADD PUSH2 0x2869 JUMP JUMPDEST PUSH1 0x20 SWAP1 PUSH1 0x1F DUP4 GT PUSH1 0x1 EQ PUSH2 0x199E JUMPI PUSH2 0x127F SWAP3 SWAP2 PUSH1 0x0 SWAP2 DUP4 PUSH2 0x14CB JUMPI POP POP DUP2 PUSH1 0x1 SHL SWAP2 PUSH1 0x0 NOT SWAP1 PUSH1 0x3 SHL SHR NOT AND OR SWAP1 JUMP JUMPDEST PUSH1 0x8 DUP4 ADD SSTORE JUMPDEST PUSH1 0x9 DUP3 ADD PUSH1 0x1 DUP1 PUSH1 0xA0 SHL SUB PUSH1 0x20 DUP4 ADD MLOAD AND PUSH12 0xFFFFFFFFFFFFFFFFFFFFFFFF PUSH1 0xA0 SHL DUP3 SLOAD AND OR SWAP1 SSTORE PUSH1 0x40 DUP2 ADD MLOAD DUP1 MLOAD SWAP1 PUSH1 0x1 PUSH1 0x1 PUSH1 0x40 SHL SUB DUP3 GT PUSH2 0x3D3 JUMPI PUSH2 0x12DC DUP3 PUSH2 0x12D3 PUSH1 0xA DUP8 ADD SLOAD PUSH2 0x24E5 JUMP JUMPDEST PUSH1 0xA DUP8 ADD PUSH2 0x2869 JUMP JUMPDEST PUSH1 0x20 SWAP1 PUSH1 0x1F DUP4 GT PUSH1 0x1 EQ PUSH2 0x192C JUMPI PUSH2 0x130C SWAP3 SWAP2 PUSH1 0x0 SWAP2 DUP4 PUSH2 0x14CB JUMPI POP POP DUP2 PUSH1 0x1 SHL SWAP2 PUSH1 0x0 NOT SWAP1 PUSH1 0x3 SHL SHR NOT AND OR SWAP1 JUMP JUMPDEST PUSH1 0xA DUP4 ADD SSTORE JUMPDEST PUSH1 0x60 DUP2 ADD MLOAD DUP1 MLOAD SWAP1 PUSH1 0x1 PUSH1 0x40 SHL DUP3 GT PUSH2 0x3D3 JUMPI PUSH1 0xB DUP5 ADD SLOAD DUP3 PUSH1 0xB DUP7 ADD SSTORE DUP1 DUP4 LT PUSH2 0x18B4 JUMPI JUMPDEST POP PUSH1 0x20 ADD SWAP1 PUSH1 0xB DUP5 ADD PUSH1 0x0 MSTORE PUSH1 0x20 PUSH1 0x0 KECCAK256 SWAP2 PUSH1 0x0 SWAP1 JUMPDEST DUP3 DUP3 LT PUSH2 0x17DC JUMPI POP POP POP POP PUSH1 0x80 DUP2 ADD MLOAD DUP1 MLOAD SWAP1 PUSH1 0x1 PUSH1 0x40 SHL DUP3 GT PUSH2 0x3D3 JUMPI PUSH1 0xC DUP5 ADD SLOAD DUP3 PUSH1 0xC DUP7 ADD SSTORE DUP1 DUP4 LT PUSH2 0x1764 JUMPI JUMPDEST POP PUSH1 0x20 ADD SWAP1 PUSH1 0xC DUP5 ADD PUSH1 0x0 MSTORE PUSH1 0x20 PUSH1 0x0 KECCAK256 SWAP2 PUSH1 0x0 SWAP1 JUMPDEST DUP3 DUP3 LT PUSH2 0x168C JUMPI POP POP POP POP DUP1 PUSH2 0x13C2 PUSH1 0xA0 PUSH1 0xC0 SWAP4 ADD MLOAD ISZERO ISZERO PUSH1 0xD DUP6 ADD SWAP1 PUSH1 0xFF DUP1 NOT DUP4 SLOAD AND SWAP2 ISZERO ISZERO AND OR SWAP1 SSTORE JUMP JUMPDEST ADD MLOAD DUP1 MLOAD SWAP1 PUSH1 0x1 PUSH1 0x40 SHL DUP3 GT PUSH2 0x3D3 JUMPI PUSH1 0xE DUP4 ADD SLOAD DUP3 PUSH1 0xE DUP6 ADD SSTORE DUP1 DUP4 LT PUSH2 0x1614 JUMPI JUMPDEST POP PUSH1 0x20 ADD SWAP1 PUSH1 0xE DUP4 ADD PUSH1 0x0 MSTORE PUSH1 0x20 PUSH1 0x0 KECCAK256 SWAP2 PUSH1 0x0 SWAP1 JUMPDEST DUP3 DUP3 LT PUSH2 0x153C JUMPI POP POP POP POP PUSH1 0x10 DUP2 ADD DUP4 MLOAD PUSH1 0x1 PUSH1 0x1 PUSH1 0x40 SHL SUB DUP2 GT PUSH2 0x3D3 JUMPI PUSH1 0x20 SWAP5 PUSH2 0x142B DUP3 PUSH2 0x1DC DUP6 SLOAD PUSH2 0x24E5 JUMP JUMPDEST DUP6 SWAP1 PUSH1 0x1F DUP4 GT PUSH1 0x1 EQ PUSH2 0x14D6 JUMPI PUSH2 0x145A SWAP3 SWAP2 PUSH1 0x0 SWAP2 DUP4 PUSH2 0x14CB JUMPI POP POP DUP2 PUSH1 0x1 SHL SWAP2 PUSH1 0x0 NOT SWAP1 PUSH1 0x3 SHL SHR NOT AND OR SWAP1 JUMP JUMPDEST SWAP1 SSTORE JUMPDEST PUSH2 0x1479 PUSH2 0x144 CALLDATALOAD PUSH1 0x11 DUP4 ADD SWAP1 PUSH1 0xFF DUP1 NOT DUP4 SLOAD AND SWAP2 ISZERO ISZERO AND OR SWAP1 SSTORE JUMP JUMPDEST PUSH1 0x12 PUSH2 0x164 CALLDATALOAD SWAP2 ADD SSTORE PUSH32 0x1C5D8807E0CAC22EA4DCCAF4F55E6A3D48E129D84FCA614066C90F3961F93C15 DUP3 PUSH1 0x40 MLOAD PUSH1 0x1 PUSH1 0x1 PUSH1 0x40 SHL SUB DUP5 PUSH1 0x80 SHR AND DUP2 MSTORE LOG1 PUSH1 0x1 PUSH1 0x1 PUSH1 0x40 SHL SUB PUSH1 0x40 MLOAD SWAP2 PUSH1 0x80 SHR AND DUP2 MSTORE RETURN JUMPDEST ADD MLOAD SWAP1 POP DUP8 DUP1 PUSH2 0x1FE JUMP JUMPDEST SWAP1 PUSH1 0x1F NOT DUP4 AND SWAP2 DUP5 PUSH1 0x0 MSTORE DUP8 PUSH1 0x0 KECCAK256 SWAP3 PUSH1 0x0 JUMPDEST DUP2 DUP2 LT PUSH2 0x1525 JUMPI POP SWAP1 DUP5 PUSH1 0x1 SWAP6 SWAP5 SWAP4 SWAP3 LT PUSH2 0x150C JUMPI JUMPDEST POP POP POP DUP2 SHL ADD SWAP1 SSTORE PUSH2 0x145D JUMP JUMPDEST ADD MLOAD PUSH1 0x0 NOT PUSH1 0xF8 DUP5 PUSH1 0x3 SHL AND SHR NOT AND SWAP1 SSTORE DUP7 DUP1 DUP1 PUSH2 0x14FF JUMP JUMPDEST SWAP3 SWAP4 DUP10 PUSH1 0x1 DUP2 SWAP3 DUP8 DUP7 ADD MLOAD DUP2 SSTORE ADD SWAP6 ADD SWAP4 ADD PUSH2 0x14E9 JUMP JUMPDEST DUP1 MLOAD DUP1 MLOAD SWAP1 PUSH1 0x1 PUSH1 0x1 PUSH1 0x40 SHL SUB DUP3 GT PUSH2 0x3D3 JUMPI PUSH2 0x155D DUP3 PUSH2 0x40A DUP9 SLOAD PUSH2 0x24E5 JUMP JUMPDEST PUSH1 0x20 SWAP1 PUSH1 0x1F DUP4 GT PUSH1 0x1 EQ PUSH2 0x15A4 JUMPI SWAP3 PUSH2 0x1595 DUP4 PUSH1 0x1 SWAP6 SWAP5 PUSH1 0x20 SWAP5 DUP8 SWAP7 PUSH1 0x0 SWAP3 PUSH2 0x9E2 JUMPI POP POP DUP2 PUSH1 0x1 SHL SWAP2 PUSH1 0x0 NOT SWAP1 PUSH1 0x3 SHL SHR NOT AND OR SWAP1 JUMP JUMPDEST DUP8 SSTORE JUMPDEST ADD SWAP5 ADD SWAP2 ADD SWAP1 SWAP3 PUSH2 0x13FB JUMP JUMPDEST SWAP1 DUP7 PUSH1 0x0 MSTORE PUSH1 0x20 PUSH1 0x0 KECCAK256 SWAP2 PUSH1 0x0 JUMPDEST PUSH1 0x1F NOT DUP6 AND DUP2 LT PUSH2 0x15FC JUMPI POP DUP4 PUSH1 0x20 SWAP4 PUSH1 0x1 SWAP7 SWAP4 DUP8 SWAP7 SWAP4 DUP8 SWAP5 PUSH1 0x1F NOT DUP2 AND LT PUSH2 0x15E3 JUMPI JUMPDEST POP POP POP DUP2 SHL ADD DUP8 SSTORE PUSH2 0x1598 JUMP JUMPDEST ADD MLOAD PUSH1 0x0 NOT PUSH1 0xF8 DUP5 PUSH1 0x3 SHL AND SHR NOT AND SWAP1 SSTORE DUP13 DUP1 DUP1 PUSH2 0x15D6 JUMP JUMPDEST SWAP2 SWAP3 PUSH1 0x20 PUSH1 0x1 DUP2 SWAP3 DUP7 DUP6 ADD MLOAD DUP2 SSTORE ADD SWAP5 ADD SWAP3 ADD PUSH2 0x15B2 JUMP JUMPDEST PUSH1 0xE DUP5 ADD PUSH1 0x0 MSTORE PUSH1 0x20 PUSH1 0x0 KECCAK256 SWAP1 DUP4 DUP3 ADD JUMPDEST DUP2 DUP4 ADD DUP2 LT PUSH2 0x1635 JUMPI POP POP PUSH2 0x13E5 JUMP JUMPDEST DUP1 PUSH2 0x1642 PUSH1 0x1 SWAP3 SLOAD PUSH2 0x24E5 JUMP JUMPDEST DUP1 PUSH2 0x164F JUMPI JUMPDEST POP ADD PUSH2 0x1625 JUMP JUMPDEST PUSH1 0x1F DUP2 GT DUP4 EQ PUSH2 0x1665 JUMPI POP PUSH1 0x0 DUP2 SSTORE JUMPDEST DUP10 PUSH2 0x1648 JUMP JUMPDEST PUSH1 0x0 SWAP1 DUP3 DUP3 MSTORE PUSH2 0x1683 PUSH1 0x1F PUSH1 0x20 DUP5 KECCAK256 SWAP3 ADD PUSH1 0x5 SHR DUP3 ADD DUP6 DUP4 ADD PUSH2 0x282A JUMP JUMPDEST DUP2 DUP4 SSTORE SSTORE PUSH2 0x165F JUMP JUMPDEST DUP1 MLOAD DUP1 MLOAD SWAP1 PUSH1 0x1 PUSH1 0x1 PUSH1 0x40 SHL SUB DUP3 GT PUSH2 0x3D3 JUMPI PUSH2 0x16AD DUP3 PUSH2 0x40A DUP9 SLOAD PUSH2 0x24E5 JUMP JUMPDEST PUSH1 0x20 SWAP1 PUSH1 0x1F DUP4 GT PUSH1 0x1 EQ PUSH2 0x16F4 JUMPI SWAP3 PUSH2 0x16E5 DUP4 PUSH1 0x1 SWAP6 SWAP5 PUSH1 0x20 SWAP5 DUP8 SWAP7 PUSH1 0x0 SWAP3 PUSH2 0x8F7 JUMPI POP POP DUP2 PUSH1 0x1 SHL SWAP2 PUSH1 0x0 NOT SWAP1 PUSH1 0x3 SHL SHR NOT AND OR SWAP1 JUMP JUMPDEST DUP8 SSTORE JUMPDEST ADD SWAP5 ADD SWAP2 ADD SWAP1 SWAP3 PUSH2 0x1395 JUMP JUMPDEST SWAP1 DUP7 PUSH1 0x0 MSTORE PUSH1 0x20 PUSH1 0x0 KECCAK256 SWAP2 PUSH1 0x0 JUMPDEST PUSH1 0x1F NOT DUP6 AND DUP2 LT PUSH2 0x174C JUMPI POP DUP4 PUSH1 0x20 SWAP4 PUSH1 0x1 SWAP7 SWAP4 DUP8 SWAP7 SWAP4 DUP8 SWAP5 PUSH1 0x1F NOT DUP2 AND LT PUSH2 0x1733 JUMPI JUMPDEST POP POP POP DUP2 SHL ADD DUP8 SSTORE PUSH2 0x16E8 JUMP JUMPDEST ADD MLOAD PUSH1 0x0 NOT PUSH1 0xF8 DUP5 PUSH1 0x3 SHL AND SHR NOT AND SWAP1 SSTORE DUP14 DUP1 DUP1 PUSH2 0x1726 JUMP JUMPDEST SWAP2 SWAP3 PUSH1 0x20 PUSH1 0x1 DUP2 SWAP3 DUP7 DUP6 ADD MLOAD DUP2 SSTORE ADD SWAP5 ADD SWAP3 ADD PUSH2 0x1702 JUMP JUMPDEST PUSH1 0xC DUP6 ADD PUSH1 0x0 MSTORE PUSH1 0x20 PUSH1 0x0 KECCAK256 SWAP1 DUP4 DUP3 ADD JUMPDEST DUP2 DUP4 ADD DUP2 LT PUSH2 0x1785 JUMPI POP POP PUSH2 0x137F JUMP JUMPDEST DUP1 PUSH2 0x1792 PUSH1 0x1 SWAP3 SLOAD PUSH2 0x24E5 JUMP JUMPDEST DUP1 PUSH2 0x179F JUMPI JUMPDEST POP ADD PUSH2 0x1775 JUMP JUMPDEST PUSH1 0x1F DUP2 GT DUP4 EQ PUSH2 0x17B5 JUMPI POP PUSH1 0x0 DUP2 SSTORE JUMPDEST DUP11 PUSH2 0x1798 JUMP JUMPDEST PUSH1 0x0 SWAP1 DUP3 DUP3 MSTORE PUSH2 0x17D3 PUSH1 0x1F PUSH1 0x20 DUP5 KECCAK256 SWAP3 ADD PUSH1 0x5 SHR DUP3 ADD DUP6 DUP4 ADD PUSH2 0x282A JUMP JUMPDEST DUP2 DUP4 SSTORE SSTORE PUSH2 0x17AF JUMP JUMPDEST DUP1 MLOAD DUP1 MLOAD SWAP1 PUSH1 0x1 PUSH1 0x1 PUSH1 0x40 SHL SUB DUP3 GT PUSH2 0x3D3 JUMPI PUSH2 0x17FD DUP3 PUSH2 0x40A DUP9 SLOAD PUSH2 0x24E5 JUMP JUMPDEST PUSH1 0x20 SWAP1 PUSH1 0x1F DUP4 GT PUSH1 0x1 EQ PUSH2 0x1844 JUMPI SWAP3 PUSH2 0x1835 DUP4 PUSH1 0x1 SWAP6 SWAP5 PUSH1 0x20 SWAP5 DUP8 SWAP7 PUSH1 0x0 SWAP3 PUSH2 0x8F7 JUMPI POP POP DUP2 PUSH1 0x1 SHL SWAP2 PUSH1 0x0 NOT SWAP1 PUSH1 0x3 SHL SHR NOT AND OR SWAP1 JUMP JUMPDEST DUP8 SSTORE JUMPDEST ADD SWAP5 ADD SWAP2 ADD SWAP1 SWAP3 PUSH2 0x134E JUMP JUMPDEST SWAP1 DUP7 PUSH1 0x0 MSTORE PUSH1 0x20 PUSH1 0x0 KECCAK256 SWAP2 PUSH1 0x0 JUMPDEST PUSH1 0x1F NOT DUP6 AND DUP2 LT PUSH2 0x189C JUMPI POP DUP4 PUSH1 0x20 SWAP4 PUSH1 0x1 SWAP7 SWAP4 DUP8 SWAP7 SWAP4 DUP8 SWAP5 PUSH1 0x1F NOT DUP2 AND LT PUSH2 0x1883 JUMPI JUMPDEST POP POP POP DUP2 SHL ADD DUP8 SSTORE PUSH2 0x1838 JUMP JUMPDEST ADD MLOAD PUSH1 0x0 NOT PUSH1 0xF8 DUP5 PUSH1 0x3 SHL AND SHR NOT AND SWAP1 SSTORE DUP14 DUP1 DUP1 PUSH2 0x1876 JUMP JUMPDEST SWAP2 SWAP3 PUSH1 0x20 PUSH1 0x1 DUP2 SWAP3 DUP7 DUP6 ADD MLOAD DUP2 SSTORE ADD SWAP5 ADD SWAP3 ADD PUSH2 0x1852 JUMP JUMPDEST PUSH1 0xB DUP6 ADD PUSH1 0x0 MSTORE PUSH1 0x20 PUSH1 0x0 KECCAK256 SWAP1 DUP4 DUP3 ADD JUMPDEST DUP2 DUP4 ADD DUP2 LT PUSH2 0x18D5 JUMPI POP POP PUSH2 0x1338 JUMP JUMPDEST DUP1 PUSH2 0x18E2 PUSH1 0x1 SWAP3 SLOAD PUSH2 0x24E5 JUMP JUMPDEST DUP1 PUSH2 0x18EF JUMPI JUMPDEST POP ADD PUSH2 0x18C5 JUMP JUMPDEST PUSH1 0x1F DUP2 GT DUP4 EQ PUSH2 0x1905 JUMPI POP PUSH1 0x0 DUP2 SSTORE JUMPDEST DUP11 PUSH2 0x18E8 JUMP JUMPDEST PUSH1 0x0 SWAP1 DUP3 DUP3 MSTORE PUSH2 0x1923 PUSH1 0x1F PUSH1 0x20 DUP5 KECCAK256 SWAP3 ADD PUSH1 0x5 SHR DUP3 ADD DUP6 DUP4 ADD PUSH2 0x282A JUMP JUMPDEST DUP2 DUP4 SSTORE SSTORE PUSH2 0x18FF JUMP JUMPDEST SWAP2 SWAP1 PUSH1 0xA DUP6 ADD PUSH1 0x0 MSTORE PUSH1 0x20 PUSH1 0x0 KECCAK256 SWAP1 PUSH1 0x0 SWAP4 JUMPDEST PUSH1 0x1F NOT DUP5 AND DUP6 LT PUSH2 0x1983 JUMPI PUSH1 0x1 SWAP5 POP DUP4 PUSH1 0x1F NOT DUP2 AND LT PUSH2 0x196A JUMPI JUMPDEST POP POP POP DUP2 SHL ADD PUSH1 0xA DUP4 ADD SSTORE PUSH2 0x1312 JUMP JUMPDEST ADD MLOAD PUSH1 0x0 NOT PUSH1 0xF8 DUP5 PUSH1 0x3 SHL AND SHR NOT AND SWAP1 SSTORE DUP7 DUP1 DUP1 PUSH2 0x195A JUMP JUMPDEST DUP2 DUP2 ADD MLOAD DUP4 SSTORE PUSH1 0x20 SWAP5 DUP6 ADD SWAP5 PUSH1 0x1 SWAP1 SWAP4 ADD SWAP3 SWAP1 SWAP2 ADD SWAP1 PUSH2 0x193F JUMP JUMPDEST SWAP2 SWAP1 PUSH1 0x8 DUP6 ADD PUSH1 0x0 MSTORE PUSH1 0x20 PUSH1 0x0 KECCAK256 SWAP1 PUSH1 0x0 SWAP4 JUMPDEST PUSH1 0x1F NOT DUP5 AND DUP6 LT PUSH2 0x19F5 JUMPI PUSH1 0x1 SWAP5 POP DUP4 PUSH1 0x1F NOT DUP2 AND LT PUSH2 0x19DC JUMPI JUMPDEST POP POP POP DUP2 SHL ADD PUSH1 0x8 DUP4 ADD SSTORE PUSH2 0x1285 JUMP JUMPDEST ADD MLOAD PUSH1 0x0 NOT PUSH1 0xF8 DUP5 PUSH1 0x3 SHL AND SHR NOT AND SWAP1 SSTORE DUP7 DUP1 DUP1 PUSH2 0x19CC JUMP JUMPDEST DUP2 DUP2 ADD MLOAD DUP4 SSTORE PUSH1 0x20 SWAP5 DUP6 ADD SWAP5 PUSH1 0x1 SWAP1 SWAP4 ADD SWAP3 SWAP1 SWAP2 ADD SWAP1 PUSH2 0x19B1 JUMP JUMPDEST SWAP2 SWAP1 PUSH1 0x4 DUP6 ADD PUSH1 0x0 MSTORE PUSH1 0x20 PUSH1 0x0 KECCAK256 SWAP1 PUSH1 0x0 SWAP4 JUMPDEST PUSH1 0x1F NOT DUP5 AND DUP6 LT PUSH2 0x1A67 JUMPI PUSH1 0x1 SWAP5 POP DUP4 PUSH1 0x1F NOT DUP2 AND LT PUSH2 0x1A4E JUMPI JUMPDEST POP POP POP DUP2 SHL ADD PUSH1 0x4 DUP4 ADD SSTORE PUSH2 0x11EA JUMP JUMPDEST ADD MLOAD PUSH1 0x0 NOT PUSH1 0xF8 DUP5 PUSH1 0x3 SHL AND SHR NOT AND SWAP1 SSTORE DUP7 DUP1 DUP1 PUSH2 0x1A3E JUMP JUMPDEST DUP2 DUP2 ADD MLOAD DUP4 SSTORE PUSH1 0x20 SWAP5 DUP6 ADD SWAP5 PUSH1 0x1 SWAP1 SWAP4 ADD SWAP3 SWAP1 SWAP2 ADD SWAP1 PUSH2 0x1A23 JUMP JUMPDEST ADD MLOAD SWAP1 POP DUP9 DUP1 PUSH2 0x1FE JUMP JUMPDEST SWAP2 SWAP1 PUSH1 0x3 DUP7 ADD PUSH1 0x0 MSTORE PUSH1 0x20 PUSH1 0x0 KECCAK256 SWAP1 PUSH1 0x0 SWAP4 JUMPDEST PUSH1 0x1F NOT DUP5 AND DUP6 LT PUSH2 0x1AE4 JUMPI PUSH1 0x1 SWAP5 POP DUP4 PUSH1 0x1F NOT DUP2 AND LT PUSH2 0x1ACB JUMPI JUMPDEST POP POP POP DUP2 SHL ADD PUSH1 0x3 DUP5 ADD SSTORE PUSH2 0x1189 JUMP JUMPDEST ADD MLOAD PUSH1 0x0 NOT PUSH1 0xF8 DUP5 PUSH1 0x3 SHL AND SHR NOT AND SWAP1 SSTORE DUP8 DUP1 DUP1 PUSH2 0x1ABB JUMP JUMPDEST DUP2 DUP2 ADD MLOAD DUP4 SSTORE PUSH1 0x20 SWAP5 DUP6 ADD SWAP5 PUSH1 0x1 SWAP1 SWAP4 ADD SWAP3 SWAP1 SWAP2 ADD SWAP1 PUSH2 0x1AA0 JUMP JUMPDEST ADD MLOAD SWAP1 POP DUP10 DUP1 PUSH2 0x1FE JUMP JUMPDEST SWAP2 SWAP1 PUSH1 0x2 DUP8 ADD PUSH1 0x0 MSTORE PUSH1 0x20 PUSH1 0x0 KECCAK256 SWAP1 PUSH1 0x0 SWAP4 JUMPDEST PUSH1 0x1F NOT DUP5 AND DUP6 LT PUSH2 0x1B61 JUMPI PUSH1 0x1 SWAP5 POP DUP4 PUSH1 0x1F NOT DUP2 AND LT PUSH2 0x1B48 JUMPI JUMPDEST POP POP POP DUP2 SHL ADD PUSH1 0x2 DUP6 ADD SSTORE PUSH2 0x1128 JUMP JUMPDEST ADD MLOAD PUSH1 0x0 NOT PUSH1 0xF8 DUP5 PUSH1 0x3 SHL AND SHR NOT AND SWAP1 SSTORE DUP9 DUP1 DUP1 PUSH2 0x1B38 JUMP JUMPDEST DUP2 DUP2 ADD MLOAD DUP4 SSTORE PUSH1 0x20 SWAP5 DUP6 ADD SWAP5 PUSH1 0x1 SWAP1 SWAP4 ADD SWAP3 SWAP1 SWAP2 ADD SWAP1 PUSH2 0x1B1D JUMP JUMPDEST CALLVALUE PUSH2 0x648 JUMPI PUSH1 0x20 CALLDATASIZE PUSH1 0x3 NOT ADD SLT PUSH2 0x648 JUMPI PUSH1 0x1 PUSH1 0x1 PUSH1 0x40 SHL SUB PUSH2 0x1B9D PUSH2 0x2762 JUMP JUMPDEST AND PUSH1 0x0 MSTORE PUSH1 0x2 PUSH1 0x20 MSTORE PUSH1 0x11 PUSH1 0x40 PUSH1 0x0 KECCAK256 PUSH1 0x10 DUP2 ADD PUSH2 0x1BCA PUSH1 0x40 MLOAD PUSH1 0x20 DUP2 ADD SWAP1 PUSH2 0x111 DUP2 PUSH2 0x103 DUP5 DUP8 PUSH2 0x28DC JUMP JUMPDEST PUSH2 0x1BDD PUSH2 0x1BD7 DUP3 SLOAD PUSH2 0x24E5 JUMP JUMPDEST DUP3 PUSH2 0x2841 JUMP JUMPDEST PUSH1 0x12 PUSH9 0x18DBDB5C1B195D1959 PUSH1 0xBA SHL ADD SWAP1 SSTORE ADD DUP1 SLOAD PUSH1 0xFF NOT AND PUSH1 0x1 OR SWAP1 SSTORE STOP JUMPDEST CALLVALUE PUSH2 0x648 JUMPI PUSH1 0x20 CALLDATASIZE PUSH1 0x3 NOT ADD SLT PUSH2 0x648 JUMPI PUSH1 0x1 PUSH1 0x1 PUSH1 0xA0 SHL SUB PUSH2 0x1C1E PUSH2 0x24B9 JUMP JUMPDEST AND PUSH1 0x0 MSTORE PUSH1 0x0 PUSH1 0x20 MSTORE PUSH1 0x5 PUSH1 0x40 PUSH1 0x0 KECCAK256 ADD DUP1 SLOAD PUSH1 0xFF DUP2 AND PUSH2 0x1C44 JUMPI PUSH1 0xFF NOT AND PUSH1 0x1 OR SWAP1 SSTORE STOP JUMPDEST PUSH1 0x40 MLOAD PUSH3 0x461BCD PUSH1 0xE5 SHL DUP2 MSTORE PUSH1 0x20 PUSH1 0x4 DUP3 ADD MSTORE PUSH1 0x1E PUSH1 0x24 DUP3 ADD MSTORE PUSH32 0x467265656C616E63657220697320616C72656164792076657269666965640000 PUSH1 0x44 DUP3 ADD MSTORE PUSH1 0x64 SWAP1 REVERT JUMPDEST CALLVALUE PUSH2 0x648 JUMPI PUSH1 0xA0 CALLDATASIZE PUSH1 0x3 NOT ADD SLT PUSH2 0x648 JUMPI PUSH1 0x4 CALLDATALOAD PUSH1 0x1 PUSH1 0x1 PUSH1 0x40 SHL SUB DUP2 GT PUSH2 0x648 JUMPI PUSH2 0x1CB9 SWAP1 CALLDATASIZE SWAP1 PUSH1 0x4 ADD PUSH2 0x2676 JUMP JUMPDEST PUSH1 0x24 CALLDATALOAD PUSH1 0x1 PUSH1 0x1 PUSH1 0x40 SHL SUB DUP2 GT PUSH2 0x648 JUMPI PUSH2 0x1CD8 SWAP1 CALLDATASIZE SWAP1 PUSH1 0x4 ADD PUSH2 0x2676 JUMP JUMPDEST PUSH1 0x44 CALLDATALOAD PUSH1 0x1 PUSH1 0x1 PUSH1 0x40 SHL SUB DUP2 GT PUSH2 0x648 JUMPI PUSH2 0x1CF7 SWAP1 CALLDATASIZE SWAP1 PUSH1 0x4 ADD PUSH2 0x26E3 JUMP JUMPDEST PUSH1 0x64 CALLDATALOAD PUSH1 0x1 PUSH1 0x1 PUSH1 0x40 SHL SUB DUP2 GT PUSH2 0x648 JUMPI PUSH2 0x1D16 SWAP1 CALLDATASIZE SWAP1 PUSH1 0x4 ADD PUSH2 0x26E3 JUMP JUMPDEST SWAP2 PUSH1 0x84 CALLDATALOAD PUSH1 0x1 PUSH1 0x1 PUSH1 0x40 SHL SUB DUP2 GT PUSH2 0x648 JUMPI PUSH2 0x1D36 SWAP1 CALLDATASIZE SWAP1 PUSH1 0x4 ADD PUSH2 0x26E3 JUMP JUMPDEST PUSH1 0x40 MLOAD SWAP5 PUSH2 0x1D43 DUP7 PUSH2 0x251F JUMP JUMPDEST DUP6 MSTORE PUSH1 0x20 DUP6 ADD SWAP4 CALLER DUP6 MSTORE PUSH1 0x40 DUP7 ADD SWAP3 DUP4 MSTORE PUSH1 0x60 DUP7 ADD SWAP4 DUP5 MSTORE PUSH1 0x80 DUP7 ADD MSTORE PUSH1 0x0 PUSH1 0xA0 DUP7 ADD MSTORE PUSH1 0xC0 DUP6 ADD MSTORE CALLER PUSH1 0x0 MSTORE PUSH1 0x0 PUSH1 0x20 MSTORE PUSH1 0x40 PUSH1 0x0 KECCAK256 SWAP3 DUP5 MLOAD DUP1 MLOAD SWAP1 PUSH1 0x1 PUSH1 0x1 PUSH1 0x40 SHL SUB DUP3 GT PUSH2 0x3D3 JUMPI PUSH2 0x1D9C DUP3 PUSH2 0x40A DUP9 SLOAD PUSH2 0x24E5 JUMP JUMPDEST PUSH1 0x20 SWAP1 PUSH1 0x1F DUP4 GT PUSH1 0x1 EQ PUSH2 0x23C3 JUMPI PUSH2 0x1DCC SWAP3 SWAP2 PUSH1 0x0 SWAP2 DUP4 PUSH2 0x1A82 JUMPI POP POP DUP2 PUSH1 0x1 SHL SWAP2 PUSH1 0x0 NOT SWAP1 PUSH1 0x3 SHL SHR NOT AND OR SWAP1 JUMP JUMPDEST DUP5 SSTORE JUMPDEST MLOAD PUSH1 0x1 DUP5 ADD DUP1 SLOAD PUSH1 0x1 PUSH1 0x1 PUSH1 0xA0 SHL SUB NOT AND PUSH1 0x1 PUSH1 0x1 PUSH1 0xA0 SHL SUB SWAP3 SWAP1 SWAP3 AND SWAP2 SWAP1 SWAP2 OR SWAP1 SSTORE MLOAD DUP1 MLOAD PUSH1 0x2 DUP5 ADD SWAP2 PUSH1 0x1 PUSH1 0x1 PUSH1 0x40 SHL SUB DUP3 GT PUSH2 0x3D3 JUMPI PUSH2 0x1E16 DUP3 PUSH2 0x1DC DUP6 SLOAD PUSH2 0x24E5 JUMP JUMPDEST PUSH1 0x20 SWAP1 PUSH1 0x1F DUP4 GT PUSH1 0x1 EQ PUSH2 0x235B JUMPI PUSH2 0x1E46 SWAP3 SWAP2 PUSH1 0x0 SWAP2 DUP4 PUSH2 0x14CB JUMPI POP POP DUP2 PUSH1 0x1 SHL SWAP2 PUSH1 0x0 NOT SWAP1 PUSH1 0x3 SHL SHR NOT AND OR SWAP1 JUMP JUMPDEST SWAP1 SSTORE JUMPDEST MLOAD DUP1 MLOAD SWAP1 PUSH1 0x1 PUSH1 0x40 SHL DUP3 GT PUSH2 0x3D3 JUMPI PUSH1 0x3 DUP4 ADD SLOAD DUP3 PUSH1 0x3 DUP6 ADD SSTORE DUP1 DUP4 LT PUSH2 0x22E3 JUMPI JUMPDEST POP PUSH1 0x20 ADD SWAP1 PUSH1 0x3 DUP4 ADD PUSH1 0x0 MSTORE PUSH1 0x20 PUSH1 0x0 KECCAK256 SWAP2 PUSH1 0x0 SWAP1 JUMPDEST DUP3 DUP3 LT PUSH2 0x220B JUMPI DUP6 DUP6 PUSH1 0x80 DUP3 ADD MLOAD DUP1 MLOAD SWAP1 PUSH1 0x1 PUSH1 0x40 SHL DUP3 GT PUSH2 0x3D3 JUMPI PUSH1 0x4 DUP4 ADD SLOAD DUP3 PUSH1 0x4 DUP6 ADD SSTORE DUP1 DUP4 LT PUSH2 0x2193 JUMPI JUMPDEST POP PUSH1 0x20 ADD SWAP1 PUSH1 0x4 DUP4 ADD PUSH1 0x0 MSTORE PUSH1 0x20 PUSH1 0x0 KECCAK256 SWAP2 PUSH1 0x0 SWAP1 JUMPDEST DUP3 DUP3 LT PUSH2 0x20B0 JUMPI DUP6 DUP6 PUSH1 0xC0 PUSH1 0x6 PUSH1 0x5 SWAP3 PUSH2 0x1EF5 PUSH1 0xA0 DUP7 ADD MLOAD ISZERO ISZERO PUSH1 0x5 DUP4 ADD SWAP1 PUSH1 0xFF DUP1 NOT DUP4 SLOAD AND SWAP2 ISZERO ISZERO AND OR SWAP1 SSTORE JUMP JUMPDEST ADD SWAP3 ADD MLOAD DUP1 MLOAD SWAP2 PUSH1 0x1 PUSH1 0x40 SHL DUP4 GT PUSH2 0x3D3 JUMPI DUP4 SLOAD SWAP1 DUP4 DUP6 SSTORE DUP2 DUP5 LT PUSH2 0x203D JUMPI JUMPDEST POP POP PUSH1 0x20 ADD SWAP2 PUSH1 0x0 MSTORE PUSH1 0x20 PUSH1 0x0 KECCAK256 SWAP2 PUSH1 0x0 SWAP1 JUMPDEST DUP3 DUP3 LT PUSH2 0x1F5A JUMPI PUSH1 0x3 SLOAD PUSH1 0x1 PUSH1 0x1 PUSH1 0x40 SHL SUB PUSH2 0x1F45 DUP2 DUP4 AND PUSH2 0x28AE JUMP JUMPDEST PUSH8 0xFFFFFFFFFFFFFFFF NOT SWAP1 SWAP3 AND SWAP2 AND OR PUSH1 0x3 SSTORE STOP JUMPDEST DUP1 MLOAD DUP1 MLOAD SWAP1 PUSH1 0x1 PUSH1 0x1 PUSH1 0x40 SHL SUB DUP3 GT PUSH2 0x3D3 JUMPI PUSH2 0x1F7B DUP3 PUSH2 0x40A DUP9 SLOAD PUSH2 0x24E5 JUMP JUMPDEST PUSH1 0x20 SWAP1 PUSH1 0x1F DUP4 GT PUSH1 0x1 EQ PUSH2 0x1FCD JUMPI SWAP3 PUSH2 0x1FB3 DUP4 PUSH1 0x1 SWAP6 SWAP5 PUSH1 0x20 SWAP5 DUP8 SWAP7 PUSH1 0x0 SWAP3 PUSH2 0x1FC2 JUMPI POP POP DUP2 PUSH1 0x1 SHL SWAP2 PUSH1 0x0 NOT SWAP1 PUSH1 0x3 SHL SHR NOT AND OR SWAP1 JUMP JUMPDEST DUP8 SSTORE JUMPDEST ADD SWAP5 ADD SWAP2 ADD SWAP1 SWAP3 PUSH2 0x1F28 JUMP JUMPDEST ADD MLOAD SWAP1 POP DUP11 DUP1 PUSH2 0x1FE JUMP JUMPDEST SWAP1 DUP7 PUSH1 0x0 MSTORE PUSH1 0x20 PUSH1 0x0 KECCAK256 SWAP2 PUSH1 0x0 JUMPDEST PUSH1 0x1F NOT DUP6 AND DUP2 LT PUSH2 0x2025 JUMPI POP DUP4 PUSH1 0x20 SWAP4 PUSH1 0x1 SWAP7 SWAP4 DUP8 SWAP7 SWAP4 DUP8 SWAP5 PUSH1 0x1F NOT DUP2 AND LT PUSH2 0x200C JUMPI JUMPDEST POP POP POP DUP2 SHL ADD DUP8 SSTORE PUSH2 0x1FB6 JUMP JUMPDEST ADD MLOAD PUSH1 0x0 NOT PUSH1 0xF8 DUP5 PUSH1 0x3 SHL AND SHR NOT AND SWAP1 SSTORE DUP10 DUP1 DUP1 PUSH2 0x1FFF JUMP JUMPDEST SWAP2 SWAP3 PUSH1 0x20 PUSH1 0x1 DUP2 SWAP3 DUP7 DUP6 ADD MLOAD DUP2 SSTORE ADD SWAP5 ADD SWAP3 ADD PUSH2 0x1FDB JUMP JUMPDEST DUP5 PUSH1 0x0 MSTORE DUP4 PUSH1 0x20 PUSH1 0x0 KECCAK256 SWAP3 DUP4 ADD SWAP3 ADD JUMPDEST DUP3 DUP2 LT PUSH2 0x205A JUMPI POP PUSH2 0x1F15 JUMP JUMPDEST DUP1 PUSH2 0x2067 PUSH1 0x1 SWAP3 SLOAD PUSH2 0x24E5 JUMP JUMPDEST DUP1 PUSH2 0x2074 JUMPI JUMPDEST POP ADD PUSH2 0x204D JUMP JUMPDEST PUSH1 0x1F DUP2 GT DUP4 EQ PUSH2 0x208A JUMPI POP PUSH1 0x0 DUP2 SSTORE JUMPDEST DUP8 PUSH2 0x206D JUMP JUMPDEST PUSH1 0x0 SWAP1 DUP3 DUP3 MSTORE PUSH2 0x20A7 PUSH1 0x1F PUSH1 0x20 DUP5 KECCAK256 SWAP3 ADD DUP7 SHR DUP3 ADD DUP6 DUP4 ADD PUSH2 0x282A JUMP JUMPDEST DUP2 DUP4 SSTORE SSTORE PUSH2 0x2084 JUMP JUMPDEST DUP1 MLOAD DUP1 MLOAD SWAP1 PUSH1 0x1 PUSH1 0x1 PUSH1 0x40 SHL SUB DUP3 GT PUSH2 0x3D3 JUMPI PUSH2 0x20D1 DUP3 PUSH2 0x40A DUP9 SLOAD PUSH2 0x24E5 JUMP JUMPDEST PUSH1 0x20 SWAP1 PUSH1 0x1F DUP4 GT PUSH1 0x1 EQ PUSH2 0x2123 JUMPI SWAP3 PUSH2 0x2109 DUP4 PUSH1 0x1 SWAP6 SWAP5 PUSH1 0x20 SWAP5 DUP8 SWAP7 PUSH1 0x0 SWAP3 PUSH2 0x2118 JUMPI POP POP DUP2 PUSH1 0x1 SHL SWAP2 PUSH1 0x0 NOT SWAP1 PUSH1 0x3 SHL SHR NOT AND OR SWAP1 JUMP JUMPDEST DUP8 SSTORE JUMPDEST ADD SWAP5 ADD SWAP2 ADD SWAP1 SWAP3 PUSH2 0x1EC6 JUMP JUMPDEST ADD MLOAD SWAP1 POP DUP13 DUP1 PUSH2 0x1FE JUMP JUMPDEST SWAP1 DUP7 PUSH1 0x0 MSTORE PUSH1 0x20 PUSH1 0x0 KECCAK256 SWAP2 PUSH1 0x0 JUMPDEST PUSH1 0x1F NOT DUP6 AND DUP2 LT PUSH2 0x217B JUMPI POP DUP4 PUSH1 0x20 SWAP4 PUSH1 0x1 SWAP7 SWAP4 DUP8 SWAP7 SWAP4 DUP8 SWAP5 PUSH1 0x1F NOT DUP2 AND LT PUSH2 0x2162 JUMPI JUMPDEST POP POP POP DUP2 SHL ADD DUP8 SSTORE PUSH2 0x210C JUMP JUMPDEST ADD MLOAD PUSH1 0x0 NOT PUSH1 0xF8 DUP5 PUSH1 0x3 SHL AND SHR NOT AND SWAP1 SSTORE DUP12 DUP1 DUP1 PUSH2 0x2155 JUMP JUMPDEST SWAP2 SWAP3 PUSH1 0x20 PUSH1 0x1 DUP2 SWAP3 DUP7 DUP6 ADD MLOAD DUP2 SSTORE ADD SWAP5 ADD SWAP3 ADD PUSH2 0x2131 JUMP JUMPDEST PUSH1 0x4 DUP5 ADD PUSH1 0x0 MSTORE PUSH1 0x20 PUSH1 0x0 KECCAK256 SWAP1 DUP4 DUP3 ADD JUMPDEST DUP2 DUP4 ADD DUP2 LT PUSH2 0x21B4 JUMPI POP POP PUSH2 0x1EB0 JUMP JUMPDEST DUP1 PUSH2 0x21C1 PUSH1 0x1 SWAP3 SLOAD PUSH2 0x24E5 JUMP JUMPDEST DUP1 PUSH2 0x21CE JUMPI JUMPDEST POP ADD PUSH2 0x21A4 JUMP JUMPDEST PUSH1 0x1F DUP2 GT DUP4 EQ PUSH2 0x21E4 JUMPI POP PUSH1 0x0 DUP2 SSTORE JUMPDEST DUP9 PUSH2 0x21C7 JUMP JUMPDEST PUSH1 0x0 SWAP1 DUP3 DUP3 MSTORE PUSH2 0x2202 PUSH1 0x1F PUSH1 0x20 DUP5 KECCAK256 SWAP3 ADD PUSH1 0x5 SHR DUP3 ADD DUP6 DUP4 ADD PUSH2 0x282A JUMP JUMPDEST DUP2 DUP4 SSTORE SSTORE PUSH2 0x21DE JUMP JUMPDEST DUP1 MLOAD DUP1 MLOAD SWAP1 PUSH1 0x1 PUSH1 0x1 PUSH1 0x40 SHL SUB DUP3 GT PUSH2 0x3D3 JUMPI PUSH2 0x222C DUP3 PUSH2 0x40A DUP9 SLOAD PUSH2 0x24E5 JUMP JUMPDEST PUSH1 0x20 SWAP1 PUSH1 0x1F DUP4 GT PUSH1 0x1 EQ PUSH2 0x2273 JUMPI SWAP3 PUSH2 0x2264 DUP4 PUSH1 0x1 SWAP6 SWAP5 PUSH1 0x20 SWAP5 DUP8 SWAP7 PUSH1 0x0 SWAP3 PUSH2 0x2118 JUMPI POP POP DUP2 PUSH1 0x1 SHL SWAP2 PUSH1 0x0 NOT SWAP1 PUSH1 0x3 SHL SHR NOT AND OR SWAP1 JUMP JUMPDEST DUP8 SSTORE JUMPDEST ADD SWAP5 ADD SWAP2 ADD SWAP1 SWAP3 PUSH2 0x1E81 JUMP JUMPDEST SWAP1 DUP7 PUSH1 0x0 MSTORE PUSH1 0x20 PUSH1 0x0 KECCAK256 SWAP2 PUSH1 0x0 JUMPDEST PUSH1 0x1F NOT DUP6 AND DUP2 LT PUSH2 0x22CB JUMPI POP DUP4 PUSH1 0x20 SWAP4 PUSH1 0x1 SWAP7 SWAP4 DUP8 SWAP7 SWAP4 DUP8 SWAP5 PUSH1 0x1F NOT DUP2 AND LT PUSH2 0x22B2 JUMPI JUMPDEST POP POP POP DUP2 SHL ADD DUP8 SSTORE PUSH2 0x2267 JUMP JUMPDEST ADD MLOAD PUSH1 0x0 NOT PUSH1 0xF8 DUP5 PUSH1 0x3 SHL AND SHR NOT AND SWAP1 SSTORE DUP12 DUP1 DUP1 PUSH2 0x22A5 JUMP JUMPDEST SWAP2 SWAP3 PUSH1 0x20 PUSH1 0x1 DUP2 SWAP3 DUP7 DUP6 ADD MLOAD DUP2 SSTORE ADD SWAP5 ADD SWAP3 ADD PUSH2 0x2281 JUMP JUMPDEST PUSH1 0x3 DUP5 ADD PUSH1 0x0 MSTORE PUSH1 0x20 PUSH1 0x0 KECCAK256 SWAP1 DUP4 DUP3 ADD JUMPDEST DUP2 DUP4 ADD DUP2 LT PUSH2 0x2304 JUMPI POP POP PUSH2 0x1E6B JUMP JUMPDEST DUP1 PUSH2 0x2311 PUSH1 0x1 SWAP3 SLOAD PUSH2 0x24E5 JUMP JUMPDEST DUP1 PUSH2 0x231E JUMPI JUMPDEST POP ADD PUSH2 0x22F4 JUMP JUMPDEST PUSH1 0x1F DUP2 GT DUP4 EQ PUSH2 0x2334 JUMPI POP PUSH1 0x0 DUP2 SSTORE JUMPDEST DUP9 PUSH2 0x2317 JUMP JUMPDEST PUSH1 0x0 SWAP1 DUP3 DUP3 MSTORE PUSH2 0x2352 PUSH1 0x1F PUSH1 0x20 DUP5 KECCAK256 SWAP3 ADD PUSH1 0x5 SHR DUP3 ADD DUP6 DUP4 ADD PUSH2 0x282A JUMP JUMPDEST DUP2 DUP4 SSTORE SSTORE PUSH2 0x232E JUMP JUMPDEST SWAP1 PUSH1 0x1F NOT DUP4 AND SWAP2 DUP5 PUSH1 0x0 MSTORE PUSH1 0x20 PUSH1 0x0 KECCAK256 SWAP3 PUSH1 0x0 JUMPDEST DUP2 DUP2 LT PUSH2 0x23AB JUMPI POP SWAP1 DUP5 PUSH1 0x1 SWAP6 SWAP5 SWAP4 SWAP3 LT PUSH2 0x2392 JUMPI JUMPDEST POP POP POP DUP2 SHL ADD SWAP1 SSTORE PUSH2 0x1E49 JUMP JUMPDEST ADD MLOAD PUSH1 0x0 NOT PUSH1 0xF8 DUP5 PUSH1 0x3 SHL AND SHR NOT AND SWAP1 SSTORE DUP7 DUP1 DUP1 PUSH2 0x2385 JUMP JUMPDEST SWAP3 SWAP4 PUSH1 0x20 PUSH1 0x1 DUP2 SWAP3 DUP8 DUP7 ADD MLOAD DUP2 SSTORE ADD SWAP6 ADD SWAP4 ADD PUSH2 0x236F JUMP JUMPDEST SWAP1 PUSH1 0x1F NOT DUP4 AND SWAP2 DUP8 PUSH1 0x0 MSTORE PUSH1 0x20 PUSH1 0x0 KECCAK256 SWAP3 PUSH1 0x0 JUMPDEST DUP2 DUP2 LT PUSH2 0x2413 JUMPI POP SWAP1 DUP5 PUSH1 0x1 SWAP6 SWAP5 SWAP4 SWAP3 LT PUSH2 0x23FA JUMPI JUMPDEST POP POP POP DUP2 SHL ADD DUP5 SSTORE PUSH2 0x1DCF JUMP JUMPDEST ADD MLOAD PUSH1 0x0 NOT PUSH1 0xF8 DUP5 PUSH1 0x3 SHL AND SHR NOT AND SWAP1 SSTORE DUP8 DUP1 DUP1 PUSH2 0x23ED JUMP JUMPDEST SWAP3 SWAP4 PUSH1 0x20 PUSH1 0x1 DUP2 SWAP3 DUP8 DUP7 ADD MLOAD DUP2 SSTORE ADD SWAP6 ADD SWAP4 ADD PUSH2 0x23D7 JUMP JUMPDEST CALLVALUE PUSH2 0x648 JUMPI PUSH1 0x20 CALLDATASIZE PUSH1 0x3 NOT ADD SLT PUSH2 0x648 JUMPI PUSH2 0x249A PUSH1 0x1 PUSH1 0x1 PUSH1 0xA0 SHL SUB DUP1 PUSH2 0x2450 PUSH2 0x24B9 JUMP JUMPDEST AND PUSH1 0x0 MSTORE PUSH1 0x0 PUSH1 0x20 MSTORE PUSH1 0x40 PUSH1 0x0 KECCAK256 PUSH2 0x24AD PUSH2 0x246A DUP3 PUSH2 0x2591 JUMP JUMPDEST SWAP3 PUSH1 0x1 DUP4 ADD SLOAD AND PUSH1 0xFF PUSH1 0x5 PUSH2 0x2481 PUSH1 0x2 DUP7 ADD PUSH2 0x2591 JUMP JUMPDEST SWAP5 ADD SLOAD AND SWAP3 PUSH1 0x40 MLOAD SWAP6 DUP7 SWAP6 PUSH1 0x80 DUP8 MSTORE PUSH1 0x80 DUP8 ADD SWAP1 PUSH2 0x2636 JUMP JUMPDEST SWAP2 PUSH1 0x20 DUP7 ADD MSTORE DUP5 DUP3 SUB PUSH1 0x40 DUP7 ADD MSTORE PUSH2 0x2636 JUMP JUMPDEST SWAP1 ISZERO ISZERO PUSH1 0x60 DUP4 ADD MSTORE SUB SWAP1 RETURN JUMPDEST PUSH1 0x4 CALLDATALOAD SWAP1 PUSH1 0x1 PUSH1 0x1 PUSH1 0xA0 SHL SUB DUP3 AND DUP3 SUB PUSH2 0x648 JUMPI JUMP JUMPDEST PUSH1 0x24 CALLDATALOAD SWAP1 PUSH1 0x1 PUSH1 0x1 PUSH1 0xA0 SHL SUB DUP3 AND DUP3 SUB PUSH2 0x648 JUMPI JUMP JUMPDEST SWAP1 PUSH1 0x1 DUP3 DUP2 SHR SWAP3 AND DUP1 ISZERO PUSH2 0x2515 JUMPI JUMPDEST PUSH1 0x20 DUP4 LT EQ PUSH2 0x24FF JUMPI JUMP JUMPDEST PUSH4 0x4E487B71 PUSH1 0xE0 SHL PUSH1 0x0 MSTORE PUSH1 0x22 PUSH1 0x4 MSTORE PUSH1 0x24 PUSH1 0x0 REVERT JUMPDEST SWAP2 PUSH1 0x7F AND SWAP2 PUSH2 0x24F4 JUMP JUMPDEST PUSH1 0xE0 DUP2 ADD SWAP1 DUP2 LT PUSH1 0x1 PUSH1 0x1 PUSH1 0x40 SHL SUB DUP3 GT OR PUSH2 0x3D3 JUMPI PUSH1 0x40 MSTORE JUMP JUMPDEST PUSH1 0x80 DUP2 ADD SWAP1 DUP2 LT PUSH1 0x1 PUSH1 0x1 PUSH1 0x40 SHL SUB DUP3 GT OR PUSH2 0x3D3 JUMPI PUSH1 0x40 MSTORE JUMP JUMPDEST PUSH1 0x40 DUP2 ADD SWAP1 DUP2 LT PUSH1 0x1 PUSH1 0x1 PUSH1 0x40 SHL SUB DUP3 GT OR PUSH2 0x3D3 JUMPI PUSH1 0x40 MSTORE JUMP JUMPDEST SWAP1 PUSH1 0x1F DUP1 NOT SWAP2 ADD AND DUP2 ADD SWAP1 DUP2 LT PUSH1 0x1 PUSH1 0x1 PUSH1 0x40 SHL SUB DUP3 GT OR PUSH2 0x3D3 JUMPI PUSH1 0x40 MSTORE JUMP JUMPDEST SWAP1 PUSH1 0x40 MLOAD SWAP2 DUP3 PUSH1 0x0 DUP3 SLOAD PUSH2 0x25A4 DUP2 PUSH2 0x24E5 JUMP JUMPDEST SWAP1 DUP2 DUP5 MSTORE PUSH1 0x20 SWAP5 PUSH1 0x1 SWAP2 PUSH1 0x1 DUP2 AND SWAP1 DUP2 PUSH1 0x0 EQ PUSH2 0x2614 JUMPI POP PUSH1 0x1 EQ PUSH2 0x25D5 JUMPI JUMPDEST POP POP POP PUSH2 0x25D3 SWAP3 POP SUB DUP4 PUSH2 0x2570 JUMP JUMPDEST JUMP JUMPDEST PUSH1 0x0 SWAP1 DUP2 MSTORE DUP6 DUP2 KECCAK256 SWAP6 SWAP4 POP SWAP2 SWAP1 JUMPDEST DUP2 DUP4 LT PUSH2 0x25FC JUMPI POP POP PUSH2 0x25D3 SWAP4 POP DUP3 ADD ADD CODESIZE DUP1 DUP1 PUSH2 0x25C4 JUMP JUMPDEST DUP6 SLOAD DUP9 DUP5 ADD DUP6 ADD MSTORE SWAP5 DUP6 ADD SWAP5 DUP8 SWAP5 POP SWAP2 DUP4 ADD SWAP2 PUSH2 0x25E3 JUMP JUMPDEST SWAP3 POP POP POP PUSH2 0x25D3 SWAP5 SWAP3 POP PUSH1 0xFF NOT AND DUP3 DUP5 ADD MSTORE ISZERO ISZERO PUSH1 0x5 SHL DUP3 ADD ADD CODESIZE DUP1 DUP1 PUSH2 0x25C4 JUMP JUMPDEST SWAP2 SWAP1 DUP3 MLOAD SWAP3 DUP4 DUP3 MSTORE PUSH1 0x0 JUMPDEST DUP5 DUP2 LT PUSH2 0x2662 JUMPI POP POP DUP3 PUSH1 0x0 PUSH1 0x20 DUP1 SWAP5 SWAP6 DUP5 ADD ADD MSTORE PUSH1 0x1F DUP1 NOT SWAP2 ADD AND ADD ADD SWAP1 JUMP JUMPDEST PUSH1 0x20 DUP2 DUP4 ADD DUP2 ADD MLOAD DUP5 DUP4 ADD DUP3 ADD MSTORE ADD PUSH2 0x2641 JUMP JUMPDEST DUP2 PUSH1 0x1F DUP3 ADD SLT ISZERO PUSH2 0x648 JUMPI DUP1 CALLDATALOAD SWAP1 PUSH1 0x1 PUSH1 0x1 PUSH1 0x40 SHL SUB DUP3 GT PUSH2 0x3D3 JUMPI PUSH1 0x40 MLOAD SWAP3 PUSH2 0x26AA PUSH1 0x1F DUP5 ADD PUSH1 0x1F NOT AND PUSH1 0x20 ADD DUP6 PUSH2 0x2570 JUMP JUMPDEST DUP3 DUP5 MSTORE PUSH1 0x20 DUP4 DUP4 ADD ADD GT PUSH2 0x648 JUMPI DUP2 PUSH1 0x0 SWAP3 PUSH1 0x20 DUP1 SWAP4 ADD DUP4 DUP7 ADD CALLDATACOPY DUP4 ADD ADD MSTORE SWAP1 JUMP JUMPDEST PUSH1 0x1 PUSH1 0x1 PUSH1 0x40 SHL SUB DUP2 GT PUSH2 0x3D3 JUMPI PUSH1 0x5 SHL PUSH1 0x20 ADD SWAP1 JUMP JUMPDEST DUP2 PUSH1 0x1F DUP3 ADD SLT ISZERO PUSH2 0x648 JUMPI DUP1 CALLDATALOAD SWAP2 PUSH1 0x20 SWAP2 PUSH2 0x26FD DUP5 PUSH2 0x26CC JUMP JUMPDEST SWAP4 PUSH2 0x270B PUSH1 0x40 MLOAD SWAP6 DUP7 PUSH2 0x2570 JUMP JUMPDEST DUP1 DUP6 MSTORE DUP4 DUP1 DUP7 ADD SWAP2 PUSH1 0x5 SHL DUP4 ADD ADD SWAP3 DUP1 DUP5 GT PUSH2 0x648 JUMPI DUP5 DUP4 ADD SWAP2 JUMPDEST DUP5 DUP4 LT PUSH2 0x2736 JUMPI POP POP POP POP POP POP SWAP1 JUMP JUMPDEST DUP3 CALLDATALOAD PUSH1 0x1 PUSH1 0x1 PUSH1 0x40 SHL SUB DUP2 GT PUSH2 0x648 JUMPI DUP7 SWAP2 PUSH2 0x2757 DUP5 DUP5 DUP1 SWAP5 DUP10 ADD ADD PUSH2 0x2676 JUMP JUMPDEST DUP2 MSTORE ADD SWAP3 ADD SWAP2 PUSH2 0x2726 JUMP JUMPDEST PUSH1 0x4 CALLDATALOAD SWAP1 PUSH1 0x1 PUSH1 0x1 PUSH1 0x40 SHL SUB DUP3 AND DUP3 SUB PUSH2 0x648 JUMPI JUMP JUMPDEST SWAP1 DUP2 SLOAD PUSH2 0x2784 DUP2 PUSH2 0x26CC JUMP JUMPDEST SWAP3 PUSH2 0x2792 PUSH1 0x40 MLOAD SWAP5 DUP6 PUSH2 0x2570 JUMP JUMPDEST DUP2 DUP5 MSTORE PUSH1 0x0 SWAP1 DUP2 MSTORE PUSH1 0x20 DUP1 DUP3 KECCAK256 DUP2 DUP7 ADD JUMPDEST DUP5 DUP5 LT PUSH2 0x27B1 JUMPI POP POP POP POP POP JUMP JUMPDEST PUSH1 0x1 DUP4 DUP2 SWAP3 PUSH2 0x27BF DUP6 PUSH2 0x2591 JUMP JUMPDEST DUP2 MSTORE ADD SWAP3 ADD SWAP4 ADD SWAP3 SWAP1 PUSH2 0x27A3 JUMP JUMPDEST SWAP1 DUP1 DUP3 MLOAD SWAP1 DUP2 DUP2 MSTORE PUSH1 0x20 DUP1 SWAP2 ADD SWAP3 PUSH1 0x20 DUP1 DUP5 PUSH1 0x5 SHL DUP4 ADD ADD SWAP6 ADD SWAP4 PUSH1 0x0 SWAP2 JUMPDEST DUP5 DUP4 LT PUSH2 0x27FC JUMPI POP POP POP POP POP POP SWAP1 JUMP JUMPDEST SWAP1 SWAP2 SWAP3 SWAP4 SWAP5 SWAP6 DUP5 DUP1 PUSH2 0x281A PUSH1 0x1 SWAP4 PUSH1 0x1F NOT DUP7 DUP3 SUB ADD DUP8 MSTORE DUP11 MLOAD PUSH2 0x2636 JUMP JUMPDEST SWAP9 ADD SWAP4 ADD SWAP4 ADD SWAP2 SWAP5 SWAP4 SWAP3 SWAP1 PUSH2 0x27EC JUMP JUMPDEST DUP2 DUP2 LT PUSH2 0x2835 JUMPI POP POP JUMP JUMPDEST PUSH1 0x0 DUP2 SSTORE PUSH1 0x1 ADD PUSH2 0x282A JUMP JUMPDEST SWAP1 PUSH1 0x1F DUP2 GT PUSH2 0x284E JUMPI POP POP JUMP JUMPDEST PUSH2 0x25D3 SWAP2 PUSH1 0x0 MSTORE PUSH1 0x1F PUSH1 0x20 PUSH1 0x0 KECCAK256 SWAP2 ADD PUSH1 0x5 SHR DUP2 ADD SWAP1 PUSH2 0x282A JUMP JUMPDEST SWAP2 SWAP1 PUSH1 0x1F DUP2 GT PUSH2 0x2878 JUMPI POP POP POP JUMP JUMPDEST PUSH2 0x25D3 SWAP3 PUSH1 0x0 MSTORE PUSH1 0x20 PUSH1 0x0 KECCAK256 SWAP1 PUSH1 0x20 PUSH1 0x1F DUP5 ADD PUSH1 0x5 SHR DUP4 ADD SWAP4 LT PUSH2 0x28A4 JUMPI JUMPDEST PUSH1 0x1F ADD PUSH1 0x5 SHR ADD SWAP1 PUSH2 0x282A JUMP JUMPDEST SWAP1 SWAP2 POP DUP2 SWAP1 PUSH2 0x2897 JUMP JUMPDEST PUSH1 0x1 PUSH1 0x1 PUSH1 0x40 SHL SUB DUP1 SWAP2 AND SWAP1 DUP2 EQ PUSH2 0x28C6 JUMPI PUSH1 0x1 ADD SWAP1 JUMP JUMPDEST PUSH4 0x4E487B71 PUSH1 0xE0 SHL PUSH1 0x0 MSTORE PUSH1 0x11 PUSH1 0x4 MSTORE PUSH1 0x24 PUSH1 0x0 REVERT JUMPDEST PUSH1 0x0 SWAP3 SWAP2 DUP2 SLOAD PUSH2 0x28EB DUP2 PUSH2 0x24E5 JUMP JUMPDEST SWAP3 PUSH1 0x1 SWAP2 DUP1 DUP4 AND SWAP1 DUP2 ISZERO PUSH2 0x2945 JUMPI POP PUSH1 0x1 EQ PUSH2 0x2908 JUMPI JUMPDEST POP POP POP POP JUMP JUMPDEST SWAP1 SWAP2 SWAP3 SWAP4 SWAP5 POP PUSH1 0x0 MSTORE PUSH1 0x20 SWAP1 PUSH1 0x20 PUSH1 0x0 KECCAK256 SWAP1 PUSH1 0x0 SWAP2 JUMPDEST DUP6 DUP4 LT PUSH2 0x2934 JUMPI POP POP POP POP ADD SWAP1 CODESIZE DUP1 DUP1 DUP1 PUSH2 0x2902 JUMP JUMPDEST DUP1 SLOAD DUP6 DUP5 ADD MSTORE SWAP2 DUP4 ADD SWAP2 DUP2 ADD PUSH2 0x291E JUMP JUMPDEST PUSH1 0xFF NOT AND DUP5 MSTORE POP POP POP DUP2 ISZERO ISZERO SWAP1 SWAP2 MUL ADD SWAP2 POP CODESIZE DUP1 DUP1 DUP1 PUSH2 0x2902 JUMP JUMPDEST ISZERO PUSH2 0x2967 JUMPI JUMP JUMPDEST PUSH1 0x40 MLOAD PUSH3 0x461BCD PUSH1 0xE5 SHL DUP2 MSTORE PUSH1 0x20 PUSH1 0x4 DUP3 ADD MSTORE PUSH1 0xF PUSH1 0x24 DUP3 ADD MSTORE PUSH15 0x23B4B39034B9903737BA1037B832B7 PUSH1 0x89 SHL PUSH1 0x44 DUP3 ADD MSTORE PUSH1 0x64 SWAP1 REVERT INVALID LOG2 PUSH5 0x6970667358 0x22 SLT KECCAK256 PUSH19 0xBF025F29C8CDA67031B787FC9C7D382C12F9E1 0xD7 0xEA PUSH4 0xC698D58B DUP16 PREVRANDAO LOG1 JUMPDEST PUSH21 0x64736F6C6343000818003300000000000000000000 "},"methodIdentifiers":{"completeGig(uint64)":"2bd70035","confirmGig(uint64)":"87af564e","createFreelancerAccount(string,string,string[],string[],string[])":"2309323c","createGig(address,address,string,string,uint256,int16,string,bool,(string,address,string,string[],string[],bool,string[]),string,bool,uint256)":"5b28618f","createGigOwnerAccount(string,address,bool,string[])":"d250354d","escrow()":"e2fdcc17","freelancers(address)":"21bd6693","gigOwners(address)":"7c1c41a7","gigs(uint64)":"845b0d7f","noOfCreatedGigs()":"956876b3","noOfFreelancers()":"df4e4130","noOfGigOwners()":"dfefb28c","placeBid(uint64,uint256)":"fd2e5a23","verifyFreelancer(address)":"2a3ce8d0"}}}}}