{
  "_format": "hh-sol-artifact-1",
  "contractName": "Decln",
  "sourceName": "contracts/Declan0.sol",
  "abi": [
    {
      "anonymous": false,
      "inputs": [
        {
          "indexed": false,
          "internalType": "uint64",
          "name": "gigId",
          "type": "uint64"
        },
        {
          "indexed": false,
          "internalType": "address",
          "name": "freelancer",
          "type": "address"
        }
      ],
      "name": "AcceptBid",
      "type": "event"
    },
    {
      "anonymous": false,
      "inputs": [
        {
          "indexed": false,
          "internalType": "uint64",
          "name": "gigId",
          "type": "uint64"
        },
        {
          "indexed": false,
          "internalType": "address",
          "name": "bidder",
          "type": "address"
        }
      ],
      "name": "BidPlaced",
      "type": "event"
    },
    {
      "anonymous": false,
      "inputs": [
        {
          "indexed": false,
          "internalType": "address",
          "name": "freelancer",
          "type": "address"
        }
      ],
      "name": "FreelancerJoined",
      "type": "event"
    },
    {
      "anonymous": false,
      "inputs": [
        {
          "indexed": false,
          "internalType": "uint64",
          "name": "gigId",
          "type": "uint64"
        }
      ],
      "name": "GigCreated",
      "type": "event"
    },
    {
      "inputs": [
        {
          "internalType": "uint64",
          "name": "gigId",
          "type": "uint64"
        },
        {
          "internalType": "uint64",
          "name": "bidAmount",
          "type": "uint64"
        },
        {
          "internalType": "address",
          "name": "freelancer",
          "type": "address"
        },
        {
          "internalType": "address",
          "name": "escrower",
          "type": "address"
        }
      ],
      "name": "acceptBid",
      "outputs": [],
      "stateMutability": "nonpayable",
      "type": "function"
    },
    {
      "inputs": [
        {
          "internalType": "uint64",
          "name": "gigId",
          "type": "uint64"
        }
      ],
      "name": "completeGig",
      "outputs": [],
      "stateMutability": "nonpayable",
      "type": "function"
    },
    {
      "inputs": [
        {
          "internalType": "uint64",
          "name": "gigId",
          "type": "uint64"
        }
      ],
      "name": "confirmGig",
      "outputs": [],
      "stateMutability": "nonpayable",
      "type": "function"
    },
    {
      "inputs": [
        {
          "internalType": "string",
          "name": "name",
          "type": "string"
        },
        {
          "internalType": "address",
          "name": "freelancerAddress",
          "type": "address"
        },
        {
          "internalType": "string",
          "name": "portfolioURL",
          "type": "string"
        },
        {
          "internalType": "string[]",
          "name": "skills",
          "type": "string[]"
        },
        {
          "internalType": "string[]",
          "name": "categories",
          "type": "string[]"
        },
        {
          "internalType": "bool",
          "name": "verified",
          "type": "bool"
        },
        {
          "internalType": "uint32",
          "name": "stars",
          "type": "uint32"
        },
        {
          "internalType": "string",
          "name": "email",
          "type": "string"
        },
        {
          "internalType": "string",
          "name": "country",
          "type": "string"
        },
        {
          "internalType": "uint32",
          "name": "jobCount",
          "type": "uint32"
        }
      ],
      "name": "createFreelancerAccount",
      "outputs": [],
      "stateMutability": "nonpayable",
      "type": "function"
    },
    {
      "inputs": [
        {
          "internalType": "address",
          "name": "owner",
          "type": "address"
        },
        {
          "internalType": "string",
          "name": "ownerEmail",
          "type": "string"
        },
        {
          "internalType": "string",
          "name": "title",
          "type": "string"
        },
        {
          "internalType": "string",
          "name": "description",
          "type": "string"
        },
        {
          "internalType": "uint64",
          "name": "gigTimeline",
          "type": "uint64"
        },
        {
          "internalType": "uint64",
          "name": "budget",
          "type": "uint64"
        }
      ],
      "name": "createGig",
      "outputs": [
        {
          "internalType": "uint64",
          "name": "",
          "type": "uint64"
        }
      ],
      "stateMutability": "nonpayable",
      "type": "function"
    },
    {
      "inputs": [
        {
          "internalType": "string",
          "name": "gigOwner",
          "type": "string"
        },
        {
          "internalType": "address",
          "name": "gigOwnerAddress",
          "type": "address"
        },
        {
          "internalType": "string",
          "name": "gigOwnerCompany",
          "type": "string"
        },
        {
          "internalType": "bool",
          "name": "isVerified",
          "type": "bool"
        },
        {
          "internalType": "uint32",
          "name": "stars",
          "type": "uint32"
        }
      ],
      "name": "createGigOwnerAccount",
      "outputs": [],
      "stateMutability": "nonpayable",
      "type": "function"
    },
    {
      "inputs": [
        {
          "internalType": "uint64",
          "name": "gigId",
          "type": "uint64"
        },
        {
          "internalType": "uint64",
          "name": "newDeadline",
          "type": "uint64"
        }
      ],
      "name": "extendDeadline",
      "outputs": [],
      "stateMutability": "nonpayable",
      "type": "function"
    },
    {
      "inputs": [
        {
          "internalType": "address",
          "name": "",
          "type": "address"
        }
      ],
      "name": "freelancers",
      "outputs": [
        {
          "internalType": "string",
          "name": "name",
          "type": "string"
        },
        {
          "internalType": "address",
          "name": "freelancerAddress",
          "type": "address"
        },
        {
          "internalType": "string",
          "name": "portfolioURL",
          "type": "string"
        },
        {
          "internalType": "bool",
          "name": "verified",
          "type": "bool"
        },
        {
          "internalType": "uint32",
          "name": "stars",
          "type": "uint32"
        },
        {
          "internalType": "string",
          "name": "email",
          "type": "string"
        },
        {
          "internalType": "string",
          "name": "country",
          "type": "string"
        },
        {
          "internalType": "uint32",
          "name": "jobCount",
          "type": "uint32"
        }
      ],
      "stateMutability": "view",
      "type": "function"
    },
    {
      "inputs": [
        {
          "internalType": "address",
          "name": "",
          "type": "address"
        }
      ],
      "name": "gigOwners",
      "outputs": [
        {
          "internalType": "string",
          "name": "gigOwner",
          "type": "string"
        },
        {
          "internalType": "address",
          "name": "gigOwnerAddress",
          "type": "address"
        },
        {
          "internalType": "string",
          "name": "gigOwnerCompany",
          "type": "string"
        },
        {
          "internalType": "bool",
          "name": "isVerified",
          "type": "bool"
        },
        {
          "internalType": "uint32",
          "name": "stars",
          "type": "uint32"
        }
      ],
      "stateMutability": "view",
      "type": "function"
    },
    {
      "inputs": [
        {
          "internalType": "uint64",
          "name": "",
          "type": "uint64"
        }
      ],
      "name": "gigs",
      "outputs": [
        {
          "internalType": "uint64",
          "name": "id",
          "type": "uint64"
        },
        {
          "internalType": "address",
          "name": "owner",
          "type": "address"
        },
        {
          "internalType": "string",
          "name": "ownerEmail",
          "type": "string"
        },
        {
          "internalType": "address",
          "name": "freelancer",
          "type": "address"
        },
        {
          "internalType": "string",
          "name": "title",
          "type": "string"
        },
        {
          "internalType": "string",
          "name": "description",
          "type": "string"
        },
        {
          "internalType": "uint64",
          "name": "gigTimeline",
          "type": "uint64"
        },
        {
          "internalType": "uint64",
          "name": "deadline",
          "type": "uint64"
        },
        {
          "internalType": "uint64",
          "name": "budget",
          "type": "uint64"
        },
        {
          "internalType": "bool",
          "name": "featureGig",
          "type": "bool"
        },
        {
          "internalType": "string",
          "name": "status",
          "type": "string"
        },
        {
          "internalType": "address",
          "name": "escrower",
          "type": "address"
        },
        {
          "internalType": "uint64",
          "name": "escrowAmount",
          "type": "uint64"
        },
        {
          "internalType": "uint64",
          "name": "warningCount",
          "type": "uint64"
        }
      ],
      "stateMutability": "view",
      "type": "function"
    },
    {
      "inputs": [],
      "name": "noOfCreatedGigs",
      "outputs": [
        {
          "internalType": "uint64",
          "name": "",
          "type": "uint64"
        }
      ],
      "stateMutability": "view",
      "type": "function"
    },
    {
      "inputs": [],
      "name": "noOfFreelancers",
      "outputs": [
        {
          "internalType": "uint64",
          "name": "",
          "type": "uint64"
        }
      ],
      "stateMutability": "view",
      "type": "function"
    },
    {
      "inputs": [],
      "name": "noOfGigOwners",
      "outputs": [
        {
          "internalType": "uint64",
          "name": "",
          "type": "uint64"
        }
      ],
      "stateMutability": "view",
      "type": "function"
    },
    {
      "inputs": [
        {
          "internalType": "uint64",
          "name": "gigId",
          "type": "uint64"
        },
        {
          "internalType": "uint64",
          "name": "bidAmount",
          "type": "uint64"
        }
      ],
      "name": "placeBid",
      "outputs": [],
      "stateMutability": "nonpayable",
      "type": "function"
    },
    {
      "inputs": [
        {
          "internalType": "uint64",
          "name": "gigId",
          "type": "uint64"
        }
      ],
      "name": "reportGig",
      "outputs": [],
      "stateMutability": "nonpayable",
      "type": "function"
    },
    {
      "inputs": [
        {
          "internalType": "address",
          "name": "freelancerAddress",
          "type": "address"
        },
        {
          "internalType": "string",
          "name": "name",
          "type": "string"
        },
        {
          "internalType": "string",
          "name": "portfolioURL",
          "type": "string"
        },
        {
          "internalType": "string[]",
          "name": "skills",
          "type": "string[]"
        },
        {
          "internalType": "string[]",
          "name": "categories",
          "type": "string[]"
        },
        {
          "internalType": "bool",
          "name": "verified",
          "type": "bool"
        },
        {
          "internalType": "uint32",
          "name": "stars",
          "type": "uint32"
        },
        {
          "internalType": "string",
          "name": "email",
          "type": "string"
        },
        {
          "internalType": "string",
          "name": "country",
          "type": "string"
        },
        {
          "internalType": "uint32",
          "name": "jobCount",
          "type": "uint32"
        }
      ],
      "name": "updateFreelancer",
      "outputs": [],
      "stateMutability": "nonpayable",
      "type": "function"
    },
    {
      "inputs": [
        {
          "internalType": "address",
          "name": "freelancerAddress",
          "type": "address"
        },
        {
          "internalType": "uint32",
          "name": "stars",
          "type": "uint32"
        }
      ],
      "name": "verifyFreelancer",
      "outputs": [],
      "stateMutability": "nonpayable",
      "type": "function"
    }
  ],
  "bytecode": "0x6080806040523461001657612c28908161001c8239f35b600080fdfe6080604052600436101561001257600080fd5b60003560e01c806321bd6693146126a65780632bd700351461263a5780634c2d72d214611e9b57806356d38cd51461187f57806361a9d1dd146117b25780637c1c41a7146117155780637cb01f6b1461161e578063810ee0f914611370578063845b0d7f1461123557806387af564e14611163578063956876b314611139578063993c4ff414610f49578063b10f50da14610ac9578063cf539fc214610a13578063df4e4130146109ec578063dfefb28c146109c25763e4928f32146100d757600080fd5b346109bd57610140806003193601126109bd576004356001600160401b0381116109bd57610109903690600401612941565b906101126127a4565b916044356001600160401b0381116109bd57610132903690600401612941565b6064356001600160401b0381116109bd576101519036906004016129ae565b906084356001600160401b0381116109bd576101719036906004016129ae565b9061017a612a2d565b90610183612a3c565b60e4356001600160401b0381116109bd576101a2903690600401612941565b92610104356001600160401b0381116109bd576101c3903690600401612941565b946101cc612a4f565b96604051998a01948a86106001600160401b038711176105ba5763ffffffff998a966040528b5260018060a01b038c1660208c015260408b015260608a01526080890152151560a08801521660c086015260e08501526101008401521661012082015260018060a01b0382166000526000602052604060002081519283516001600160401b0381116105ba5761026c8161026685546127ba565b85612b64565b6020601f821160011461095457819061029f93949596600092610516575b50508160011b916000199060031b1c19161790565b82555b6001820160018060a01b036020850151166001600160601b0360a01b82541617905560408301519283516001600160401b0381116105ba576102f4816102eb60028701546127ba565b60028701612b64565b6020601f82116001146108e5578190610326939495966000926105165750508160011b916000199060031b1c19161790565b60028401555b6060810151805190600160401b82116105ba57600385015482600387015580831061086d575b5060200190600385016000526020600020916000905b82821061079557505050506080810151805190600160401b82116105ba57600485015482600487015580831061071d575b5060200190600485016000526020600020916000905b82821061063f57505050506103fe600584016103dd60a08401511515829060ff801983541691151516179055565b60c0830151815464ffffffff00191660089190911b64ffffffff0016179055565b60e08101519283516001600160401b0381116105ba5761042e8161042560068501546127ba565b60068501612b64565b6020601f82116001146105d0578190610460939495966000926105165750508160011b916000199060031b1c19161790565b60068201555b600781016101008301518051906001600160401b0382116105ba5761048f8261026685546127ba565b602090601f8311600114610521577fca6eb03990e375d3ad2129e0a822334b9d4a405fec0002368e60b40973209b8f9694602096946104f18563ffffffff96610120966008966000926105165750508160011b916000199060031b1c19161790565b90555b019201511663ffffffff198254161790556040519060018060a01b03168152a1005b01519050388061028a565b90601f198316918460005260206000209260005b8181106105a2575094600185610120956008957fca6eb03990e375d3ad2129e0a822334b9d4a405fec0002368e60b40973209b8f9c9a9563ffffffff9960209d9b10610589575b505050811b0190556104f4565b015160001960f88460031b161c1916905538808061057c565b92936020600181928786015181550195019301610535565b634e487b7160e01b600052604160045260246000fd5b6006830160005260206000209060005b601f1984168110610627575060019394959683601f1981161061060e575b505050811b016006820155610466565b015160001960f88460031b161c191690553880806105fe565b9091602060018192858b0151815501930191016105e0565b80518051906001600160401b0382116105ba576106668261066088546127ba565b88612b64565b602090601f83116001146106ad579261069e836001959460209487966000926105165750508160011b916000199060031b1c19161790565b87555b019401910190926103af565b908660005260206000209160005b601f1985168110610705575083602093600196938796938794601f198116106106ec575b505050811b0187556106a1565b015160001960f88460031b161c191690553880806106df565b919260206001819286850151815501940192016106bb565b600486016000526020600020908382015b818301811061073e575050610399565b8061074b600192546127ba565b80610758575b500161072e565b601f8111831461076e5750600081555b38610751565b60009082825261078c601f60208420920160051c8201858301612b25565b81835555610768565b80518051906001600160401b0382116105ba576107b68261066088546127ba565b602090601f83116001146107fd57926107ee836001959460209487966000926105165750508160011b916000199060031b1c19161790565b87555b01940191019092610368565b908660005260206000209160005b601f1985168110610855575083602093600196938796938794601f1981161061083c575b505050811b0187556107f1565b015160001960f88460031b161c1916905538808061082f565b9192602060018192868501518155019401920161080b565b600386016000526020600020908382015b818301811061088e575050610352565b8061089b600192546127ba565b806108a8575b500161087e565b601f811183146108be5750600081555b386108a1565b6000908282526108dc601f60208420920160051c8201858301612b25565b818355556108b8565b6002850160005260206000209060005b601f198416811061093c575060019394959683601f19811610610923575b505050811b01600284015561032c565b015160001960f88460031b161c19169055388080610913565b9091602060018192858b0151815501930191016108f5565b8360005260206000209060005b601f19841681106109a5575060019394959683601f1981161061098c575b505050811b0182556102a2565b015160001960f88460031b161c1916905538808061097f565b9091602060018192858b015181550193019101610961565b600080fd5b346109bd5760003660031901126109bd5760206001600160401b0360035460401c16604051908152f35b346109bd5760003660031901126109bd5760206001600160401b0360035416604051908152f35b346109bd5760403660031901126109bd57610a2c61278e565b6024359063ffffffff821682036109bd576001600160a01b031660009081526020819052604090206005018054919060ff8316610a845764ffffffffff1990921660089190911b64ffffffff0016176001179055005b005b60405162461bcd60e51b815260206004820152601b60248201527f467265656c616e63657220616c726561647920766572696669656400000000006044820152606490fd5b346109bd5760c03660031901126109bd57610ae261278e565b6024356001600160401b0381116109bd57610b01903690600401612941565b906044356001600160401b0381116109bd57610b21903690600401612941565b906064356001600160401b0381116109bd57610b41903690600401612941565b92608435916001600160401b03831683036109bd576001600160401b0360a4351660a435036109bd576001600160401b0360035460801c1693846000526002602052604060002092835486600160401b600160e01b038560401b169163ffffffff60e01b16171784558051906001600160401b0382116105ba57610bd582610bcc60018801546127ba565b60018801612b64565b602090601f8311600114610ed757610c05929160009183610ddd5750508160011b916000199060031b1c19161790565b60018401555b6002830180546001600160a01b0319166001600160a01b0384161790558051906001600160401b0382116105ba57610c5382610c4a60038701546127ba565b60038701612b64565b602090601f8311600114610e6557610c83929160009183610e5a5750508160011b916000199060031b1c19161790565b60038301555b84516001600160401b0381116105ba57602095610cb682610cad60048701546127ba565b60048701612b64565b8690601f8311600114610de8579180610cea926009969594600092610ddd5750508160011b916000199060031b1c19161790565b60048301555b600582018054946001600160401b0360801b956001600160401b038760a43560801b1692169066ffffffffffffff60c81b161717905560078201610d3d610d3782546127ba565b82612b3c565b60086337b832b760e11b0190556008820180546001600160e01b0319166001600160a01b0390921691909117905501805467ffffffffffffffff191690556040518281527f1c5d8807e0cac22ea4dccaf4f55e6a3d48e129d84fca614066c90f3961f93c15908490a160035490610dbf6001600160401b038360801c16612ba9565b60801b16906001600160401b0360801b191617600355604051908152f35b01519050898061028a565b9060048501600052876000209160005b601f1985168110610e4357509183916001936009979695601f19811610610e2a575b505050811b016004830155610cf0565b015160001960f88460031b161c19169055888080610e1a565b919289600181928685015181550194019201610df8565b01519050888061028a565b9190600385016000526020600020906000935b601f1984168510610ebc576001945083601f19811610610ea3575b505050811b016003830155610c89565b015160001960f88460031b161c19169055878080610e93565b81810151835560209485019460019093019290910190610e78565b9190600186016000526020600020906000935b601f1984168510610f2e576001945083601f19811610610f15575b505050811b016001840155610c0b565b015160001960f88460031b161c19169055888080610f05565b81810151835560209485019460019093019290910190610eea565b346109bd5760803660031901126109bd57610f62612915565b610f6a61292b565b90604435906001600160a01b038083168084036109bd576064359182168092036109bd576001600160401b03808416600052600260205260406000209560078701936040516020810190610fd081610fc2848a612a63565b03601f19810183528261280f565b5190209260405193602085016205749560ec1b9586825260038152610ff4816127f4565b519020146110e1578861107c60089260069760027f23836b9fb4d80176ff731a843d23ac37ad502b4b6e282bfb3bd30c3237fca6019d01906001600160601b0360a01b82541617905561105560058401918254908082169160401c16612bd7565b67ffffffffffffffff60401b82549160401b169067ffffffffffffffff60401b1916179055565b01918254906001600160401b0360a01b9060a01b169063ffffffff60e01b16171790556110b26110ac84546127ba565b84612b3c565b019055604080516001600160401b0390921682526001600160a01b03909216602082015290819081015b0390a1005b60405162461bcd60e51b815260206004820152602a60248201527f47696720686173206120667265656c616e63657220776f726b696e67206f6e20604482015269697420616c726561647960b01b6064820152608490fd5b346109bd5760003660031901126109bd5760206001600160401b0360035460801c16604051908152f35b346109bd5760203660031901126109bd576001600160401b03611184612915565b166000526002602052600760406000200160405160208101906111ab81610fc28486612a63565b51902060405160208101906818dbdb5c1b195d195960ba1b8252600981526111d2816127f4565b519020036111f9576111e7610d3782546127ba565b600e66636f6e6669726d60c81b019055005b60405162461bcd60e51b815260206004820152601460248201527311da59c81a5cc81b9bdd0818dbdb5c1b195d195960621b6044820152606490fd5b346109bd5760203660031901126109bd576001600160401b0380611257612915565b1660009081526002602052604090208054906001600160a01b039061127e60018201612830565b9382600283015416916003810161129490612830565b6112a060048301612830565b6005830154906112b260078501612830565b92856008860154956009015416966040519a8b9a8a6101c0918d8b8216905260401c1660208d01528060408d01528b016112eb916128d5565b9060608b015289810360808b0152611302916128d5565b88810360a08a0152611313916128d5565b9084811660c0890152848160401c1660e0890152848160801c1661010089015260c01c60ff161515610120880152868103610140880152611353916128d5565b93811661016086015260a01c166101808401526101a08301520390f35b346109bd5760a03660031901126109bd576001600160401b036004358181116109bd576113a1903690600401612941565b906113aa6127a4565b6044358281116109bd576113c2903690600401612941565b91606435928315158094036109bd576084359163ffffffff938484168094036109bd576040519660a08801888110848211176105ba57604052875260209081880160018060a01b0380921680825260408a0195865260608a0198895260808a01968752600052600191828452604060002099518051908682116105ba57611454828d61144e81546127ba565b90612b64565b8590601f83116001146115bb576114839291600091836115b05750508160011b916000199060031b1c19161790565b8a555b828a019151166001600160601b0360a01b8254161790556002880193519081519384116105ba576114c1846114bb87546127ba565b87612b64565b82601f851160011461153d575050926114fc83600394610a829a94611516976000926115325750508160011b916000199060031b1c19161790565b90555b0193511515849060ff801983541691151516179055565b51825464ffffffff001916911660081b64ffffffff0016179055565b015190508b8061028a565b91601f949391941984168660005283600020936000905b82821061159957505092600395928592610a829c96611516999610611581575b505050811b0190556114ff565b015160001983881b60f8161c191690558a8080611574565b808886978294978701518155019601940190611554565b015190508d8061028a565b8592918d91601f19841692600052886000209260005b8a82821061160857505084116115ef575b505050811b018a55611486565b015160001960f88460031b161c191690558c80806115e2565b8385015186558a979095019493840193016115d1565b346109bd5760403660031901126109bd57611637612915565b61163f61292b565b6001600160401b0380921660005260026020526040600020604051602081019061167081610fc28460078701612a63565b51902060405160208101906205749560ec1b825260038152611691816127f4565b519020036116d7576116b3600992611055600584019186835460401c16612bd7565b01908154906116c3818316612ba9565b67ffffffffffffffff199092169116179055005b60405162461bcd60e51b8152602060048201526016602482015275476967206973206e6f7420696e2070726f677265737360501b6044820152606490fd5b346109bd5760203660031901126109bd576117866001600160a01b038061173a61278e565b166000526001602052604060002063ffffffff61179961175983612830565b93600184015416600361176e60028601612830565b9401549360405196879660a0885260a08801906128d5565b91602087015285820360408701526128d5565b9160ff81161515606085015260081c1660808301520390f35b346109bd576020806003193601126109bd576001600160401b036117d4612915565b166000526002815261185f60076040600020019161184260405161180d816117fe85820188612a63565b03601f1992838201815261280f565b6118276040516205749560ec1b85820152600381526127f4565b6040518061183785820188612a63565b03918201815261280f565b6818dbdb5c1b195d195960ba1b60405191820152600981526127f4565b61186c610d3782546127ba565b6010671c995c1bdc9d195960c21b019055005b346109bd5760403660031901126109bd57611898612915565b6118a061292b565b906001600160401b038116600052600260205260406000206118ff60405160208101906118d481610fc28460078801612a63565b51902060405160208101906337b832b760e11b8252600481526118f6816127f4565b51902014612ae7565b6001600160401b03600582015460801c166001600160401b03841611611e3a5733600052600060205260406000209260018060a01b0360018501541615611dfe57604051938460808101106001600160401b036080870111176105ba576080850160405261196c81612830565b8552600381015461197c81612997565b9061198a604051928361280f565b808252602082016003840160005260206000206000915b838310611de1575050505060026001600160401b0393926119c792602089015201612830565b6040860152166060840152336000526006810160205260406000209280518051906001600160401b0382116105ba57611a048261066088546127ba565b602090601f8311600114611d7957611a34929160009183611d6e5750508160011b916000199060031b1c19161790565b84555b6020810151805190600160401b82116105ba576001860154826001880155808310611cf6575b5060200190600186016000526020600020916000905b828210611c155750505050600284019360408201519485516001600160401b0381116105ba57611aad81611aa784546127ba565b84612b64565b6020601f8211600114611b7a576110dc969594936001600160401b0393611b12846060956003957fb0e59b6909e1a66a0cdb5b8c4c87129f42751664da66e6d778693230501f085c9d6000926115b05750508160011b916000199060031b1c19161790565b90555b01920151166001600160401b0319825416179055611b42611b3960078301546127ba565b60078301612b3c565b601469189a5917dc1b1858d95960b21b0160079190910155604080516001600160401b03909216825233602083015290918291820190565b601f198216978360005260206000209860005b818110611bfd5750936001847fb0e59b6909e1a66a0cdb5b8c4c87129f42751664da66e6d778693230501f085c9b6003956110dc9c9b9a99956060986001600160401b039a10611be5575b505050811b019055611b15565b015160001983881b60f8161c191690558c8080611bd8565b838301518b556001909a019960209384019301611b8d565b80518051906001600160401b0382116105ba57611c368261066088546127ba565b602090601f8311600114611c885792611c6e83600195946020948796600092611c7d5750508160011b916000199060031b1c19161790565b87555b01940191019092611a73565b015190508e8061028a565b90601f198316918760005260206000209260005b818110611cde5750936020936001969387969383889510611cc5575b505050811b018755611c71565b015160001960f88460031b161c191690558d8080611cb8565b92936020600181928786015181550195019301611c9c565b600187016000526020600020908382015b8183018110611d17575050611a5d565b80611d24600192546127ba565b80611d31575b5001611d07565b601f81118314611d475750600081555b8a611d2a565b600090828252611d65601f60208420920160051c8201858301612b25565b81835555611d41565b01519050878061028a565b90601f198316918760005260206000209260005b818110611dc95750908460019594939210611db0575b505050811b018455611a37565b015160001960f88460031b161c19169055868080611da3565b92936020600181928786015181550195019301611d8d565b600160208192611df085612830565b8152019201920191906119a1565b60405162461bcd60e51b8152602060048201526014602482015273119c99595b185b98d95c881b9bdd08199bdd5b9960621b6044820152606490fd5b60405162461bcd60e51b815260206004820152603360248201527f42696420616d6f756e74206d757374206265206c657373207468616e206f7220604482015272195c5d585b081d1bc819da59c8189d5919d95d606a1b6064820152608490fd5b346109bd576101403660031901126109bd57611eb561278e565b6024356001600160401b0381116109bd57611ed4903690600401612941565b906044356001600160401b0381116109bd57611ef4903690600401612941565b916064356001600160401b0381116109bd57611f149036906004016129ae565b6084356001600160401b0381116109bd57611f339036906004016129ae565b611f3b612a2d565b611f43612a3c565b9160e4356001600160401b0381116109bd57611f63903690600401612941565b93610104356001600160401b0381116109bd57611f84903690600401612941565b97611f8d612a4f565b9760018060a01b031660005260006020526040600020968051906001600160401b0382116105ba57611fc982611fc38b546127ba565b8b612b64565b602090601f83116001146125d257611ff99291600091836125c75750508160011b916000199060031b1c19161790565b87555b8051906001600160401b0382116105ba576120278261201e60028b01546127ba565b60028b01612b64565b602090601f8311600114612559576120579291600091836115325750508160011b916000199060031b1c19161790565b60028701555b805190600160401b82116105ba5760038701548260038901558083106124e1575b5060200190600387016000526020600020916000905b82821061240a5750505050805190600160401b82116105ba576004860154826004880155808310612392575b5060200190600486016000526020600020916000905b8282106122bd57505050509061211c916121006005860191829060ff801983541691151516179055565b9064ffffffff0082549160081b169064ffffffff001916179055565b805160068301916001600160401b0382116105ba5761213f8261026685546127ba565b602090601f83116001146122555761216f929160009183611d6e5750508160011b916000199060031b1c19161790565b90555b6007810183516001600160401b0381116105ba5761219481611aa784546127ba565b6020601f82116001146121e4578160089493926121ce9263ffffffff9798600092610e5a5750508160011b916000199060031b1c19161790565b90555b01805463ffffffff191691909216179055005b601f198216958360005260206000209660005b81811061223d5750966001928492600897969563ffffffff999a10612224575b505050811b0190556121d1565b015160001960f88460031b161c19169055878080612217565b838301518955600190980197602093840193016121f7565b90601f198316918460005260206000209260005b8181106122a5575090846001959493921061228c575b505050811b019055612172565b015160001960f88460031b161c1916905586808061227f565b92936020600181928786015181550195019301612269565b80518051906001600160401b0382116105ba576122de8261066088546127ba565b602090601f83116001146123255792612316836001959460209487966000926105165750508160011b916000199060031b1c19161790565b87555b019401910190926120d6565b90601f198316918760005260206000209260005b81811061237a575092600195928592879660209610612361575b505050831b83018755612319565b015160001960f88460031b161c191690558e8080612353565b92936020600181928786015181550195019301612339565b600487016000526020600020908382015b81830181106123b35750506120c0565b806123c0600192546127ba565b806123cd575b50016123a3565b601f811183146123e35750600081555b8c6123c6565b600090828252612401601f60208420920160051c8201858301612b25565b818355556123dd565b80518051906001600160401b0382116105ba5761242b8261066088546127ba565b602090601f83116001146124725792612463836001959460209487966000926105165750508160011b916000199060031b1c19161790565b87555b01940191019092612094565b908660005260206000209160005b601f19851681106124c957509260209260019592869583601f198116106124b0575b505050831b83018755612466565b015160001960f88460031b161c191690558f80806124a2565b91926020600181928685015181550194019201612480565b600388016000526020600020908382015b818301811061250257505061207e565b8061250f600192546127ba565b8061251c575b50016124f2565b601f811183146125325750600081555b8d612515565b600090828252612550601f60208420920160051c8201858301612b25565b8183555561252c565b90601f1983169160028a0160005260206000209260005b8181106125af5750908460019594939210612596575b505050811b01600287015561205d565b015160001960f88460031b161c191690558a8080612586565b92936020600181928786015181550195019301612570565b015190508c8061028a565b90601f198316918a60005260206000209260005b8181106126225750908460019594939210612609575b505050811b018755611ffc565b015160001960f88460031b161c191690558b80806125fc565b929360206001819287860151815501950193016125e6565b346109bd5760203660031901126109bd576001600160401b0361265b612915565b166000526002602052600760406000200161268560405160208101906118d481610fc28487612a63565b612692610d3782546127ba565b60126818dbdb5c1b195d195960ba1b019055005b346109bd5760203660031901126109bd576127416001600160a01b03806126cb61278e565b16600052600060205260406000206127846126e582612830565b92600183015416916127766126fc60028301612830565b9360058301549063ffffffff61275461271760068701612830565b9282600861272760078a01612830565b98015416986040519b8c9b8c6101008091528d01906128d5565b9160208c01528a820360408c01526128d5565b9260ff8116151560608a015260081c16608088015286820360a08801526128d5565b9084820360c08601526128d5565b9060e08301520390f35b600435906001600160a01b03821682036109bd57565b602435906001600160a01b03821682036109bd57565b90600182811c921680156127ea575b60208310146127d457565b634e487b7160e01b600052602260045260246000fd5b91607f16916127c9565b604081019081106001600160401b038211176105ba57604052565b90601f801991011681019081106001600160401b038211176105ba57604052565b90604051918260008254612843816127ba565b908184526020946001916001811690816000146128b35750600114612874575b5050506128729250038361280f565b565b600090815285812095935091905b81831061289b5750506128729350820101388080612863565b85548884018501529485019487945091830191612882565b9250505061287294925060ff191682840152151560051b820101388080612863565b919082519283825260005b848110612901575050826000602080949584010152601f8019910116010190565b6020818301810151848301820152016128e0565b600435906001600160401b03821682036109bd57565b602435906001600160401b03821682036109bd57565b81601f820112156109bd578035906001600160401b0382116105ba5760405192612975601f8401601f19166020018561280f565b828452602083830101116109bd57816000926020809301838601378301015290565b6001600160401b0381116105ba5760051b60200190565b81601f820112156109bd578035916020916129c884612997565b936129d6604051958661280f565b808552838086019160051b830101928084116109bd57848301915b848310612a015750505050505090565b82356001600160401b0381116109bd578691612a2284848094890101612941565b8152019201916129f1565b60a4359081151582036109bd57565b60c4359063ffffffff821682036109bd57565b610124359063ffffffff821682036109bd57565b600092918154612a72816127ba565b92600191808316908115612acc5750600114612a8f575b50505050565b9091929394506000526020906020600020906000915b858310612abb5750505050019038808080612a89565b805485840152918301918101612aa5565b60ff1916845250505081151590910201915038808080612a89565b15612aee57565b60405162461bcd60e51b815260206004820152600f60248201526e23b4b39034b9903737ba1037b832b760891b6044820152606490fd5b818110612b30575050565b60008155600101612b25565b90601f8111612b49575050565b61287291600052601f6020600020910160051c810190612b25565b9190601f8111612b7357505050565b612872926000526020600020906020601f840160051c83019310612b9f575b601f0160051c0190612b25565b9091508190612b92565b9060016001600160401b0380931601918211612bc157565b634e487b7160e01b600052601160045260246000fd5b9190916001600160401b0380809416911601918211612bc15756fea2646970667358221220347cbe1e756836a6811f9804d3099939b26c1889e9d5aa5a7f73bdcb0c6c829964736f6c63430008180033",
  "linkReferences": {},
  "deployedLinkReferences": {}
}